:020000040800F2
:10000000E80800205501000851210008671E00087B
:1000100000000000000000000000000000000000E0
:100020000000000000000000000000005521000852
:1000300000000000000000005321000857210008C4
:100040006701000800000000670100086701000860
:1000500067010008030B00080D0B0008670100088A
:100060000000000067010008670100086701000840
:10007000670100084D220008670100080000000029
:100080006701000800000000000000006701000890
:10009000000000002D2200083D2200086701000832
:1000A0000000000067010008000000006701000870
:1000B00000F002F800F03EF80CA030C80838241810
:1000C0002D18A246671EAB4654465D46AC4201D190
:1000D00000F030F87E460F3E0FCCB6460126334284
:1000E00000D0FB1AA246AB463343184758360000EF
:1000F00078360000103A02D378C878C1FAD852078F
:1001000001D330C830C101D504680C6070470000CD
:100110000023002400250026103A01D378C1FBD823
:10012000520700D330C100D50B6070471FB51FBD0B
:1001300010B510BD00F04CFB1146FFF7F7FF02F0C1
:1001400015FF00F064FB03B4FFF7F2FF03BC00F0FF
:1001500099FB00000748804707480047FEE7FEE795
:10016000FEE7FEE7FEE7FEE704480549054A064BC1
:1001700070470000AD210008B1000008E80200202F
:10018000E8080020E8040020E8040020FEB5054649
:1001900010460C46184373D0AE468C460020AD1A6C
:1001A00001469C4167D36646002701243D46B61AA6
:1001B0009D4102D313463A462124654676462F04D4
:1001C000360C3E432D0CB61A9D4104D3150C1B046E
:1001D0002B4312041034654676462F06360A3E43FA
:1001E0002D0AB61A9D4104D3150E1B022B43120291
:1001F0000834654676462F0736093E432D09B61A60
:100200009D4104D3150F1B012B431201241D65468C
:100210007646AF07B6083E43AD08B61A9D4104D3F3
:10022000950F9B002B439200A41C65467646EF0772
:1002300076083E436D08B61A9D411AD392185B4169
:10024000641C16E00018764665464941B71A9D4180
:100250000191009009D36046B11A98418E468446B8
:10026000009801990025401C6941DD0752082A4386
:100270005B08641EE6D57246634603B0F0BDFFE737
:1002800000200146C046C0462A462346F5E701E065
:1002900004C0091F0429FBD28B0701D50280801CF2
:1002A000C90700D00270704700290BD0C30702D0E5
:1002B0000270401C491E022904D3830702D5028024
:1002C000801C891EE3E70022EEE70022DFE7002220
:1002D00003098B422CD3030A8B4211D300239C4683
:1002E0004EE003460B433CD4002243088B4231D3FB
:1002F00003098B421CD3030A8B4201D394463FE08F
:10030000C3098B4201D3CB01C01A524183098B42EE
:1003100001D38B01C01A524143098B4201D34B01D7
:10032000C01A524103098B4201D30B01C01A52413A
:10033000C3088B4201D3CB00C01A524183088B42C1
:1003400001D38B00C01A524143088B4201D34B00AA
:10035000C01A5241411A00D201465241104670471C
:100360005DE0CA0F00D04942031000D34042534021
:1003700000229C4603098B422DD3030A8B4212D3E1
:10038000FC22890112BA030A8B420CD38901921113
:100390008B4208D3890192118B4204D389013AD050
:1003A000921100E08909C3098B4201D3CB01C01A25
:1003B000524183098B4201D38B01C01A5241430938
:1003C0008B4201D34B01C01A524103098B4201D326
:1003D0000B01C01A5241C3088B4201D3CB00C01A93
:1003E000524183088B4201D38B00C01A5241D9D2AB
:1003F00043088B4201D34B00C01A5241411A00D22C
:100400000146634652415B10104601D34042002B27
:1004100000D54942704763465B1000D3404201B5A6
:100420000020C046C04602BD7047704770470000BC
:100430000246C80FC00781434B0030B54B405B00FC
:100440009B0D20D01923DB06C91801231B059942F7
:1004500020DB0324A40704251346AB400BD3002B59
:1004600004D1EB0613409B00E34204D4012464074B
:10047000002312195941FF231B0599420BD2C900D1
:100480000143500F09E0CB0204D5014308030243A6
:1004900005D0054830BDFF21C905084330BD0846D9
:1004A00007210905884330BD0000C07FF0B5FF2556
:1004B0002D04C609C209FF2704462E400137CB0987
:1004C0003E4348402A402B400746002A6BD0002B71
:1004D00069D0AA4267D0AB4265D0002800DA324624
:1004E0000125ED0529432C4309022002090AD21AED
:1004F0004B0C7F24E31A434C000A7C44E35C7D24CC
:100500002404121914145B00A218884201D3521C4F
:1005100000E0400049420C465C4324115C43DB018F
:100520006415E318040A5C43C502200D0C464443DD
:100530006419250A5D432303EC0C0D466543000353
:100540000019EB184C42A34201D35B18401CD405A0
:100550002018002B07D05B00C91804D3401C0029C9
:1005600001D1400840003F2189048A4209D3002A72
:1005700008DC1106090F04D0032149074018C00FF9
:10058000C007F0BD01224100120689187F225206E1
:100590009142F6D205214907C84201D59010F0BD1D
:1005A000FF20C005F0BD002F00DA32461648AA42EF
:1005B00007D2AB4205D21902090E17D0F80FC007B7
:1005C000F0BDFF2563002D06AB42F9D84900A942D2
:1005D000F6D8AB4201D1A942F2D0A94201D1002103
:1005E00001E061004908D0050843F0BD1102090E81
:1005F000FBD0FF200243D005F0BD0A46014610465D
:1006000054E70000063200000000C07F10B501462C
:100610009E240002CA15A307002A02D01843002A0C
:1006200004DBA21A002A0CDDD04010BD1206120E07
:1006300001D140004008A21A03D4D0404042002813
:10064000F3DDFF2248001206904201D9002010BDC0
:10065000C817C043584010BD0102C21504D0012381
:10066000DB071943002A0ADB9E239A1A02D40846A4
:10067000D0407047FF2241001206914201D900206C
:100680007047C017C04370471F22030C02D10F22CE
:1006900000041CD0030E01D10002083A030F01D15F
:1006A0000001121F830F01D18000921E002801DB80
:1006B0004000521ED20551180212511819229040C2
:1006C00004D3491C002801D1490849000846704755
:1006D000C10FC90700D04042012292071143D3E75E
:1006E00001218907D0E7000010B5FF22C30D134098
:1006F00009D05A4007D0914205DA5C42A14202DD9E
:10070000C905081810BDC40FE407002B06D0002A45
:1007100006D0002902DBFF20C0050443204610BD9F
:100720004102FCD0004810BD0000C07F10B5FF237F
:100730001B0644009C421DD84C009C421AD803461C
:10074000124A0B4307D4401A02D3EFF3008010BDC6
:10075000EFF3008010BD081A06D2EFF300800121EC
:100760009043C907084302E0EFF30080904380F311
:10077000008810BD0D231B041A4204D0114600202E
:1007800000F006F810BD00F01BF810BD000000904E
:10079000C80212D54803400F002804D0C803C04344
:1007A000012188407047EFF3008000010009032118
:1007B0000907084380F30088704700207047000055
:1007C00010B5024800F02BF810BD00000000C07FFB
:1007D000754600F053F8AE46050069465346C0081A
:1007E000C000854618B020B5FFF7BEFC60BC0027EE
:1007F0004908B6460026C0C5C0C5C0C5C0C5C0C5ED
:10080000C0C5C0C5C0C5403D49008D46704710B544
:100810000446C046C0462046FFF795FC10BD10B503
:100820000C461107090F092904D00A290AD0082902
:100830000CD104E011460820FFF7AAFF06E051069C
:1008400006D501E0510601D50120C007214610BDA3
:10085000D10607D501010909CC084907000E000699
:10086000044309E0410F20024907000A0143200E1A
:1008700000061D22D14101430846E7E700487047C2
:100880008402002001491820ABBEFEE726000200CA
:10089000704770B5044600688168490724D58168AF
:1008A00010264907002905DA8168890702D4816882
:1008B0003143816000F0F2FC054611E000F0EEFCEF
:1008C000401B02280CD920688068400708D5A06B1F
:1008D0003043A063E06B01210843E063084670BD2C
:1008E000206880684007E9D4002070BDF8B5044650
:1008F000006881688907890F01292CD10168C9071F
:1009000002D1C168090426D581680522114010254D
:100910000126012913D181680222114381602168D7
:100920000320086000F0BAFC074610E000F0B6FCB7
:10093000C01B02280BD920688068C00707D0A06BB5
:100940002843A063E06B3043E0630120F8BD2068DA
:100950008068C007EAD10020F8BD0000F8B5044661
:1009600000200090206881688907890F012905D13E
:100970000168C90731D1C16809042ED48168184AB9
:1009800010261140012500291AD181682943816070
:10099000154814490068FFF79AFC00E0401E0090DB
:1009A0000028FBD100F07AFC074611E000F076FC4D
:1009B000C01B02280CD920680068C043C00707D0BC
:1009C000A06B3043A063E06B2843E0630120F8BDD7
:1009D00020680068C043C007E8D10020F8BD0000CF
:1009E0001700008040420F007C00002010B5054831
:1009F00002F0E4F903481C3002F0E0F9024800F08C
:100A0000EDFA10BDB8000020240100200068002984
:100A100005D0042905D0082905D002647047426337
:100A2000704782637047C26370474179002905D0DF
:100A30000021017041708170C170417170470000E8
:100A400070B51A4E3078012812D1194C60790128FE
:100A50000ED121462278487889780025002A01D1D4
:100A6000002803D0002904D0491E0DE00029FBD145
:100A700070BD3B21002802D0401E607004E0002AB7
:100A80000CD0521E22706170A170207800280BD10A
:100A90006078002808D10806000E05D1A06800285B
:100AA00000D080476571A560357070BD00000020E2
:100AB0009000002030B50D461543039C1D4309D01E
:100AC000017042708370C47001214171024AA1001B
:100AD0005158816030BD0000143600087D2110B5EA
:100AE000C900884205D3FFF7F2FB0C4600F096FAE6
:100AF00020460021C00001E000BF491C8842FBD80D
:100B000010BD10B5012000F0D7FA10BD10B50820B7
:100B100000F0D2FA10BD72B6FEE7F8B505460446FD
:100B20002035287D0026012808D00120287520685E
:100B300081688907890F012908D101E00220F8BDE9
:100B40000168C9073CD1C168090439D4A16BFF22EF
:100B50000132914302221143A163C1688907890FC1
:100B60000091C16889088900C16020688168920786
:100B70001143816000F092FB074612E000F08EFB0B
:100B8000C01B02280DD920688068002809DAA06BF4
:100B90000221884310210843A0630020287501200A
:100BA000F8BD206880680028E8DB2068C168009AEA
:100BB0001143C160A06B80088000401CA06304E06A
:100BC000A06B20210843A063012600202875304631
:100BD000F8BD0000F8B50025044620340095227DBC
:100BE000012A39D00122227503689E68760767D4EE
:100BF000384F4E68BE424DD09E6A0F78BA401643B9
:100C00009E620123C26A1B079A421FD0012A1DD08F
:100C1000022A1BD0032A19D0042A17D0052A15D07E
:100C2000062A13D0072A11D002688B685669760706
:100C3000760FB3420AD05369DB08DB0053610068CA
:100C400042690B7A5B075B0F1A4342610A68102AFC
:100C500004D0112A02D038E00220F8BD1E48836873
:100C6000102A07D0012292051343836008681028D8
:100C700003D02AE00122D205F6E719481749006897
:100C8000FFF725FB0A21484300E0401E00900028A2
:100C9000FBD11AE0986A0E78B240904398620968D6
:100CA000102901D0112910D10B488268102904D0D5
:100CB000012189058A43826007E00121C905F9E71E
:100CC000816B202211438163012500202075284675
:100CD000F8BD0000011000000027014040420F0055
:100CE0007C0000200068006C70470000F8B500260A
:100CF0000446002805D0A06B25462035002802D0E8
:100D000007E00120F8BD0020E0632875204600F0D0
:100D1000A9F8A06B1022C006002870DB206881684B
:100D200049076CD4A16B1301994302231943A163B2
:100D300081688907890F012905D10168C9070FD189
:100D4000C16809040CD4C16818239943A3681943E6
:100D5000C1602068016963688900890819430161DD
:100D60002068C1683D4B1940C160207E617E8003D0
:100D7000C9030843A17E4B031843A36A012B02D089
:100D800001231B0300E000231843E3681843236991
:100D9000022B09D0002318432B79E57E5B00184312
:100DA0000123012D02D00AE00423F4E7002927D013
:100DB000A16B20252943A163E16B1943E163E1693C
:100DC0000D46FF3DC23D02D0256A294308432168F4
:100DD000CD680543CD600125E16A2D07A94213D0F6
:100DE000012911D002290FD003290DD004290BD0DD
:100DF000052909D0062907D0072905D010E028E0E9
:100E0000012109040843DAE721684D69ED08ED0086
:100E10004D6121684D69A78D7F077F0F3D434D616F
:100E20002168C9680E4D2940814207D10020E06346
:100E3000A06B80088000401CA06308E0A06B02212A
:100E400088431043A063E06B1843E06301263046FB
:100E5000F8BDA06B1043A063F8E700001902FEFF85
:100E6000E7FF3F8310B586B0044614216846FFF7BC
:100E70002CFA0F492068884218D10E488269411522
:100E80000A43826182690A400592426909020A4363
:100E900042614069084005900320009001900020C5
:100EA000029009206946C00600F012F906B010BD94
:100EB0000024014000100240F8B504464069254670
:100EC00020350E4608280BD02068C068C00709D01E
:100ED000A06B20210843A063002028750120F8BDE5
:100EE000082700E00C2700F0D9F9009015E0701CED
:100EF00013D0002E05D000F0D1F90099401AB0426D
:100F00000BD920680068384207D1A06B0421084340
:100F1000A063002028750320F8BD206800683842CF
:100F2000E5D0A06B012149020843A0632068C16895
:100F300009058A0F0C21002A1AD1A27E002A17D196
:100F40000268120714D5826853070122002B08DBC0
:100F500043688B434360A06B130298431043A06324
:100F600006E0A06B20231843A063E06B1043E0630E
:100F7000207E002801D1206801600020F8BD00001B
:100F800070B50446216800208968490721D42546A8
:100F90002035297D01291CD001212975617E012977
:100FA00004D02046FFF7DAFC002811D1A16B0A4AD1
:100FB0001140FF2201321143A1630021E163297531
:100FC00022681C21116021688A6804231A438A6000
:100FD00070BD022070BD0000FEF1FFFF70B5054638
:100FE00004462035287D012807D001262E7520468D
:100FF000FFF74FFC002802D00CE0022070BD204615
:10100000FFF774FC002805D1A16BFF220132914348
:101010003143A1630021297570BD000070B50446FD
:1010200000F03CF90546601C02D004480078241802
:1010300000F034F9401BA042FAD370BD70000020CC
:1010400070B5012806D0082803D115494888401CEE
:10105000488070BD134D287B0128FAD11249134CEA
:101060004888401C488020780A21401CFFF72FF94F
:1010700021700F492869FFF719FA05462078FFF714
:101080002FFB294602F0B6F8E3D2092001221021F5
:10109000C00600F0FCF807490120087070BD000090
:1010A000040000209C000020680000205A0000205E
:1010B000000020416200002010B504494A69024244
:1010C00002D04861FFF7BCFF10BD000000040140E2
:1010D000F8B5002303240125BAE02E469E40B4460D
:1010E00032407CD00E79B607B60F012E01D0022E09
:1010F00017D186682746B6465E00B740009676460A
:10110000BE43B646CF68009EB740764637438760F9
:1011100046686746BE430F79FF06FF0F9F4037437F
:1011200047600E79F643B6070ED0C6682746B44628
:101130005E00B646B7406646BE43B4468F68764604
:10114000B74066463743C7600E79B607B60F022E22
:1011500014D1DE08B60036180096366A5F07B4462A
:10116000FE0E0F27B646B7406646BE43B4460F692B
:101170007646B74066463743009E37620668274684
:10118000B4465E00B646B7406646BE430F79B446E5
:10119000BF07BF0F7646B7406646374307604E68C5
:1011A000B603B60F53D02D4FBE692E43BE61BE6944
:1011B0009F08F607F60F2A4EBF00BE190096B668C4
:1011C0000F27B4469E07360FB646B7406646BE4365
:1011D0000927FF06B446B84202D1002710E036E0E6
:1011E000204FB84201D101270AE01F4FB84201D178
:1011F000022705E01D4FB84201D1032700E0052773
:101200007646B74066463743009EB760184EB668CC
:101210004F689643FF0200D51643154FBE60FE6827
:101220004F689643BF0200D51643114FFE607E689B
:101230004F689643BF0300D516430D4F7E603E684E
:101240004F689643FF0300D51643094A16605B1C9E
:101250000A681646DE4000D03FE7F8BD00100240A5
:10126000000001400004004800080048000C00484D
:10127000000401400069084000D001207047426925
:1012800013460B401B0491430B4383617047002AB4
:1012900001D0816170478162704700000148806819
:1012A00070470000700000200248816802788918A9
:1012B000816070477000002010B506480168102258
:1012C00011430160032000F007F800F053F80020FC
:1012D00010BD00000020024030B505461F4887B011
:1012E0008269C1140A43826180690840009005A99F
:1012F00001A800F0E7F80498002815D000F0FEF8E7
:1013000040001749FEF7E3FF411E1748154A0260E7
:10131000164AC2604160002101618160816100F074
:10132000EDFA040003D015E000F0E8F8E9E70E4814
:1013300000F064FB04000DD10D2000F02FF8042D07
:1013400007D2002229460D2000F034F80848056035
:1013500000E00124204607B030BD0000001002402C
:1013600040420F00002C01403C020020E703000037
:101370007400002008B50848816901221143816189
:10138000816911400091C26901040A43C261C069C8
:101390000840009008BD000000100240002805DB56
:1013A000C106C90E0120884001490860704700004D
:1013B00000E100E010B501F0C7F810BDF8B50F4628
:1013C000060059D03A4D2868C007C00FB84209D26C
:1013D000286840084000384328602868C007C00FCC
:1013E000B84249D13068334C81070CD5400704D549
:1013F000606807210902084360606068F021884343
:10140000B168084360603078C00726D07068012852
:101410000ED0216802280ED0890700292CDA6168D5
:101420008908890001436160FFF738FF00900DE0F3
:1014300021688903F1E78901EFE7FFF72FFF0099A2
:10144000411A1D48814201D90320F8BD60680C2172
:101450000840716889008842EFD12868C007C00F32
:10146000B8420BD9286840084000384328602868F3
:10147000C007C00FB84201D00120F8BD3078400746
:1014800006D56068072109028843F1680843606057
:1014900000F044F86168094A0906090F515CC84028
:1014A000074908600320FFF717FF0020F8BD000080
:1014B000002002400010024088130000EC360008B3
:1014C0007C00002010B5072202600A4A53689B077F
:1014D0009B0F43605368F0242340836052680723C6
:1014E0001B021A40C26004480068C007C00F0860B1
:1014F00010BD0000001002400020024004480549D1
:1015000000684968044A4905490F515CC840704762
:101510007C00002000100240FC36000810B5104A84
:1015200051680C200B4603400E48042B17D0082BA3
:1015300015D18B020C4C1B0FE45CD26A0A4B1207CC
:10154000120F10339A5CC90305D500231946FEF724
:101550001DFE214601E02046044900F0CFFF10BDEA
:101560000010024000127A00CC36000800093D004D
:10157000FEB5040070D02078DC4DC0074AD0686802
:101580000007800F012807D068680007800F022835
:1015900009D16868C00306D5286880033AD5606819
:1015A0000028E7D036E06168012914D001208004CA
:1015B000002901D0052914D02A68012109048A4391
:1015C0002A602968814329606068002816D0FFF7E7
:1015D00065FE06460EE028680121090408432860DC
:1015E000F2E7296801432960F5E7FFF757FE801B02
:1015F00064286ED828688003F7D50BE0FFF74EFE0D
:10160000064604E0FFF74AFE801B6428F1D82868EC
:101610008003F7D420780126800700283CDA686828
:101620000007800F07D068680007800F022809D1E3
:101630006868C00306D42868800716D5E0680128CA
:101640000AD112E0E0680028286816D030432860EC
:10165000FFF724FE074605E043E1FFF71FFEC01B2E
:101660000228C6D828688007F7D52868F82188435B
:101670002169C900084328600EE040084000286046
:10168000FFF70CFE074604E0FFF708FEC01B022828
:10169000AFD828688007F7D42078000722D5E06902
:1016A0000028686A0ED030436862FFF7F7FD0746EE
:1016B00004E0FFF7F3FDC01B02289AD8686A800790
:1016C000F7D50FE0400840006862FFF7E7FD0746E6
:1016D00005E09DE0FFF7E2FDC01B022889D8686A9B
:1016E0008007F7D4207804274007002860DA00201C
:1016F0000190E869C00008D4E969B8060143E961CE
:10170000E969014001200091019079480168C9050B
:1017100011D40168821511430160FFF7BFFD0090ED
:1017200005E0FFF7BBFD0099401A642870D87048A7
:101730000068C005F5D5A06801280AD0002801D0AE
:10174000052810D0286A400840002862286AB8435B
:1017500001E0286A30432862A068002812D0FFF711
:101760009DFD00900AE0286A38432862F1E7FFF700
:1017700095FD0099411A5F48814249D8286A80073F
:10178000F5D50DE0FFF78AFD009006E0FFF786FD36
:101790000099411A574881423AD8286A8007F5D4FF
:1017A0000198002804D0E969012000078143E9611C
:1017B0002078C00635D5606901280CD0401D686BC3
:1017C00023D038436863686B400840006863FFF7C4
:1017D00065FD064622E0686B38436863686B3043FA
:1017E0006863FFF75BFD064604E0FFF757FD801BCB
:1017F00002285BD8686B8007F7D5686BF8218843AF
:10180000A169C900084368630BE0B8436863F4E763
:101810004CE0FFF743FD801B022847D8686B800728
:10182000F7D4206A00285ED069680907890F022969
:1018300042D0012636060228286805D0B043286029
:10184000FFF72CFD044633E0B0432860FFF726FD88
:10185000074604E0FFF722FDC01B022826D82868AF
:101860008001F7D4E86AE16A000900010843E862F0
:10187000616AA06A084369683D22120491430843E3
:101880006860286830432860FFF708FD044604E0DC
:10189000FFF704FD001B022808D828688001F7D54F
:1018A00021E0FFF7FBFC001B022801D90320FEBD4D
:1018B00028688001F5D416E00128F8D06868E96A44
:1018C00001221204636A02409A420AD10907E26ABD
:1018D000090F914205D10F2189040840A16A88426D
:1018E00001D00120FEBD0020FEBD0000001002401E
:1018F00000700040881300007047704770B5040006
:1019000005D025462035687F002802D006E001205A
:1019100070BD00202877204600F014F80220687778
:10192000211D206800F09AFC01204034A071A877A6
:10193000E87720706070A070E07020716071687747
:10194000002070BD08B5194A01681948914207D1B5
:10195000C26981150A43C261C0690840009008BD90
:10196000144A91420ED18269012149040A438261DD
:10197000806900220840009011461520FFF71AFDEB
:10198000152010E00C4A9142E9D1826901218904B5
:101990000A438261806900220840009011461620A7
:1019A000FFF708FD1620FFF7F9FC08BD00200040F6
:1019B000001002400044014000480140014620312F
:1019C0004A7F012A01D00120704702224A7700682D
:1019D00008490122884202D00749884204D181681F
:1019E0004907490F062902D0016811430160002010
:1019F00070470000002C01400004004001462031E7
:101A00004A7F012A01D00120704702224A770268EA
:101A1000D36801210B43D3600068084A904202D08A
:101A2000074A904204D182685207520F062A02D018
:101A300002680A430260002070470000002C014049
:101A4000000400407047F8B504460068C6680569A0
:101A50000027A907002913DAB10711D5F91E016182
:101A600001202077206880698007204602D0FFF798
:101A7000E9FF04E000F0A2F8204600F02DF92777F6
:101A8000680716D5700714D504202168C043086183
:101A900002202077206880698005800F204602D0D0
:101AA000FFF7D0FF04E000F089F8204600F014F9B9
:101AB0002777280715D5300713D508202168C0439C
:101AC0000861042020772068C0698007204602D082
:101AD000FFF7B8FF04E000F071F8204600F0FCF8D2
:101AE0002777E80616D5F00614D510202168C043E4
:101AF0000861082020772068C0698005800F204693
:101B000002D0FFF79FFF04E000F058F8204600F0F5
:101B1000E3F82777E80708D0F00706D0012021680E
:101B2000C0430861204600F027F9280608D5300692
:101B300006D580202168C04308612046FFF7DCFEFF
:101B4000680608D5700606D540202168C0430861A4
:101B5000204600F087F9A80608D5B00606D5202053
:101B60002168C04308612046FFF7C7FEF8BD0000AA
:101B700010B586B0044614216846FEF7A6FB0C4952
:101B80002068884212D10B48426949010A434261E8
:101B900040690840059002200090019000200290CA
:101BA0000390049069460448FFF792FA06B010BD0E
:101BB0000020004000100240000400487047F8B5C3
:101BC000064604462036307F00270D4601280ED0F9
:101BD00001203077002A0CD0042A1BD0082A2FD0ED
:101BE0000C2A3ED00127002030773846F8BD02206D
:101BF000F8BD206800F084FB206881690822114349
:101C000081612068826904218A4382612068816938
:101C10002A6912E0206800F0AFFB20688269012188
:101C2000C9020A43826120688169012292029143BC
:101C30008161206881692A69120211438161D2E7BA
:101C4000206800F0D3FB2068C16908221143C161FC
:101C50002068C26904218A43C2612068C1692A6977
:101C600012E0206800F0FEFB2068C1690122D20268
:101C70001143C1612068C269012189028A43C2619E
:101C80002068C1692A6912021143C161ABE770B5CE
:101C9000040005D025462035687F002802D006E0E4
:101CA000012070BD00202877204600F014F80220A3
:101CB0006877211D206800F0D1FA01204034A0711E
:101CC000A877E87720706070A070E0702071607174
:101CD0006877002070BD70477047000010B504465B
:101CE0000222203000290AD004290DD0204640309D
:101CF00008290ED04378012B10D0012010BD837F1E
:101D0000012BFAD182770AE0C37F012BF5D1C2778C
:101D100005E00378012BF0D1027000E0427001224F
:101D2000206800F0DFFA10492068884205D00F4A89
:101D3000904202D00E4A904204D1426C0123DB0350
:101D40001A43426420680122884202D0094988422D
:101D500004D181684907490F062902D0016811435F
:101D60000160002010BD0000002C01400044014033
:101D7000004801400004004070B5044600682D4949
:101D8000884201D1FFF790FA2B492068884246D15A
:101D90002A487D220188D20001250024914202D2E6
:101DA000491C018010E026490D7004802548017807
:101DB000012909D141888288914202D2491C41807F
:101DC00002E04570448004701F4908880A2802D246
:101DD000401C088002E00C8000F054F81B48FF22F1
:101DE0000188F532914202D2491C01800DE0184968
:101DF0000D700480174881784900017044801648AE
:101E000081780170448015480580154D2878012897
:101E100005D16888A988884202D2401C688070BDBC
:101E2000092000221021C006FFF731FA6C802C70C7
:101E300070BD0000002C0140004401405C00002007
:101E4000000000200E000020600000205E00002046
:101E50000100002004000020680000206C00002029
:101E6000620000207047FEE710B5017A012905D114
:101E700000210172C178024800F024FB10BD00006F
:101E80009C00002010B50A4801F05CF908480C30AD
:101E900001F058F90648183001F054F9044824308C
:101EA00001F050F90248303001F04CF910BD00004B
:101EB0001400002010B50A48FFF7D6FF08480C3080
:101EC000FFF7D2FF06481830FFF7CEFF0448243052
:101ED000FFF7CAFF02483030FFF7C6FF10BD000011
:101EE000140000203EB500241B491C4800940194B6
:101EF000029412C004600125856004214460C16021
:101F0000047444748474C574FF21C23184614161D6
:101F1000014618310C7105620838FEF7E7FE00280B
:101F200001D0FEF7F8FD01200003019000040290AB
:101F3000009469460948FEF74DFE002801D0FEF7DF
:101F4000EAFD694605480095FEF744FE002801D0E9
:101F5000FEF7E1FD3EBD0000002401402401002009
:101F6000F0B587B014216846FEF7AFF93D484269E5
:101F70000121C9040A43426142690A40059242694B
:101F800089100A43426142690A4005924269490048
:101F90000A434261406907240840334E64030590B8
:101FA000002221463046FFF772F9092000222F490E
:101FB000C006FFF76CF900222D492E48FFF767F99C
:101FC000009400240125019502946946304603944B
:101FD000FFF77EF8042002266A4651C209206946AE
:101FE000C006FFF775F80820112700903F0409206C
:101FF000694601970296C006FFF76AF81B480090F1
:1020000009200294694601950394C006FFF760F821
:1020100069461848019700950294FFF759F814484B
:10202000009002946946019503941248FFF750F816
:102030008F20C0006A4631C269460E48FFF748F853
:10204000002211460520FFF7B5F90520FFF7A6F994
:10205000002211460620FFF7ADF90620FFF79EF992
:1020600007B0F0BD0010024000080048F0800000FA
:1020700004F800000004004810B588B01C21684630
:10208000FEF723F9174816490160002407218460F0
:10209000416063210461C16080218161FFF72EFCF2
:1020A000002801D0FEF737FD0E48FFF7F0FD0028AD
:1020B00001D0FEF730FD60200090022002900194D4
:1020C0000022694604940748FFF779FD002801D0F3
:1020D000FEF721FD0348FFF74BFD08B010BD0000DF
:1020E000002000406401002010B50B480949016040
:1020F0000721416000217D228160D2000161C26020
:10210000416180218161FFF7F9FB002801D0FEF7D2
:1021100002FD10BD00440140AC01002010B50B4889
:102120000949016007214160002181606422016149
:10213000C260416180218161FFF7E0FB002801D08E
:10214000FEF7E9FC10BD000000480140F40100204A
:10215000FEE770477047704710B590B03021684671
:10216000FEF7B3F8002412200F94009001200D9484
:102170000390059010200E94049006900C940894FF
:102180006846FFF7F5F9002801D072B6FEE7072090
:102190000C900D940E9400210F940CA8FFF70EF9EB
:1021A000002801D072B6FEE710B010BD70470000E5
:1021B0001FB5194C207800F0E5FD60700C342078D4
:1021C00000F0E0FD60700C34207800F0DBFD607002
:1021D0000C34207800F0D6FD60700C34207800F0CC
:1021E000D1FD60700D48002403900D480D4A019008
:1021F00002940D4B00942046510700F001FF074860
:10220000012154388472017003490C390978416006
:10221000C47200F0EDFC1FBD14000020F00000208F
:102220000000E03F9A9999999999C93F10B50248E1
:10223000FFF709FC10BD0000AC01002010B50248FA
:10224000FFF701FC10BD0000F401002010B50248AA
:10225000FFF7F9FB10BD00003C02002070B50268DA
:102260001B4B1C4E984201D0B04203D17024A243B4
:102270004C682243184C194D984208D0B04206D001
:10228000174EB04203D0A04201D0A84204D1032689
:102290003602B243CE6832438026B2434E6932439F
:1022A00002608A68C2620A688262984203D0A042D1
:1022B00001D0A84201D1096901630121416101698D
:1022C000C90703D0016949084900016170BD0000D8
:1022D000002C01400004004000440140004801403F
:1022E0000020004010B5CB06DB0E0121046A9940A6
:1022F0008C430462016A9A401143016210BD0000E0
:10230000F0B5056A026A52085200026243688269A7
:102310007024A24392080C68920014430222954351
:102320008A68134E2A43114DA84204D0B04202D00D
:10233000104FB84206D10827BA43CF68174304228A
:1023400097433A46A84204D0B04202D0094DA84271
:1023500006D103252D02AB434D691D438B692B43E9
:1023600043608461496841630262F0BD002C014012
:10237000004401400048014070B5046A026A10231D
:102380009A4302624368826973252D02AA430D684D
:102390002D021543202294438A6812012243104CD7
:1023A000A04208D11446CA688026B44312012243D1
:1023B0004024A24305E00B4CA04202D00A4CA042AC
:1023C00008D10324A402A3434C69A4001C438B69D5
:1023D0009B0023434360856149688163026270BD4D
:1023E000002C0140004401400048014070B5056ADE
:1023F000026AFF2301339A4302624268C369702470
:10240000A3439B080C689B001C4301235B029D4374
:102410008B681B022B43104DA84208D11D46CB6888
:10242000C614B5431B022B430515AB4305E00B4D0A
:10243000A84202D00A4DA84208D103252D03AA4381
:102440004D692D0115438A6912012A434260C46116
:102450004968C163036270BD002C01400044014023
:102460000048014030B5046A026A01231B039A4305
:1024700002624368C26973252D02AA430D682D02CA
:1024800015430122520394438A68120322430A4CE3
:10249000A04205D0094CA04202D0094CA04205D16F
:1024A0000124A403A3434C69A40123434360C561F1
:1024B00049680164026230BD002C014000440140C3
:1024C00000480140F8B5054600780B4A80001058D6
:1024D0004A0089180E18084FB07800242870143765
:1024E000305D0D2803D08000395828468847641C89
:1024F000022CF5DBF8BD000080360008F8B5040CAE
:102500008BB2264682B25E430D0C1046370C584300
:10251000360480190021794116466E43370C360483
:102520008019794126466E438919F8BD30B4744646
:10253000641E2578641CAB4200D21D46635D5B00BF
:10254000E31830BC184700008307FF22DB0E9A40D7
:102550008907090E9940002808DB830809489B0079
:102560001B18186890430843186070470007000F55
:102570000838830804489B001B18D8699043084317
:10258000D861704700E400E000ED00E070B50B4C4E
:10259000207B012810D1204638308069FEF798F85A
:1025A00005466068FEF794F8234601461033184646
:1025B0002A46443000F04CFC70BD00009C00002016
:1025C00070B5064D0446A87A0521401CC0B2FDF73F
:1025D0007EFE0348A972405C606070BD9C000020D4
:1025E00008000020017A012906D1427A0549002A13
:1025F00003D0002242724A617047012242720248AF
:10260000486170479C0000200000C84210B50B488C
:1026100000210173016141610121017201760022F3
:10262000C9020748FEF733FE0221084600F05EFDAE
:102630000121042000F05AFD10BD00009C00002084
:1026400000040048F0B587B032200090FE48C77AF9
:10265000002F23D00A260025FC48805DE840C007F3
:102660007ED0142101A8FDF730FE402001902C46B9
:102670000A204443F54801A99638005D02900020E5
:10268000039004900920C006FEF722FDEF4896381B
:10269000005D01280ED011280CD014E0EA4C6068CF
:1026A0000A21FDF71EFEC6B260680A21FDF719FE79
:1026B000CFB2D0E7E548402196382018427909206A
:1026C000C006FEF7E4FD142101A8FDF7FEFD802001
:1026D0000190DE4801A99638241860780290002005
:1026E000039004900920C006FEF7F2FC60780128F0
:1026F00001D0112805D10920A2798021C006FEF75A
:10270000C6FD142101A8FDF7E0FD012000030190A2
:10271000A078029000200390049001A9CC48FEF715
:10272000D7FCA078012801D0112805D10121E27938
:102730000903C748FEF7ABFD142101A8FDF7C5FD4D
:10274000012040030190E078029000200390049063
:1027500001A9BF48FEF7BCFCE078012803D000E0E7
:102760006CE0112805D10121227A4903B848FEF70F
:102770008EFD142101A8FDF7A8FD01208003019022
:102780002079029000200390049001A9B048FEF740
:102790009FFC2079012801D0112805D10121627AFE
:1027A0008903AB48FEF773FD0098FEF797F91421F3
:1027B00001A8FDF78AFD4020002401900920029421
:1027C000039401A90494C006FEF782FC142101A819
:1027D000FDF77BFD8020019009200294039401A95C
:1027E0000494C006FEF774FC142101A8FDF76DFDEA
:1027F0000120000301900294039401A904949448D9
:10280000FEF766FC142101A8FDF75FFD01204003DF
:1028100001900294039401A904948D48FEF758FC9A
:10282000142101A8FDF751FD0120800301900294BD
:10283000039401A904948648FEF74AFC6D1CEDB28E
:10284000072D00D808E700258048C05DE840C00794
:102850007ED028460830C4B2142101A8FDF735FD0A
:10286000402001900A204443784800269638005DB5
:1028700002900920039601A90496C006FEF728FCE1
:1028800072489638005D012801D0112808D16F48A0
:1028900040219638201842790920C006FEF7F7FC3F
:1028A000142101A8FDF711FD80200190674801A9BE
:1028B0009638241860780290092003960496C00682
:1028C000FEF706FC6078012801D0112805D1092007
:1028D000A2798021C006FEF7DAFC142101A8FDF7D9
:1028E000F4FC012000030190A0780290039601A956
:1028F00004965748FEF7ECFBA078012801D0112878
:1029000005D10121E27909035148FEF7C0FC1421E9
:1029100001A8FDF7DAFC012040030190E078029065
:10292000039601A904964A48FEF7D2FBE0780128F5
:1029300001D0112805D10121227A49034448FEF72C
:10294000A6FC142101A8FDF7C0FC0120800300E0D3
:102950005DE0019020790290039601A904963C481D
:10296000FEF7B6FB2079012801D0112805D10121FD
:10297000627A89033648FEF78AFC0098FEF7AEF8C3
:10298000142101A8FDF7A1FC40200924E4060190D0
:102990000296039601A904962046FEF799FB14219E
:1029A00001A8FDF792FC802001900296039601A9F0
:1029B00004962046FEF78CFB142101A8FDF785FC48
:1029C00001200003224C01900296039601A904966F
:1029D0002046FEF77DFB142101A8FDF776FC0120BF
:1029E000400301900296039601A904962046FEF743
:1029F0006FFB142101A8FDF768FC01208003019002
:102A00000296039601A904962046FEF761FB6D1C11
:102A1000EDB2062D00D817E70B48C07A00287DD10B
:102A2000142101A8FDF751FC402000240190092049
:102A30000294039401A90494C006FEF749FB1421F3
:102A400001A8FDF742FC05E09C00002006360008C6
:102A50000004004880200127039401A9049481C147
:102A60000920C0060839FEF733FB09200122802126
:102A7000C006FEF70CFC142101A8FDF726FC3E035E
:102A80000294039401A9354801960494FEF720FBB3
:102A9000142101A8FDF719FC7500039401A92F4822
:102AA000029701950494FEF713FB002229462B4858
:102AB000FEF7EDFB142101A8FDF707FC6F0002945F
:102AC000039401A9254801970494FEF701FB00989F
:102AD000FEF704F814216846FDF7F7FB402000904C
:102AE00009200194029469460394C006FEF7F0FAA7
:102AF00014216846FDF7E9FB80200090092001942D
:102B0000029469460394C006FEF7E2FA142168466F
:102B1000FDF7DBFB01940294694600E01CE00F48DE
:102B200000960394FEF7D4FA14216846FDF7CDFB16
:102B3000019402946946094800950394FEF7C8FA87
:102B400014216846FDF7C1FB0194029469460348CD
:102B500000970394FEF7BCFA07B0F0BD00040048EC
:102B6000F8B505460023022000901A46194618467B
:102B700000F0A2FA032600220A2311460948009613
:102B8000FDF798FF084C0948A672C07868600120DC
:102B900020730246C1020648FEF779FB0548206112
:102BA0006061F8BD900000209C000020080000201B
:102BB000000400480000AA4238B5002423462246FB
:102BC00021462046009400F077FA01200022009070
:102BD0000A2311460448FDF76DFF0448C17A042911
:102BE00000D0C47238BD0000900000209C0000207E
:102BF00038B500242346224621460120009400F0E7
:102C00005BFA0C480122046144610473047244724B
:102C10000476094CD1022046FEF739FB012202213D
:102C20002046FEF734FB092000221021C006FEF7E3
:102C30002EFB38BD9C0000200004004838B5054636
:102C40000020022302460146009000F035FA084CAD
:102C500001200849A0724978696020730246C102C8
:102C60000548FEF714FB054820610548606138BD42
:102C70009C0000200800002000040048000048429A
:102C80000000C842F8B500263346022231463046DD
:102C9000009600F011FA1A4C62680121C902194825
:102CA000194F0125372A1CD009DC192A12D02D2AE8
:102CB00016D10122FEF7EBFA1448676116E0144EB4
:102CC000552A15D05F2A0BD10122FEF7E0FA1148F0
:102CD00066610BE00022FEF7DAFA6761266126736F
:102CE000F8BD0122FEF7D3FA0B486761206104E0CA
:102CF0000122FEF7CCFA666126612573F8BD00005B
:102D00009C000020000400480000C8420000484227
:102D10000000AA420000B442000070427047000068
:102D200010B50C48017E012906D0002101614161E6
:102D30000948FDF77AFE10BD0421017001210172DE
:102D40000221084600F0D2F90121042000F0CEF95A
:102D500010BD00009C0000209000002010B502482B
:102D6000FDF763FE10BD00009000002070470000DA
:102D700010B50248FDF759FE10BD0000900000207C
:102D800070470000014610B501200B4A0B00FFF709
:102D9000CDFB050407090B0D11000121890206E096
:102DA000402104E0202102E0102100E0082110462B
:102DB000FEF760FA10BD00000004004870B504463C
:102DC00000261C48FEF7DCF80A211A48FEF774F8C2
:102DD0001848FDF787FF81B20020174A02E06328F8
:102DE00000D363208300D3588B4203D9401C80B2A8
:102DF0006428F4D3617849000919488060780A2171
:102E0000401CC0B2FDF763FA61700025680000192C
:102E10004088FDF765FC314600F0A6F96D1C0646BA
:102E20000A2DF3DB0549FDF741FBFDF7EFFBA06140
:102E300070BD000024010020E033000800002041A4
:102E400010B500210148FFF73DFB10BD9C0000209C
:102E5000FEB5044622600846A1621D46114600F0F8
:102E600057FAE061266A0746314600F051FA616878
:102E700000F0EAF9206101903946A06800F0E4F919
:102E80006061009001213046FDF72EFC394600F0CC
:102E900033FA616A00F068F9E16800F0D5F9A061E1
:102EA00006460099019800F05FF9314600F05CF9A0
:102EB00006463020005D31460028286808D000F022
:102EC00027FA014628600C48814204DD286008E0AA
:102ED00000F04AF9F5E7FF20C005C14201D3002008
:102EE000F4E73146206800F03FF92060206A606214
:102EF000E0692062FEBD00000000C842F8B5174836
:102F000000244178012928D1002105465035144E6E
:102F100009274170FF06600040194078022818D147
:102F20002300FFF703FB0504080B0E111600012117
:102F3000C90330460BE02021384608E00121C903CF
:102F400004E00121890301E0012149030548FEF75E
:102F500096F9641CE4B2052CDDD3F8BD0000002016
:102F6000000400480008004870470000FEF7A4F97C
:102F7000FFF7F2F8FEF7F4FFFEF7B4FFFFF7B4F83F
:102F8000FFF7CCF8FFF778F81748FEF717FD002198
:102F90001548FEF7A3FE1548FEF730FD1448FEF76E
:102FA0002DFD1448FDF7B9FDFFF702F9124D00267B
:102FB000124CFFF747FBFEF77DFFFFF79FFFFDF782
:102FC0003FFDFDF713FD00F04DF86869FDF744FB88
:102FD00082B200210448FDF719FD20880128E8D1BC
:102FE0002680FFF7D3FAE4E764010020AC0100205B
:102FF000F4010020240100209C0000206C0000202F
:10300000F0B51FB40D9C15461E46342120460A9F7C
:10301000FDF75BF901990098FDF70AFA6060284610
:103020003146FDF705FAA06038460B99FDF700FA26
:10303000E06020340C98207405B0F0BD10B502217A
:10304000032000F053F80448012101730349016192
:103050000349416110BD00009C000020000048426F
:103060000000C84270B5124901234D69DB050124F7
:10307000002210489D420ADB05460A3D2D78642D4A
:1030800005D20578002D03D10470428000E0027063
:103090004578012D0BD142700869984201DBCC7252
:1030A00001E00220C87205210148FFF70BFA70BD4C
:1030B0009C0000200E000020F8B50D4601461E467B
:1030C00017460020069C00F011F82946012000F068
:1030D0000DF83946022000F009F83146032000F0CF
:1030E00005F82146042000F001F8F8BD10B54200B3
:1030F0001148012413185970825CE4030F4813002F
:10310000FFF714FA0504080D101419000A462146A9
:103110000B480EE00A4620210920C00609E00A46B5
:10312000214606E00A460121890302E00A46012100
:103130004903FEF7ACF810BD50000020000800481D
:103140000004004810B504460649007888702078CD
:10315000FFF718FE6178884202D06070012020726B
:1031600010BD00000000002070B501250400ED072F
:103170004C4020D4441A01D2001B0919C60D4B0043
:10318000F2B2FF2A29D01B0E2CD000020C02D31A57
:103190002C43DC402843051910D2280A02D3401CD6
:1031A0006D0611D0761EF6058019FF2A00DA70BD73
:1031B000C00DC00570BD694000F0B0F801200543A6
:1031C000C541521C761CE8E764089C40C901614077
:1031D0008900E7D10124A043E4E71B0E440200D09C
:1031E000034870BD002AFCD1C00FC00770BD00BFEE
:1031F0000000C07F01230200DB050A430DD4DA4240
:1032000003D49A4207D488427047D84214D4D94292
:1032100012D48842704780427047DA4203D59A42FE
:10322000F9D5814270475B004200DA4204D24A007D
:10323000DA4201D28142704710B5024AFDF776FAB0
:1032400010BD00BF0900160470B5420064414B0078
:103250005C41120E39D01B0E38D0FF2A3CD0FF2B18
:103260003AD040024902400A490A060045184E4336
:10327000000A090AD2184843ED017F3A0104731A83
:103280004019190C4318990F04D001215B08490714
:103290005B1A521CD80904D3401CF50301D19D06CA
:1032A00007D0FF2A08D2D50506D0E40720434019ED
:1032B00070BD0125A843F4E7002A01DCE00770BDDA
:1032C0002402FF202043C00570BD1B0EFF2A03D03F
:1032D000FF2B01D0E00770BDFF2645003606B54242
:1032E00006D84D00B54203D8D218FF2A00D0E7E730
:1032F000004870BD0000C07F70B50125ED07684033
:1033000004004C4002D5694000F008F8FFF732FF96
:1033100070B501250400ED074C4022D4441A02D2B6
:103320006C40001B0919C60D4B00F2B2FF2A4BD0AE
:103330001B0E50D000020C02D31A2C43DC40A843D1
:10334000051B05D5AD0019D36D08761E521E37D06A
:10335000F605280A01D2801970BD70416D0603D0B0
:1033600070BD6940FFF706FF9C40090261404900BB
:1033700001D0401E70BD0124A04370BD6D081DD05A
:1033800001202B0C01D12D0410302B0E01D12D0268
:1033900008302B0F01D12D01001DAB0F01D1AD0065
:1033A000801CEB0F01D16D00401C6D00361A121A03
:1033B000680AF5054019012A02DB70BD002070BDC6
:1033C000C036300AC00770BD1B0E440201D1FF2B6E
:1033D00000D1024870BD002AF0D070BD0000C07F4F
:1033E000F90A0000CC0A00009E0A00006F0A0000E3
:1033F000410A0000110A0000E2090000B2090000C1
:10340000820900005209000021090000F1080000B3
:10341000C1080000910800006108000031080000A8
:1034200001080000D2070000A30700007407000095
:103430004607000018070000EB060000BE0600006B
:1034400092060000660600003B0600001106000020
:10345000E8050000BF050000970500006F050000AB
:103460004905000023050000FE040000D904000007
:10347000B604000093040000710400005004000032
:103480003004000010040000F1030000D30300002A
:10349000B60300009A0300007E03000063030000EF
:1034A000490300002F03000017030000FF02000083
:1034B000E7020000D1020000BB020000A5020000EC
:1034C000910200007C020000690200005602000028
:1034D000440200003202000021020000100200003D
:1034E00000020000F0010000E1010000D301000033
:1034F000C4010000B7010000A90100009C01000008
:103500009001000084010000780100006D010000BE
:1035100062010000570100004D010000430100005E
:103520003901000030010000270100001E010000E9
:10353000160100000E01000006010000FE00000060
:10354000F7000000F0000000E9000000E2000000C9
:10355000DC000000D5000000CF000000C900000022
:10356000C4000000BE000000B9000000B40000006C
:103570000101000000010000000001000100000145
:103580000000000001000001000100000000010037
:103590000000010100000000010100000000010026
:1035A0000000000101000000010000000001000017
:1035B0000100010000000001000100000100000006
:1035C00001000100000000010000000101000000F6
:1035D00000010000000001010000000100000000E7
:1035E00001000100000100000001000100000000D6
:1035F00001000100000100000000010000000101C5
:103600000000000001003F065B4F666D7D077F6F85
:1036100079000000692F0008412E00083D300008A5
:103620000D2600080C00010C0B000C03020C060315
:103630000C08040D0D01010B00020D010D0D010D13
:103640000D010D0D010D0D010D0D020D0D020400FA
:10365000010D0D020D0D020D00010D0D030D0D03E9
:103660000D0D030700010D0D030D00010D0D040DDF
:103670000D04050D040D0D040900010D00010000ED
:103680002436000836360008483600085A36000846
:103690006C360008F12B00086D2D0008C1250008CC
:1036A000852C0008812D0008E52500083D2C000828
:1036B000712D0008612B0008212D00081D2D000828
:1036C000B92B00085D2D000800000000020304056E
:1036D000060708090A0B0C0D0E0F10100102030457
:1036E00005060708090A0B0C0D0E0F10000000005C
:1036F00000000000010203040607080900000000A2
:10370000010203048182838485868788898B8C8D5E
:103710008E8F919293959697999A9C9D9FA0A2A324
:10372000A5A7A8AAACAEB0B2B3B5B7B9BCBEC0C26B
:10373000C5C7C9CCCED1D4D7D9DCDFE2E6E9ECF0FD
:10374000F3F7FAFE64370008000000208000000054
:10375000F4000008E437000880000020680800003A
:10376000100100080000000000000000192D37556E
:103770005F000000000001000000060000000000E3
:103780000000000001000101000000000000000036
:103790000200060200000000000000000300030316
:1037A000000000000000000004000404000000000D
:1037B00000000000000001000200030004000000FF
:1037C000000000000000000000000D0000000000EC
:1037D00000000000010000000400000000000000E4
:0437E00000127A0059
:04000005080000B13E
:00000001FF
