:020000040800F2
:10000000881400202502000821310008572E00081E
:1000100000000000000000000000000000000000E0
:100020000000000000000000000000002331000874
:100030000000000000000000AB0100085131000882
:1000400037020008000000003702000837020008ED
:10005000370200082F1D0008391D0008370200086C
:1000600000000000370200083702000837020008CD
:10007000370200083532000837020008000000008F
:1000800037020008000000000000000037020008EE
:100090000000000015320008253200083702000871
:1000A00000000000370200080000000037020008CE
:1000B00000F002F800F04EF80CA030C80838241800
:1000C0002D18A246671EAB4654465D46AC4201D190
:1000D00000F040F87E460F3E0FCCB6460126334274
:1000E00000D0FB1AA246AB4633431847904C0000A1
:1000F000B04C0000103A02D378C878C1FAD8520741
:1001000001D330C830C101D504680C6070470000CD
:100110000023002400250026103A01D378C1FBD823
:10012000520700D330C100D50B60704710B5642969
:1001300002D100F059F910BD002010BD1FB5009884
:10014000019901F02CFA00F0DBFE1FBD10B500F0A4
:1001500043FF10BD00F0C5FF1146FFF7EFFF03F0AE
:10016000D9FD01F0BBF903B4FFF7F0FF03BC01F0C8
:10017000A9FB0000084B19680868203080F3098843
:10018000022080F31488BFF36F8F3FBCAE4608BCDB
:1001900004BC62B61847000074000020EFF3108022
:1001A00072B6704780F310887047EFF309800E4BEA
:1001B0001A6820381060F0C044464D4656465F46E7
:1001C000F0C008B572B604F09DF962B60CBC1168B7
:1001D00008681030F0C8A046A946B246BB4680F376
:1001E00009882038F0C818477400002070B505460B
:1001F0000C46164602E00FCC0FC5103E102EFAD268
:10020000082E02D303CC03C5083E042E07D301CC2D
:1002100001C5361F03E021782970641C6D1C761E11
:10022000F9D270BD0748804707480047FEE7FEE760
:10023000FEE7FEE7FEE7FEE704480549054A064BF0
:1002400070470000C9310008B1000008880E002086
:10025000881400208810002088100020FEB5054674
:1002600010460C46184373D0AE468C460020AD1A9B
:1002700001469C4167D36646002701243D46B61AD5
:100280009D4102D313463A462124654676462F0403
:10029000360C3E432D0CB61A9D4104D3150C1B049D
:1002A0002B4312041034654676462F06360A3E4329
:1002B0002D0AB61A9D4104D3150E1B022B431202C0
:1002C0000834654676462F0736093E432D09B61A8F
:1002D0009D4104D3150F1B012B431201241D6546BC
:1002E0007646AF07B6083E43AD08B61A9D4104D323
:1002F000950F9B002B439200A41C65467646EF07A2
:1003000076083E436D08B61A9D411AD392185B4198
:10031000641C16E00018764665464941B71A9D41AF
:100320000191009009D36046B11A98418E468446E7
:10033000009801990025401C6941DD0752082A43B5
:100340005B08641EE6D57246634603B0F0BDFFE766
:1003500000200146C046C0462A462346F5E7000075
:100360000FB4054910B503AA029800F053FD10BC64
:1003700008BC04B018470000800D0020F8B50E46F8
:100380000446002020622046E1688847002829D0E2
:10039000252802D06268A16820E0E1682046002795
:1003A000884705001ED028464138192802D8012761
:1003B000FF0220353246204627602946FFF7B6FE69
:1003C000002808D0012804D0F61DF608F6000836EB
:1003D000D9E7361DD7E762682846A1689047206AAA
:1003E000401CCFE7206AF8BDF7B5002575291068D5
:1003F000009914A611D0C046C046002802DA404237
:1004000011A608E0009909688A0701D50FA602E045
:10041000490704D50EA6012501E0C046C046009F4D
:100420000024243704E000F009FD30313955641C04
:100430000028F8D12B4632462146009800F091FC66
:10044000FEBD0000000000002D0000002B00000099
:100450002000000001E004C0091F0429FBD28B0723
:1004600001D50280801CC90700D0027070470029A6
:100470000BD0C30702D00270401C491E022904D3CE
:10048000830702D50280801C891EE3E70022EEE785
:100490000022DFE7002203098B422CD3030A8B42A0
:1004A00011D300239C464EE003460B433CD400226C
:1004B00043088B4231D303098B421CD3030A8B427E
:1004C00001D394463FE0C3098B4201D3CB01C01A4C
:1004D000524183098B4201D38B01C01A5241430917
:1004E0008B4201D34B01C01A524103098B4201D305
:1004F0000B01C01A5241C3088B4201D3CB00C01A72
:10050000524183088B4201D38B00C01A52414308E9
:100510008B4201D34B00C01A5241411A00D201460E
:100520005241104670475DE0CA0F00D049420310A7
:1005300000D34042534000229C4603098B422DD3F6
:10054000030A8B4212D3FC22890112BA030A8B429E
:100550000CD3890192118B4208D3890192118B42ED
:1005600004D389013AD0921100E08909C3098B4272
:1005700001D3CB01C01A524183098B4201D38B01B5
:10058000C01A524143098B4201D34B01C01A524158
:1005900003098B4201D30B01C01A5241C3088B429D
:1005A00001D3CB00C01A524183088B4201D38B0088
:1005B000C01A5241D9D243088B4201D34B00C01A12
:1005C0005241411A00D20146634652415B10104627
:1005D00001D34042002B00D54942704763465B106F
:1005E00000D3404201B50020C046C04602BD70475E
:1005F00070477047F0B50C46871A9C410D46861A25
:100600009D4103D2C01BA141D21963410D0D1F0DA5
:10061000C94EEC1BAE435CD07F057F0D0026002F3A
:1006200051D02D05AC46A943DD020123ED0A1B057F
:100630001D4320231B1B24D41746E7403818714163
:100640002F46E740CC199D402818314661410C0DDA
:1006500027D161449A4013D50023401C59415200D0
:100660000ED14008400001224B005205D34207D36F
:1006700005204007C14201D5B04900E0B0493046ED
:10068000F0BD6B00002A00D001229A181F23203CE5
:100690001B1B01D5002302E0E540281871410C0D19
:1006A000D7D0012424050919C407CD0740084908FB
:1006B000E40F28436144002CD5D00024401C614144
:1006C0009A40D0D1CDE76A05520DD9D1C90FC907DB
:1006D000D5E79C4D4E00002801D0012400E0002405
:1006E00034195F00002A01D0012600E00026BE195F
:1006F000954FAC420CD8AE420AD8B44206D0012580
:100700006D05EC42BCD010461946F0BD9942FCD0B4
:1007100000203946F0BDF0B51FB40C460F46811AD3
:100720009F412546861A9D4106D20125ED076F405F
:10073000401ABC4152187B41210D1E0D8D1BAC4649
:100740007D4D8D437ED075056D0D7CD00D05AE467B
:10075000AC431B031B0B794D52429D41202366463F
:100760009B1B14D31746F74038180026009074419D
:1007700060462F460741E41900989D4028186641BD
:1007800016D4714671189A4025D5012320E093189C
:100790002A466A415200002B00D0521C1E23203EE4
:1007A0009B1B002B61DD3541EE1728186641E8D50B
:1007B000001876415B1C9A4000D3401C4B05F3188F
:1007C0001524E34010D3002B52D071467118D30F7B
:1007D000C01802D3491C05B0F0BD0123DB079A42C3
:1007E000F9D140084000F6E701225205B21801D1C4
:1007F000002853D00123CC0ADB029943891E002A2A
:1008000008D1020C03D0020C0004103902E00246A9
:10081000002020390023550B05D112020823550B67
:1008200001D152010D23550C01D112011B1DD50C14
:1008300001D192009B1C150D01D152005B1C20259B
:10084000EE1A01E02CE022E00546F5401543984001
:10085000CA1AE10769181305C918002ABBDA032070
:1008600040070818C10FC9070FE071466118B2E7C9
:10087000F10740080843711071444A000CD001236D
:100880005B059A42A7D2C90FC9070020A3E7490513
:10089000490D26D1002001E00028F4D100219AE77B
:1008A000284D6600002801D0012100E000217118C8
:1008B0005F00002A01D0012600E00026BE19224F69
:1008C000A94210D8AE420ED8B14208D001256D051C
:1008D000E94206D01946A802414010467BE79C42F7
:1008E00001D0214677E70020394674E710B50C4661
:1008F0005C4005D50124E4076340FFF70CFF10BD01
:10090000FFF778FE10BD30B40C465C4004D50124DE
:10091000E407634030BC6DE630BCFCE670B50124F2
:10092000E40761400D465D4002D4FFF763FE70BDF1
:100930006340FFF7F0FE70BDFF0700000000F0FF0E
:100940000000F07F0000E0FF0000F87F30B50346B4
:10095000CA02400D1043164D164C0A1502D0204312
:10096000002A06DBAA1A002A12DDD040FF2A0BDC7F
:1009700030BD5205520D01D140004008AA1A07D4DB
:10098000D0404042FF2A01DD002030BD0028FCDDC0
:100990004A00002B01D0012000E0002010180122A5
:1009A0005205D042F0D8C817C043604030BD0000A7
:1009B0001E040000000000801F22030C02D10F2241
:1009C000000402D0030E03D004E00020014670476B
:1009D0000002083A030F01D10001121F830F01D159
:1009E0008000921E002801DB4000521E12055118A3
:1009F0004205C012411810467047C10FC90700D008
:100A00004042012292071143D6E701218907D3E72B
:100A1000F0B58B4C0F09254689B0BD437BD01D092D
:100A20002646AE43FAD00E465E402740F60F3E43C0
:100A3000254071D024012142FBD0FF24AD19A4042C
:100A40002D1B039501252D05DB02DB0AC9022B4373
:100A5000C90A29431E010901040F130F050121438F
:100A60001701880B820391432D098C46A90B1E4365
:100A70008A039543B30B9A0396433F09BA0B940339
:100A8000A74302962E467E430497B6464E19D719C1
:100A90000C460196544305977E43371B7646BF1B91
:100AA0003601B646BE0B361900967646BC04371999
:100AB000009C01D3641C00946400002F01D0012627
:100AC0003443029E049F754366467E430496760037
:100AD00034196E0034190094029C019E1C1966435F
:100AE000751BAE46069465464519059C05956C43F5
:100AF000594375460891691A0191049E0146514374
:100B0000A41B0491611A009C0791E10605D06109BC
:100B10000122114302E072E06EE06109089D0027A6
:100B20002C0A2D066918049D7C412A0A2D06691895
:100B3000019D6241AC0DAD026D185441079A910DB3
:100B4000920255196141029A644658435443069BE8
:100B5000059A5A43121A131B9A0E9B015B187A418D
:100B6000010B0005C3185141220A200644195A41BD
:100B70009A4200D2491C01204002814203D315232E
:100B80000226F64302E014230326F6432020C51A6A
:100B9000A9401746AF40DA400A4320460399D8409F
:100BA0000914731819055118039A3843D207514094
:100BB000AC4009D00122944006D30022401C514190
:100BC000002C01D1400840001E4A934212D301225A
:100BD00003989206904207DB0520400709181A483F
:100BE0000143C012414004E0032040070818C10F30
:100BF000C907002009B0F0BD0020F107FAE7051889
:100C00000C464C4111486D42A04115D394181A4628
:100C10005A410E48644290410ED301204A004005DB
:100C2000824209D35A00824206D35940C90F084A6A
:100C3000C90700201143DDE700200649DAE700007C
:100C40000000FF07FE070000FFFFFF7F0000E0FF3E
:100C50000000F07F0000F87F70B505464800440DA5
:100C6000124B0020002C0AD0634008D09A4206DACA
:100C70006642B24203DD12054019514170BD002C9D
:100C800008D0002B09D0C90FC907002AF6DB084A93
:100C9000114370BDC90FC90770BD28460A03104330
:100CA00002D00020034970BD284670BDFF07000038
:100CB0000000F07F0000F87F10B501469E2400027E
:100CC000CA15A307002A02D01843002A04DBA21A7F
:100CD000002A0CDDD04010BD1206120E01D14000DA
:100CE0004008A21A03D4D04040420028F3DDFF227E
:100CF00048001206904201D9002010BDC817C04319
:100D0000584010BD1F22030C02D10F2200041CD03A
:100D1000030E01D10002083A030F01D10001121F96
:100D2000830F01D18000921E002801DB4000521E7B
:100D3000D2055118021251181922904004D3491CAF
:100D4000002801D14908490008467047C10FC9076A
:100D500000D04042012292071143D3E701218907C5
:100D6000D0E7FFB504460D4681B0243000902168DD
:100D7000880604D51022E0699143216000E001203B
:100D8000A84201DD471B00E000270498A1697A19F9
:100D90001018081AA0612078C00602D42046C04668
:100DA000C046002608E003986268A168805D90470D
:100DB000206A401C761C206204988642F3DB20786F
:100DC000C0060AD52046C046C04606E06268A16853
:100DD00030209047206A401C206238467F1E002841
:100DE000F4DC07E000986268A168405D9047206AE3
:100DF000401C206228466D1E0028F3DC2046C046B9
:100E0000C0462078000602D5022005B0F0BD0120C2
:100E1000FBE70000084B70B50D467B4400F059F825
:100E20000446284600F068F8002802D00020C0439D
:100E300070BD204670BD0000832D00000146800873
:100E4000081A02091018020A1018020C1018C0081B
:100E5000820012185200891A01E0401C0A390A293E
:100E6000FBD2704710B5FF231B0644009C421DD8DF
:100E70004C009C421AD80346124A0B4307D4401A2E
:100E800002D3EFF3008010BDEFF3008010BD081A0D
:100E900006D2EFF3008001219043C907084302E026
:100EA000EFF30080904380F3008810BD0D231B04F6
:100EB0001A4204D01146002000F0C0F810BD00F026
:100EC000D5F810BD0000009001694A1C0261087845
:100ED000704700B58FB0029100210591054901933B
:100EE00079440391114604906846FFF747FA0FB022
:100EF00000BD0000E5FFFFFFC0688021084070478B
:100F000010B543485421FFF7C3FA42485421FFF774
:100F1000BFFA41485421FFF7BBFA40483C493D4BDA
:100F2000404A01603E4803603B4810605A1C0A6515
:100F3000411C1965012101653C48354A3AA17844B4
:100F400000F032FA002804D1384878440C3800F018
:100F5000CDFA38482F4A36A1784400F025FA002807
:100F600004D1344878440C3800F0C0FA32482A4A98
:100F70002FA1784400F018FA002804D12E487844B4
:100F80000C3800F0B3FA40232148DC00002122464F
:100F900000F0E4F9002804D0244878445C3800F0DC
:100FA000A5FA1C4822464023002100F0D7F900286A
:100FB00004D0204878445C3800F098FA164822465D
:100FC0001023002100F0CAF9002804D01A48784400
:100FD0005C3800F08BFA10BD0F4870B5006D440806
:100FE0000B48640000F054FA0A4800F051FA0A482D
:100FF00000F04EFA09E0206D450820466D0000F033
:1010000047FA204600F08CF82C46002CF3D170BD36
:101010002C0D0020800D0020D40D0020CC000020DD
:10102000D0000020D4000020720000001A3E000012
:1010300077000000043E0000EE3D0000C80212D51B
:101040004803400F002804D0C803C0430121884052
:101050007047EFF3008000010009032109070843EE
:1010600080F30088704700207047000010B50248E8
:1010700000F042FA10BD00000000C07F0EB50191E3
:10108000009000F0FDFB029069460120ABBE0EBD52
:1010900008B5694600900220ABBE08BD1FB56B467F
:1010A00007C369460520ABBE04B010BD1FB56C4632
:1010B0000FC469460620ABBEF6E708B56946009046
:1010C0000920ABBE08BD1CB500900A2001916946FD
:1010D000ABBE1CBD704708B5694600900C20ABBE86
:1010E00008BD754600F038FAAE460500694653461D
:1010F000C008C000854618B020B5FFF79DF860BC59
:1011000000274908B6460026C0C5C0C5C0C5C0C531
:10111000C0C5C0C5C0C5C0C5403D49008D4670476B
:1011200070B50446051F00F01DFA0068002C1AD0A7
:10113000446801E020466468002C01D0AC42F9D339
:1011400001680A18AA4204D12A6805468918016074
:1011500000E0456028684119A14205D161686960D5
:1011600021684018286070BD6C6070BDF8B50546F8
:101170000C46C8680521C904884301218905084334
:10118000E060800602D5204600F038FB7149E06837
:101190000140022903D0204600F0DAFABCE0052124
:1011A000012249030140D20391420FD1C00306D569
:1011B0006168E06A884200D80846606006E02069FD
:1011C000E06260606069FFF786FFA061A1680022AD
:1011D000EEB200290EDAE06883050BD4C943A160A2
:1011E0000921226049030843E0606068411C616096
:1011F0000670ACE0E068012149030843E06000208C
:1012000020602069002831D16069FFF756FF012571
:1012100027462437ED02002816D0A0898005800FCC
:1012200008D0E06900F0E8F90028206102D0E06809
:10123000284318E001202761E061E06803210902EA
:101240008843012189020DE0E06900F0D5F900280A
:101250002061EFD0E0682843E0608105890F03D169
:10126000FF2101310843E06020696060E2683A4F85
:101270002569D0051FD56168E06A884200D8084614
:10128000411B05D02246284600F06CFA002843D1C5
:10129000E068010204D5E56200206560A06053E0CB
:1012A000691CE1626160E169491E3843A160E06048
:1012B00030462E70F8BD100201D53A4009E0606852
:1012C000411C61600670E06838430A2EE06006D079
:1012D0000022E16A6068814203D90B4602E00122E4
:1012E000F7E70346A7895B1B7F0504D4E7699F42A4
:1012F00001DD002A1ED0814200D801460F1A0020CD
:10130000E5626560002BA06009DD2246194628468B
:1013100000F028FA002802D00020C043F8BD002FBA
:1013200008D0A069E5626560C01BA061E06810217B
:101330000843E060E068000209D56168A069E562E1
:10134000491B40186560A0610120C043F8BD3046CC
:10135000F8BD0000821000000000010070B5C468F4
:10136000A50713D0650211D4D51FF93D0AD0FF3D62
:101370006D1E07D0FF3DFF3D022D07D101462431F0
:10138000012305E0074E5D1EB54201D3012070BD6B
:101390000161C36141600F2109028C431443C460A1
:1013A000002070BDFFFFFF00F7B516460C46104643
:1013B00000F06EF82078611C61280AD0722802D0F3
:1013C000772839D102E00125002404E00225042415
:1013D00001E02D4D08240222032301270878491C2F
:1013E0002B2806D0622807D02039C87F742807D060
:1013F00008E01D431443F1E7042005433C43EDE7B7
:101400001020044300982146FFF738FE411C13D0FA
:101410000021316171600121F5604902F161706163
:10142000200704D530460222002100F017F9306D64
:10143000384330653046FEBD0020FEBDF8B50D4690
:101440000646124C206DC10704D0410804D0440860
:101450006400F7E7224610E0542000F0CDF80700C2
:1014600010D07908206D490001221143084354210E
:1014700020653846FFF70CF83A4629463046FFF714
:1014800093FFF8BD0020F8BD028000002C0D002065
:10149000FEB50446466900690F4F0190E5680020DB
:1014A0000090A80707D0204600F082F93046FFF7E9
:1014B000EFFD002801DA3846FEBD280502D5019867
:1014C000FFF72EFE4C212046FEF7E2FF206D40087C
:1014D000400020650098FEBDFFFFFFFF10B50446E9
:1014E000C046C0462046FEF73EFE10BD10B500F0D7
:1014F000ADF900F0A5F910BD10B50C461107090FA4
:10150000092904D00A290AD008290CD104E011467F
:101510000820FFF793FD06E0510606D501E05106CD
:1015200001D50120C007214610BDD10607D5010114
:101530000909CC084907000E0006044309E0410FE1
:1015400020024907000A0143200E00061D22D14156
:1015500001430846E7E7000000487047280E0020D6
:101560007047000000487047300E002070477047F9
:101570007047704738B504460A4600206946C046A1
:10158000C046002805D002462046009900F0A7F981
:10159000012038BD10B5012000F0F6F910BDF8B5F6
:1015A000C046C046054600200C461020C0460646F0
:1015B000A819A0420DD9324669460020C046C0464F
:1015C000070001D100F0E0F90098A04200D00546E4
:1015D000C419FFF7C7FFF61D07460560F008C000F5
:1015E0004619284600F074F9B44204D031463868F0
:1015F000A21B00F074F9F8BD70B50646FFF7B2FF04
:10160000056830460B30C408E400B44201D800201D
:1016100070BD68682A46002818D00168A14211D31D
:101620000B46214608318B4208D3436801194B60B1
:1016300003681B1B0B605160046001E0416851604E
:10164000001D70BD024640680028E6D121462846AC
:10165000FFF790FF0028DCD170BD0000F8B504460C
:1016600016460D464769007B800730D03846FFF7A5
:1016700024FD00282BD132461026002A25D0012A2D
:1016800002D0022A23D104E0204600F042F9451995
:101690001BE03846FFF71FFDE16831430028E16099
:1016A00004DA204600F054F80120F8BDC9030BD538
:1016B0006268E16A914200D81146A26989182269DC
:1016C000891A814200DD08462D18002D01DA02201A
:1016D000F8BDE16A6068E268814206D29103E06287
:1016E00003D5012149048A433243A669AE4211DC85
:1016F000E16A814201D90B4600E003469F19236944
:10170000FF1AAF4206DD814201D90F4600E00746CD
:101710009F4206D1202002430020A060A5622060E5
:101720000DE0AD1BE669AE1B8142A66000D90846FC
:10173000C01A281A2060581960602020824303488C
:1017400002400020E26040342072F8BDBFCFD7FFD6
:10175000C1688022114392039143C16000218160DE
:1017600001607047F7B514460E463348D56857698F
:10177000054209D03846A169FFF7A5FC002811DB16
:101780002D48C0430540E5602B4632463846009957
:10179000FFF784FC4200A1695208B21A8918002898
:1017A000A16104D02046FFF7D3FF0020C043FEBD57
:1017B00070B504460569C06A6168884200D8084669
:1017C000E1680522D2049143E160C90314D5A8421F
:1017D00009D02246411B2846FFF7C4FF002802D04B
:1017E0000020C04370BDE56200206560A060E06835
:1017F000012109048843E060002070BD10B5044653
:10180000C06820218843E060A16AA06988420ED0A8
:101810002046FFF7CDFFE06803210903884310212C
:101820000843E060A06AA0612069E062606003494B
:10183000E0680840E06010BD10000200BFBFFFFF7D
:1018400010B5002801D000F03DF810BD10B50146DC
:1018500002A000F07FF8012010BD0000534947525C
:10186000545245443A2052656469726563743A2063
:1018700063616E2774206F70656E3A20000000006F
:1018800030B5441C03E00178401C00290DD08107CD
:10189000F9D10B4BDD0104C8D11A91432940FAD08C
:1018A000001B0A0603D0C01E30BD001B30BD0A0459
:1018B00001D0801E30BD0902FCD0401E30BD0000AA
:1018C0000101010101491820ABBEFEE7260002001C
:1018D000002101604160806070471020704710B5A2
:1018E0000346406801E003464068002801D0884272
:1018F000F9D31868C3188B4206D0CB1CD808C00097
:10190000001D411A521A0146081D0A60FFF708FC23
:1019100010BD10B50146C268900703D0900607D5E8
:10192000886A0AE000F03CF801210160881E10BDC1
:101930008B694868C0180B69C01A40310B7A002BBC
:1019400002D0497A401A10BD1103FCD50028FADDF7
:10195000401E10BD70B505460C460A2000E06D1C07
:1019600000F018F8002D06D028780028F7D102E002
:10197000641C00F00FF8002C02D020780028F7D16A
:101980000A2000F007F870BD10B500F00DF8FFF761
:1019900057FF10BD08B5694608700320ABBE08BDEF
:1019A00000487047280E002010B5012805D00021FE
:1019B00003A0FFF7CFFF012010BD09A1F8E7000049
:1019C00053494752544D454D3A204F7574206F6628
:1019D0002068656170206D656D6F72790000000090
:1019E0003A2048656170206D656D6F727920636F74
:1019F000727275707465640070B504460068816821
:101A0000490724D5816810264907002905DA81682D
:101A1000890702D481683143816000F045FD0546A5
:101A200011E000F041FD401B02280CD920688068BD
:101A3000400708D5A06B3043A063E06B0121084349
:101A4000E063084670BD206880684007E9D4002044
:101A500070BDF8B50446006881688907890F0129BF
:101A60002CD10168C90702D1C168090426D5816853
:101A70000522114010250126012913D18168022277
:101A80001143816021680320086000F00DFD0746C6
:101A900010E000F009FDC01B02280BD92068806807
:101AA000C00707D0A06B2843A063E06B3043E0631E
:101AB0000120F8BD20688068C007EAD10020F8BD89
:101AC000F8B5044600200090206881688907890FD6
:101AD000012905D10168C90731D1C16809042ED493
:101AE0008168184A10261140012500291AD1816801
:101AF00029438160154814490068FEF7CBFC00E0DB
:101B0000401E00900028FBD100F0CEFC074611E0FB
:101B100000F0CAFCC01B02280CD920680068C04332
:101B2000C00707D0A06B3043A063E06B2843E0639D
:101B30000120F8BD20680068C043C007E8D100203C
:101B4000F8BD00001700008040420F007000002028
:101B500010B588B020220D496846FEF747FB0B4CB4
:101B6000283C204618300FC802F046F821462022B3
:101B700058316846FEF73AFB48340FCC02F03CF887
:101B8000034800F041FB08B010BD00000001002038
:101B90002403002010B54179002907D000210170ED
:101BA00041708170C170417102A000E005A0FEF794
:101BB000D7FB10BD63616E63656C2074696D6572DF
:101BC000200A0000416C61726D5F43616E63656C59
:101BD0003A616C61726D20646F6E2774206578695C
:101BE0007374200A0000000070B51F4E3078012881
:101BF00012D11E4C607901280ED1204622784178FE
:101C000000258078002A01D1002903D0002804D0C3
:101C1000401E0DE00028FBD170BD3B20002902D002
:101C2000491E617004E0002A17D0521E22706070B5
:101C3000A0702178002905D16078002802D1A07811
:101C400000280AD0A378627809A0FEF789FB6179A1
:101C500011A0FEF785FB357070BDA068002800D08C
:101C600080476571A560F2E700000020D8000020E1
:101C7000616C61726D2074696D652072656D61695A
:101C80006E2068683A6D6D3A7373202025643A259A
:101C9000643A25640A000000616C61726D207374FF
:101CA000617465203A202564200A000070B50D4655
:101CB0001543049C1D4310D0017042708370C470A2
:101CC00001214171054AA10051588160044883787F
:101CD0004278017803A0FEF743FB70BD344C000846
:101CE000D80000207374617274206120616C61728D
:101CF0006D202068683A6D6D3A7373202025643A30
:101D000025643A25640A00007D2110B5C900884287
:101D100005D3FEF7BFFB0C4600F096FA20460021E3
:101D2000C00001E000BF491C8842FBD810BD10B5BF
:101D3000012000F0C7FA10BD10B5082000F0C2FA6B
:101D400010BD72B6FEE7F8B5054604462035287D7D
:101D50000026012808D0012028752068816889079D
:101D6000890F012908D101E00220F8BD0168C907E7
:101D70003CD1C168090439D4A16BFF2201329143DF
:101D800002221143A163C1688907890F0091C168CC
:101D900089088900C16020688168920711438160C9
:101DA00000F082FB074612E000F07EFBC01B022819
:101DB0000DD920688068002809DAA06B02218843C9
:101DC00010210843A063002028750120F8BD206879
:101DD00080680028E8DB2068C168009A1143C16070
:101DE000A06B80088000401CA06304E0A06B202151
:101DF0000843A0630126002028753046F8BD000086
:101E0000F8B50025044620340095227D012A39D0FA
:101E10000122227503689E68760767D4384F4E68A2
:101E2000BE424DD09E6A0F78BA4016439E6201238F
:101E3000C26A1B079A421FD0012A1DD0022A1BD05A
:101E4000032A19D0042A17D0052A15D0062A13D040
:101E5000072A11D002688B6856697607760FB3425D
:101E60000AD05369DB08DB005361006842690B7AD2
:101E70005B075B0F1A4342610A68102A04D0112ADB
:101E800002D038E00220F8BD1E488368102A07D02F
:101E900001229205134383600868102803D02AE0CA
:101EA0000122D205F6E7194817490068FEF7F2FA51
:101EB0000A21484300E0401E00900028FBD11AE0B0
:101EC000986A0E78B240904398620968102901D050
:101ED000112910D10B488268102904D001218905ED
:101EE0008A43826007E00121C905F9E7816B20225E
:101EF000114381630125002020752846F8BD0000AC
:101F0000011000000027014040420F007000002037
:101F10000068006C70470000F8B5002604460028F1
:101F200005D0A06B25462035002802D007E001200F
:101F3000F8BD0020E0632875204600F0A9F8A06BEA
:101F40001022C006002870DB2068816849076CD425
:101F5000A16B1301994302231943A1638168890787
:101F6000890F012905D10168C9070FD1C16809048A
:101F70000CD4C16818239943A3681943C160206831
:101F80000169636889008908194301612068C16893
:101F90003D4B1940C160207E617E8003C903084328
:101FA000A17E4B031843A36A012B02D001231B031C
:101FB00000E000231843E36818432369022B09D08B
:101FC000002318432B79E57E5B0018430123012D84
:101FD00002D00AE00423F4E7002927D0A16B2025D2
:101FE0002943A163E16B1943E163E1690D46FF3DBC
:101FF000C23D02D0256A294308432168CD680543C4
:10200000CD600125E16A2D07A94213D0012911D025
:1020100002290FD003290DD004290BD0052909D09E
:10202000062907D0072905D010E028E0012109047E
:102030000843DAE721684D69ED08ED004D6121683C
:102040004D69A78D7F077F0F3D434D612168C968AA
:102050000E4D2940814207D10020E063A06B80082B
:102060008000401CA06308E0A06B0221884310435D
:10207000A063E06B1843E06301263046F8BDA06B17
:102080001043A063F8E700001902FEFFE7FF3F835B
:1020900010B586B0044614216846FEF7F9F90F49D9
:1020A0002068884218D10E48826941150A4382612E
:1020B00082690A400592426909020A434261406905
:1020C0000840059003200090019000200290092014
:1020D0006946C00600F002F906B010BD00240140B8
:1020E00000100240F8B504464069254620350E46EA
:1020F00008280BD02068C068C00709D0A06B202139
:102100000843A063002028750120F8BD082700E0DF
:102110000C2700F0C9F9009015E0701C13D0002EB8
:1021200005D000F0C1F90099401AB0420BD92068DF
:102130000068384207D1A06B04210843A063002047
:1021400028750320F8BD206800683842E5D0A06BF0
:10215000012149020843A0632068C16809058A0F6C
:102160000C21002A1AD1A27E002A17D10268120778
:1021700014D5826853070122002B08DB43688B4388
:102180004360A06B130298431043A06306E0A06B6A
:1021900020231843A063E06B1043E063207E0028F7
:1021A00001D1206801600020F8BD000070B5044630
:1021B000216800208968490721D425462035297DDA
:1021C00001291CD001212975617E012904D02046F6
:1021D000FFF776FC002811D1A16B0A4A1140FF22BB
:1021E00001321143A1630021E163297522681C219A
:1021F000116021688A6804231A438A6070BD022036
:1022000070BD0000FEF1FFFF70B5054604462035A5
:10221000287D012807D001262E752046FFF7ECFB0C
:10222000002802D00CE0022070BD2046FFF711FC10
:10223000002805D1A16BFF22013291433143A163F4
:102240000021297570BD000070B5044600F02CF91E
:102250000546601C02D004480078241800F024F9D8
:10226000401BA042FAD370BD6400002010B50128C5
:1022700006D0082803D10F494888401C488010BD6B
:102280000D4C14212078401CFEF704F921700B48F6
:102290000521C079FEF7FEF821788842EFD90920A0
:1022A00001221021C00600F0F8F8054800F084FC77
:1022B00010BD00001400002052000020E4000020A7
:1022C000AC03002010B504494A69024202D04861BB
:1022D000FFF7CCFF10BD000000040140F8B500235B
:1022E00003240125BAE02E469E40B44632407CD0FD
:1022F0000E79B607B60F012E01D0022E17D18668CF
:102300002746B6465E00B74000967646BE43B646C0
:10231000CF68009EB7407646374387604668674679
:10232000BE430F79FF06FF0F9F40374347600E798A
:10233000F643B6070ED0C6682746B4465E00B646DA
:10234000B7406646BE43B4468F687646B740664699
:102350003743C7600E79B607B60F022E14D1DE08D8
:10236000B60036180096366A5F07B446FE0E0F2791
:10237000B646B7406646BE43B4460F697646B74098
:1023800066463743009E376206682746B4465E00BD
:10239000B646B7406646BE430F79B446BF07BF0F87
:1023A0007646B7406646374307604E68B603B60FB9
:1023B00053D02D4FBE692E43BE61BE699F08F607FC
:1023C000F60F2A4EBF00BE190096B6680F27B44616
:1023D0009E07360FB646B7406646BE430927FF063E
:1023E000B446B84202D1002710E036E0204FB84290
:1023F00001D101270AE01F4FB84201D1022705E0B1
:102400001D4FB84201D1032700E005277646B740AB
:1024100066463743009EB760184EB6684F689643CD
:10242000FF0200D51643154FBE60FE684F68964305
:10243000BF0200D51643114FFE607E684F68964379
:10244000BF0300D516430D4F7E603E684F6896432C
:10245000FF0300D51643094A16605B1C0A6816463E
:10246000DE4000D03FE7F8BD001002400000014010
:102470000004004800080048000C00480004014027
:102480000069084000D001207047426913460B40A4
:102490001B0491430B4383617047002A01D0816183
:1024A00070478162704700000148806870470000F3
:1024B00064000020024881680278891881607047B2
:1024C0006400002010B50648016810221143016025
:1024D000032000F007F800F053F8002010BD0000C2
:1024E0000020024030B505461F4887B08269C114FC
:1024F0000A43826180690840009005A901A800F0A4
:10250000EBF80498002815D000F002F940001749B4
:10251000FDF7C0FF411E1748154A0260164AC26007
:102520004160002101618160816100F0F1FA0400E5
:1025300003D015E000F0ECF8E9E70E4800F03CFBB2
:1025400004000DD10D2000F033F8042D07D2002235
:1025500029460D2000F038F80848056000E0012405
:10256000204607B030BD00000010024040420F007E
:10257000002C0140F4030020E70300006800002065
:1025800008B50A48816901221143816181691140BE
:102590000091C26901040A43C261C0690022084077
:1025A00003210090481F00F00FF808BD0010024002
:1025B000002805DBC106C90E0120884001490860DA
:1025C0007047000000E100E010B500F0D5FE10BD3E
:1025D000F8B50F46060059D03A4D2868C007C00F1D
:1025E000B84209D22868400840003843286028686B
:1025F000C007C00FB84249D13068334C81070CD5B1
:10260000400704D5606807210902084360606068DC
:10261000F0218843B168084360603078C00726D055
:10262000706801280ED0216802280ED08907002981
:102630002CDA61688908890001436160FFF734FF83
:1026400000900DE021688903F1E78901EFE7FFF7CA
:102650002BFF0099411A1D48814201D90320F8BD82
:1026600060680C210840716889008842EFD12868B1
:10267000C007C00FB8420BD9286840084000384353
:1026800028602868C007C00FB84201D00120F8BDFB
:102690003078400706D56068072109028843F16851
:1026A0000843606000F044F86168094A0906090FB0
:1026B000515CC840074908600320FFF713FF002062
:1026C000F8BD000000200240001002408813000006
:1026D000444D00087000002010B5072202600A4A2D
:1026E00053689B079B0F43605368F024234083602B
:1026F000526807231B021A40C26004480068C007E2
:10270000C00F086010BD0000001002400020024011
:102710000448054900684968044A4905490F515C65
:10272000C84070477000002000100240544D00085F
:1027300010B5104A51680C200B4603400E48042B7C
:1027400017D0082B15D18B020C4C1B0FE45CD26AFE
:102750000A4B1207120F10339A5CC90305D50023E8
:102760001946FDF77BFD214601E02046044900F0B3
:10277000DDFD10BD0010024000127A00244D00085B
:1027800000093D00FEB5040070D02078DC4DC00784
:102790004AD068680007800F012807D068680007E2
:1027A000800F022809D16868C00306D52868800315
:1027B0003AD560680028E7D036E06168012914D076
:1027C00001208004002901D0052914D02A680121A4
:1027D00009048A432A6029688143296060680028C7
:1027E00016D0FFF761FE06460EE0286801210904B5
:1027F00008432860F2E7296801432960F5E7FFF7FD
:1028000053FE801B64286ED828688003F7D50BE040
:10281000FFF74AFE064604E0FFF746FE801B6428E9
:10282000F1D828688003F7D4207801268007002893
:102830003CDA68680007800F07D068680007800FDF
:10284000022809D16868C00306D42868800716D515
:10285000E06801280AD112E0E0680028286816D054
:1028600030432860FFF720FE074605E043E1FFF70D
:102870001BFEC01B0228C6D828688007F7D5286829
:10288000F82188432169C900084328600EE0400808
:1028900040002860FFF708FE074604E0FFF704FE4B
:1028A000C01B0228AFD828688007F7D4207800071B
:1028B00022D5E0690028686A0ED030436862FFF7CD
:1028C000F3FD074604E0FFF7EFFDC01B02289AD88E
:1028D000686A8007F7D50FE0400840006862FFF79C
:1028E000E3FD074605E09DE0FFF7DEFDC01B022883
:1028F00089D8686A8007F7D4207804274007002821
:1029000060DA00200190E869C00008D4E969B806DF
:102910000143E961E9690140012000910190794892
:102920000168C90511D40168821511430160FFF7E0
:10293000BBFD009005E0FFF7B7FD0099401A642841
:1029400070D870480068C005F5D5A06801280AD085
:10295000002801D0052810D0286A400840002862CD
:10296000286AB84301E0286A30432862A06800283A
:1029700012D0FFF799FD00900AE0286A38432862D8
:10298000F1E7FFF791FD0099411A5F48814249D86C
:10299000286A8007F5D50DE0FFF786FD009006E078
:1029A000FFF782FD0099411A574881423AD8286AB8
:1029B0008007F5D40198002804D0E96901200007B8
:1029C0008143E9612078C00635D5606901280CD0C3
:1029D000401D686B23D038436863686B4008400033
:1029E0006863FFF761FD064622E0686B3843686361
:1029F000686B30436863FFF757FD064604E0FFF756
:102A000053FD801B02285BD8686B8007F7D5686B85
:102A1000F8218843A169C900084368630BE0B84303
:102A20006863F4E74CE0FFF73FFD801B022847D8BE
:102A3000686B8007F7D4206A00285ED069680907B0
:102A4000890F022942D0012636060228286805D0BF
:102A5000B0432860FFF728FD044633E0B043286008
:102A6000FFF722FD074604E0FFF71EFDC01B02280A
:102A700026D828688001F7D4E86AE16A00090001D5
:102A80000843E862616AA06A084369683D2212044B
:102A9000914308436860286830432860FFF704FDCD
:102AA000044604E0FFF700FD001B022808D8286850
:102AB0008001F7D521E0FFF7F7FC001B022801D9C0
:102AC0000320FEBD28688001F5D416E00128F8D067
:102AD0006868E96A01221204636A02409A420AD1D4
:102AE0000907E26A090F914205D10F2189040840C4
:102AF000A16A884201D00120FEBD0020FEBD000079
:102B000000100240007000408813000070477047BA
:102B100070B5040005D025462035687F002802D016
:102B200006E0012070BD00202877204600F014F850
:102B300002206877211D206800F084FB01204034CA
:102B4000A071A877E87720706070A070E0702071A5
:102B500060716877002070BD08B5144A0168144898
:102B600091420ED18269012149040A438261806940
:102B700000220840009003211520FFF725FD1520B5
:102B800010E00C4A91420FD18269012189040A4365
:102B90008261806900220840009003211620FFF71F
:102BA00013FD1620FFF704FD08BD0000004401409E
:102BB0000010024000480140014620314A7F012AAE
:102BC00001D00120704702224A770268D3680121B0
:102BD0000B43D3600068094A904205D0084A9042EE
:102BE00002D0084A904204D182685207520F062A46
:102BF00002D002680A43026000207047002C0140A6
:102C000000040040004001400168CA6852085200B8
:102C1000CA6001680A6A084B1A4207D10A6A9B1007
:102C20001A4203D10A68520852000A60012120307A
:102C30004177002070470000111100007047F8B57F
:102C400004460068C66805690027A907002913DA49
:102C5000B10711D5F91E0161012020772068806934
:102C60008007204602D0FFF7E9FF04E000F07BF880
:102C7000204600F079F82777680716D5700714D535
:102C800004202168C0430861022020772068806901
:102C90008005800F204602D0FFF7D0FF04E000F04F
:102CA00062F8204600F060F82777280715D530072E
:102CB00013D508202168C0430861042020772068CC
:102CC000C0698007204602D0FFF7B8FF04E000F09B
:102CD0004AF8204600F048F82777E80616D5F006AF
:102CE00014D510202168C04308610820207720688F
:102CF000C0698005800F204602D0FFF79FFF04E0E7
:102D000000F031F8204600F02FF82777E80708D0C8
:102D1000F00706D001202168C0430861204600F07A
:102D200025F8280608D5300606D580202168C0433E
:102D300008612046FFF7EAFE680608D5700606D54A
:102D400040202168C0430861204600F083F8A806AF
:102D500008D5B00606D520202168C043086120466A
:102D6000FFF7D5FEF8BD70477047000070B5054607
:102D700000682B49884201D1FFF79CFB294928684C
:102D800088423FD128487D220188D20001260024B4
:102D9000914202D2491C018002E024490E70048055
:102DA000234801880A2902D2491C018002E00480DC
:102DB00000F068F81F48FF220188F532914202D2E4
:102DC000491C018007E01C490E7004801B48817873
:102DD0004900017044801A4C0A212078401CFDF7FC
:102DE00059FB217017480A21007AFDF753FB22781E
:102DF00001461548914201D9012200E0002202213A
:102E0000FFF74BFB11492868884208D11048FFF7AB
:102E1000FBFE092000221021C006FFF73EFB70BD1B
:102E2000002C01400044014054000020000000201C
:102E3000580000205600002001000020140000204F
:102E400053000020E4000020000400480048014036
:102E5000AC0300207047FEE710B504464078022816
:102E600002D0032808D101E0A17800E0E17806292A
:102E700002D0034800F032FA0020607010BD00005C
:102E8000E400002010B50A4801F040FA0848083074
:102E900001F03CFA0648103001F038FA04481830C6
:102EA00001F034FA0248203001F030FA10BD000081
:102EB0002000002010B50A48FFF7CEFF0848083070
:102EC000FFF7CAFF06481030FFF7C6FF0448183066
:102ED000FFF7C2FF0248203001F018FA10BD0000D1
:102EE000200000203EB500241B491C48009401949A
:102EF000029412C004600125856004214460C16011
:102F0000047444748474C574FF21C23184614161C6
:102F1000014618310C7105620838FEF7FDFF0028E4
:102F200001D0FEF70EFF0120000301900004029083
:102F3000009469460948FEF763FF002801D0FEF7B8
:102F400000FF694605480095FEF75AFF002801D0AA
:102F5000FEF7F7FE3EBD00000024014024030020E0
:102F600010B58EB01C220B496846FDF73FF90021D1
:102F7000684600F000FF084C064920601C221C3106
:102F800007A8FDF733F9002107A800F0F4FE606000
:102F90000EB010BDEC4C00085C000020F0B587B00E
:102FA00014216846FDF774FA3E4842690121C904BC
:102FB0000A43426142690A400592426989100A4304
:102FC000426142690A400592426949000A434261EE
:102FD000406907240840344E6403059000222146CE
:102FE0003046FFF75AFA314F092000223946C00611
:102FF000FFF753FA00222E492E48FFF74EFA0094AD
:103000000024012501950294694630460394FFF798
:1030100065F9042002266A4651C209206946C006A5
:10302000FFF75CF9082000901120000401900920AE
:1030300069460296C006FFF751F9092002946946D5
:10304000C006009701950394FFF748F9312000046A
:1030500001906946029600951648FFF73FF914481B
:10306000009002946946019503941248FFF736F9DF
:103070008F20C0006A4651C269460E48FFF72EF9FC
:10308000002203210520FFF79FFA0520FFF790FAA1
:10309000002203210620FFF797FA0620FFF788FA9F
:1030A00007B0F0BD0010024000080048F0800000AA
:1030B00006F800000004004810B50B4809490160FB
:1030C0000721416000217D228160D2000161C26040
:1030D000416180218161FFF71BFD002801D0FEF7CF
:1030E00030FE10BD004401406403002010B50B48C1
:1030F000094901600721416000218160632201616B
:10310000C260416180218161FFF702FD002801D08A
:10311000FEF717FE10BD000000480140AC03002080
:10312000FEE77047FEF714FDFFF7C4FE00F0F8F964
:1031300000F0DAFDFEF758FD00F09EFD012000F0E2
:103140000DFEEFE701F03CF80A2000F007FEF9E77A
:1031500010B5FDF723F8044601F098FA002803D0D3
:1031600001200349000748602046FDF71BF810BD09
:1031700000ED00E010B590B030216846FDF788F909
:10318000002412200F94009001200D9403900590CC
:1031900010200E94049006900C9408946846FFF753
:1031A000F1FA002801D072B6FEE707200C900D94CA
:1031B0000E9400210F940CA8FFF70AFA002801D002
:1031C00072B6FEE710B010BD7047000038B50E486B
:1031D0000021017101240D4A04701278427084703C
:1031E000417181711422C2713222027241722246EF
:1031F000E1020748FFF751F901231A46194600205A
:10320000009401F03DF838BDE400002018000020D3
:103210000004004810B50248FFF711FD10BD000082
:103220006403002010B50248FFF709FD10BD00003F
:10323000AC03002010B50248FFF701FD10BD0000EF
:10324000F4030020F0B502681E4B1F4C984201D0D9
:10325000A04203D17025AA434D682A431B4D1C4E42
:103260001C4F98420AD0A04208D01B4CA04205D067
:10327000A84203D0B04201D0B84205D1144603227F
:1032800012029443CA6822438024A2434C69224319
:1032900002608A68C2620A688262984205D0A842C7
:1032A00003D0B04201D0B84201D1096901630121C4
:1032B00041610169C90703D00169490849000161F9
:1032C000F0BD0000002C014000040040004001401F
:1032D000004401400048014000200040F8B5054688
:1032E00000780C4A800010584A0089180E18B178EE
:1032F000297009A0FDF734F8064F00241437305D1B
:103300000D2803D08000395828468847641C022CB9
:10331000F5DBF8BDA04C000843757272656E7453FE
:1033200074617465203A202564200A00F8B5040C05
:103330008BB2264682B25E430D0C1046370C5843C2
:10334000360480190021794116466E43370C360445
:103350008019794126466E438919F8BD30B4744608
:10336000641E2578641CAB4200D21D46635D5B0081
:10337000E31830BC184700008307FF22DB0E9A4099
:103380008907090E9940002808DB830809489B003B
:103390001B18186890430843186070470007000F17
:1033A0000838830804489B001B18D86990430843D9
:1033B000D861704700E400E000ED00E0F8B52B486C
:1033C0004078FDF7CBFC29493C31C96A01F0AEFADF
:1033D000FDF772FC264C60606068002800DA40420D
:1033E000052803DAE0686168401800E00020E0602A
:1033F000E068642801DD6420E060E1686320C04388
:10340000814200DAE0606068A168401AFDF7F5FAD1
:103410000022D243FDF720FC07460091E068FDF74B
:10342000ECFA144A144BFDF7F3FA05460E466068B1
:10343000FDF7E3FA0122FDF70FFC2A463346FDF7BC
:1034400055FA3A46009BFDF751FAFDF77FFA2061E5
:10345000642801DD642002E0002801DA00202061F8
:103460000249207CC8716068A060F8BDE4000020BB
:10347000000000209A9999999999B93F70B5064D25
:10348000044628790521401CC0B2FDF703F8034823
:103490002971405C607070BDE400002018000020BD
:1034A0008178012906D1C2780549002A03D000227B
:1034B000C2700A7270470122C2706420087270479D
:1034C000E400002010B5064901208870022108465A
:1034D00000F0F0FE0021042000F0ECFE10BD000022
:1034E000E400002070B50C4CA07800280AD000251C
:1034F000A571012125722A46C9020848FEF7CDFFB1
:10350000E57170BDFFF75AFF03480C3840781B285F
:10351000F7D20120607270BDE40000200004004872
:10352000F0B58BB032200590FD484779002F23D0AD
:103530000E260025FB48805DE840C0077ED01421A0
:1035400006A8FCF7A5FF402006902C460A2044431D
:10355000F44806A99638005D07900020089009906D
:103560000920C006FEF7BAFEEE489638005D012835
:1035700009D0112807D00FE040780A21FCF78AFF14
:1035800006460F46D5E7E74840219638201842798D
:103590000920C006FEF781FF142106A8FCF778FF7A
:1035A00080200690DF4806A9963824186078079096
:1035B0000020089009900920C006FEF78FFE607871
:1035C000012801D0112805D10920A2798021C00647
:1035D000FEF763FF142106A8FCF75AFF0120000341
:1035E0000690A078079000200890099006A9CE4880
:1035F000FEF774FEA078012801D0112805D1012121
:10360000E2790903C848FEF748FF142106A8FCF731
:103610003FFF012040030690E078079000200890CB
:10362000099006A9C048FEF759FEE078012801D0AC
:10363000112807D10121227A490300E03FE0BA486E
:10364000FEF72BFF142106A8FCF722FF01208003C0
:1036500006902079079000200890099006A9B248AA
:10366000FEF73CFE2079012801D0112805D1012167
:10367000627A8903AC48FEF710FF0598FEF744FB19
:103680000924E406002240212046FEF706FF00221E
:1036900080212046FEF701FFA34C012100220903EF
:1036A0002046FEF7FAFE0121002249032046FEF7DC
:1036B000F4FE0121002289032046FEF7EEFE6D1C78
:1036C000EDB2072D00D835E700249648C05DE040F4
:1036D000C0077DD020460830C5B2142106A8FCF7EB
:1036E000D7FE402006908F4E0A204543963E705DDF
:1036F0000790002008900990092006A9C006FEF74F
:10370000EDFD705D012801D0112806D1A81942797C
:1037100009204021C006FEF7C0FE142106A8FCF7D0
:10372000B7FE8020AD190690687800260790092022
:10373000089606A90996C006FEF7D0FD687801280C
:1037400001D0112805D10920AA798021C006FEF7F1
:10375000A4FE142106A8FCF79BFE0120000306909E
:10376000A8780790089606A909966F48FEF7B6FD57
:10377000A878012801D0112805D10121EA7909038F
:103780006948FEF78AFE142106A8FCF781FE012095
:1037900040030690E8780790089606A909966248C3
:1037A000FEF79CFDE878012801D0112805D1012100
:1037B0002A7A49035C48FEF770FE142106A8FCF73C
:1037C00067FE0120800306902879089606A900E08C
:1037D00031E00996544E07903046FEF77FFD287978
:1037E000012801D0112805D101216A7A89033046C8
:1037F000FEF753FE0598FEF787FA0925ED0600222D
:1038000040212846FEF749FE002280212846FEF787
:1038100044FE0121002209033046FEF73EFE01214D
:10382000002249033046FEF738FE012100228903B9
:103830003046FEF732FE641CE4B2062C00D844E7A2
:1038400014216846FCF724FE402000240090092043
:103850000194029469460394C006FEF73FFD1421CB
:103860006846FCF715FE802000900127092002948D
:10387000694601970394C006FEF730FD0920012236
:103880008021C006FEF709FE14216846FCF700FE01
:103890003D03019402946946234800950394FEF782
:1038A0001DFD14216846FCF7F3FD6E000294694685
:1038B0001D48019700960394FEF710FD0022314643
:1038C0001948FEF7EAFD14216846FCF7E1FDAF0058
:1038D000019402946946144800970394FEF7FEFC95
:1038E0000598FEF711FA092000224021C006FEF7D4
:1038F000D4FD092000228021C006FEF7CEFD002263
:1039000029460948FEF7C9FD002231460648FEF760
:10391000C4FD002239460448FEF7BFFD0BB0F0BDE0
:10392000E4000020224C00080004004870B5054C5B
:1039300000250122A571D1020348FEF7AEFDE57115
:10394000257270BDE400002000040048F8B504466C
:103950000123022000901A461946184600F090FCF8
:10396000032600220A2311460B480096FEF79EF913
:103970000A4D0B482E71C07860700020A070E07076
:103980000120A871C10200220648FEF786FD6420CE
:10399000E8713C202872F8BDD8000020E400002027
:1039A000180000200004004808B501200022009003
:1039B0000A2311460148FEF779F908BDD800002016
:1039C00038B50E4D0024AC71AC70EC7001226C72F5
:1039D000D1020B48FEF761FD0120EC712C72034609
:1039E000024601460090002000F04AFC00220A2313
:1039F000114604480094FEF759F938BDE400002050
:103A000000040048D8000020F8B50125064602232E
:103A10002A4629462846009500F032FC074C084803
:103A20002571407870700122A571D1020548FEF71A
:103A300034FD0020E07150202072F8BDE400002029
:103A40001800002000040048F8B5174C01216278E6
:103A5000C902164800250126192A0DD0A671012297
:103A6000FEF71BFD6178502037290ED007DC19299D
:103A70000AD02D290BD108E0A5710022F0E75529C5
:103A80000DD05F2903D10CE064202072E571012381
:103A9000022219461846009600F0F2FBF8BD3C20C1
:103AA000F3E72820F1E70000E400002000040048CC
:103AB000F8B5134C0126607A012815D00025A571B0
:103AC000A5700122E570D1020E48FEF7E6FCE57113
:103AD00025720D48FEF75EF801231A4619460020AC
:103AE000009600F0CDFBF8BD042020700221A670E6
:103AF000084600F0DFFB0021042000F0DBFBF8BDEE
:103B0000E400002000040048D800002010B502485E
:103B1000FEF740F810BD0000D800002010B50121CC
:103B2000002000F0C7FB0248FEF734F810BD00008B
:103B3000D800002038B50B4C00250122A571D10218
:103B40000948FEF7AAFC0120E571257203460246EA
:103B500001460090002000F093FB0448FEF71AF89D
:103B600038BD0000E400002000040048D800002018
:103B700038B5094C00250122A571D1020748FEF78E
:103B80008CFC0120E5712572034602460146009037
:103B9000002000F075FB38BDE40000200004004860
:103BA00010B58A68002A02DCFDF7E0FA10BD521E4B
:103BB0008A604A68C0B2531C4B60107010BD000090
:103BC000014610B501200B4A0B00FFF7C7FB0504A7
:103BD00007090B0D11000121890206E0402104E0D4
:103BE000202102E0102100E008211046FEF748FCE9
:103BF00010BD0000000400480FB410B51848FEF7CF
:103C0000D5FA0A211648FEF76DFA1548FEF780F935
:103C100081B20020134A02E0632800DB63208300A6
:103C2000D3588B4202D9401C6428F5DBFDF78EF88F
:103C30006A46517A8A0002A951186A464860507A49
:103C40000A21401CC0B2FCF725FC6A4651720020D4
:103C5000401C0A28FCDB10BC08BC04B0184700005C
:103C600024030020FC49000810B500210148FFF79B
:103C700035FB10BDE4000020F8B51748002441785A
:103C8000012928D1002105464835144E09274170E5
:103C9000FF06600040194078022818D12300FFF782
:103CA0005DFB0504080B0E1116000121C903304607
:103CB0000BE02021384608E00121C90304E001217E
:103CC000890301E0012149030548FEF7DEFB641C7E
:103CD000E4B2052CDDD3F8BD00000020000400484C
:103CE000000800487047000010B50948007803003C
:103CF000FFF734FB05060604070A060000F02EFC59
:103D000010BD00F071F810BDFFF7ECFB10BD000016
:103D1000E4000020FEF7D6FBFFF72CFAFFF73EF990
:103D2000FFF7E0F8FFF7C8F9FFF7E0F90648FEF7FC
:103D300043FFFFF74BFA0548FEF705F8FFF710F9C8
:103D400000F014F8FEE700006403002024030020C4
:103D500001460020842900D0C81C704710B50028F7
:103D600000D1012000F082FB002010BD10B500F052
:103D700095FB002010BD7FB50D4604464169082023
:103D8000205E002911D0A16900290ED0FFF7E0FFC5
:103D90006B46A269616907C32B4622692168606886
:103DA00000F051FC039004B070BDFFF7D1FF03A9F0
:103DB00001910090208A2B4682B22168606800F051
:103DC00019FC012801D00020EDE70398EBE7000083
:103DD00010B50449012088710221032000F06AFA1D
:103DE00010BD0000E400002008B50F480F4BC26A68
:103DF0000C3881799A4212DB01290FD1002181719F
:103E0000C17101720220009007480B460322183846
:103E1000FDF74CFF0021032000F04CFA08BD0129FA
:103E2000FCD1FFF7CBFA08BDF000002000003442BF
:103E3000F8B5134C0F46666905462068001D00F072
:103E40007DFA681C07D1002F05D021680D48091D97
:103E500000F0B8FAF8BD2068751945602168B542D0
:103E600004D2A068091D00F095FAF8BD6068091D2C
:103E700000F090FA206B8542F7D22563F8BD000070
:103E80007400002018050020F8B5054600F0A6FAD9
:103E9000294C2069401C20612068284F002803D04D
:103EA000E069002827D02CE025602069012828D16E
:103EB000002614207043C01900F05EFA761C072E0D
:103EC000F7D31E488C3000F057FA1C48A03000F0A1
:103ED00053FA1A48B43000F04FFA1848C83000F0CE
:103EE0004BFA1648DC3000F047FA14488C3060601A
:103EF0001430A06005E02068E96AC06A884200D8F2
:103F00002560E06A401CE062E86AA169884200D945
:103F1000A06114214843C019291D00F053FA00F094
:103F200069FAE069002806D02068E96AC06A884218
:103F300001D200F08FFAF8BD740000203C0400208C
:103F400010B504464030407C002805D0012806D03A
:103F5000022807D072B6FEE7206B00F059FA20461F
:103F600000F056FA10BD000001210E48C9024207B8
:103F700005D0C01DC0080B4AC000821A891A0A4A1F
:103F80000023411809C20839C908C900183A11604C
:103F90004B600B600B1A0AC093600120C00753608E
:103FA000D06070472C050020C00000200F4E104C40
:103FB0003746C83F11E000F011FAF068C568281DC7
:103FC00000F0BCF92069401E2061E068401EE060FE
:103FD00000F010FA2846FFF7B3FFE0680028EAD1A6
:103FE00038680128F9D900F035FAF6E70405002011
:103FF00074000020FFB581B00C9C9000236B001F63
:104000001818C6080A9DF600700701D072B6FEE7C0
:1040100023180A5C20331A750A5C002A02D0401C5F
:104020001028F5D32046403000270090C770072D98
:1040300000D30625E562A764201D656400F0A7F99A
:104040002046183000F0A3F924610720401B646269
:10405000A061E764009807743046049A019900F063
:104060009FF820600B98002800D0046005B0F0BDD8
:1040700030B5114900E011460A688242FBD34B6813
:104080005C18844203D140681818486008464368A9
:104090001C18944209D1084C103C2468A24209D053
:1040A00052689A1842600A6812680260814200D021
:1040B000086030BD0460F9E7C00000200648416890
:1040C0000968002905D04168C968C9684968016361
:1040D00070470021C943FAE77400002003480068D4
:1040E000401C72B600D0FEE7FEE70000C8000020CA
:1040F000F8B50546002700F0FDF9284E3068002885
:1041000001D1FFF731FFF06805423FD1002D3DD0CE
:104110000835680708D06807400F0821081A4519B4
:10412000680701D072B6FEE7002D2FD07068854277
:104130002CD81A48103001460C6801E020460C4685
:104140006168A94202D221680029F7D131688C4206
:104150001CD007682168016060680837411B10297E
:1041600008D96019420701D072B6FEE74160656068
:10417000FFF77EFF61687068401A7060B268904215
:1041800000D2B060F0680143002003C400F0DCFA04
:10419000780701D072B6FEE73846F8BDB0000020BF
:1041A00010B50124031F24061C601B1F1960191F72
:1041B000024B0B60143940380A6010BDDD40000826
:1041C000F8B52C4C0025207A002831D02A4E022741
:1041D00030780C281DD27D200001FEF735F8207ABA
:1041E000002825D030780C2813D2E079002802D09E
:1041F0000120607100E067716572A570E570A571BE
:10420000E571257205211B48FFF768F8207A002820
:104210000ED00126F60231461848FEF731F9002883
:1042200006D109200421C006FEF72AF9002812D081
:10423000607903280ED10121C9021048FEF720F948
:10424000002807D109200421C006FEF719F901282A
:1042500000D16571F8BDA571012231460748FEF70E
:104260001CF9E571257205210248FFF737F86771DF
:10427000F8BD0000E4000020140000200004004805
:10428000F8B50D4601461E4617460020069C00F074
:1042900011F82946012000F00DF83946022000F0FF
:1042A00009F83146032000F005F82146042000F00B
:1042B00001F8F8BD10B542001148012413185970D7
:1042C000825CE4030F481300FFF748F80504080D6B
:1042D000101419000A4621460B480EE00A46202118
:1042E0000920C00609E00A46214606E00A460121E7
:1042F000890302E00A4601214903FEF7CEF810BD0A
:1043000048000020000800480004004810B504469A
:104310000078FFF755FC002804D06068642806D3B5
:10432000032007E0012060706068401C04E014284E
:1043300001D3022060700020606010BD4368826875
:1043400001699A60836842685A604A68824201D172
:1043500082684A60002202610868401E086008689E
:1043600070470000034B036018465430086060201B
:104370001060704750010020014608310022416062
:10438000D243C16082600161002101607047002159
:104390000161704730B50B685A1C02D002460832E2
:1043A00002E0026904E02246546825689D42FAD979
:1043B00053684B6099608A60516008610168491CCC
:1043C000016030BD42684A6093688B6093685960B1
:1043D000916008610168491C0160704772B6044829
:1043E0000168491C0160BFF34F8FBFF36F8F7047A7
:1043F000C800002005490868002804D0401E086055
:1044000000D162B6704772B6FEE70000C800002017
:1044100070B500281AD004460D4D083C6068E96864
:10442000084201D172B6FEE72268002A01D072B6B6
:10443000FEE78843606000F05DF8606869684018D6
:1044400068602046FFF714FE00F07EF970BD0000A2
:10445000B00000200120044900074860BFF34F8FDF
:10446000BFF36F8F7047000000ED00E010B5020051
:104470000FD00948806B002801D072B6FEE700F02B
:1044800039F800211046FFF7D3FC00F05DF9002851
:1044900001D1FFF7DFFF10BD7400002010B586B01A
:1044A0000024039405AA04A903A80494FFF75AFF63
:1044B00004990398009401910290002309A10B48EC
:1044C000059A00F0C0F80A490028486308D072B67F
:1044D0000020C04308630120C8614C6100F062F80D
:1044E00006B010BD49444C4500000000AD3F000837
:1044F000740000200248816B491C816370470000F2
:104500007400002010B51348816B002902D00121EE
:10451000416210BD0021416281690F4A02E0002919
:1045200015D0491E14234B43D358002BF7D0142326
:104530004B439A18536814465B6808345360A3428F
:1045400001D15B685360DA680260816110BD72B6A8
:10455000FEE70000740000203C04002070B50F4C02
:10456000A07925463C35012817D1FEF727FF607852
:10457000C01CFCF7F3FBE96A00F0ACF90DD86078D9
:10458000C01EFCF7E3FBE96A00F07AF905D80121C7
:104590000022C9020248FDF780FF70BDE400002040
:1045A0000004004870B50F48016AFF22120411434D
:1045B0000162016A1202114301620B4C0025256160
:1045C000A5610A487D21C9000068FBF763FF401E12
:1045D00060610720206106480560FBF7CBFD0020E5
:1045E00070BD000000ED00E000E000E07000002081
:1045F000C8000020FFB585B0164690000F9FFFF75A
:1046000077FD05001CD05420FFF772FD040014D084
:1046100000205121256308550E99009103900197C0
:1046200002943246089B06990598FFF7E3FC204662
:10463000FFF72AFC012009B0F0BD2846FFF7E8FE8D
:104640000020C043F7E7F0B585B007460B9D0C9CF2
:104650000A98002D15D0002C15D05426256302256C
:1046600051263555002504AE00900196039502941D
:104670003846FFF7BFFC2046FFF706FC049805B05C
:10468000F0BD72B6FEE772B6FEE70000F8B52C4C3E
:104690000027A06B002808D0206A401C2062606AB6
:1046A000002800D001273846F8BD6669761C66618F
:1046B0000ED160680068002801D072B6FEE760681D
:1046C000A1686160A060A06A401CA062FFF7F6FCD0
:1046D000206B86420AD360680068002810D06068AA
:1046E000C068C568686886420DD2206320681421BE
:1046F000C06A4843134908580128D0D90127CEE79A
:104700000020C043F1E7281DFFF718FEA86A002823
:1047100003D028461830FFF711FEE86AA1698842E5
:1047200000D9A0611421484306494018291DFFF70C
:1047300049FEE86A2168C96A8842CCD30127CAE7E2
:10474000740000203C040020F8B5284C0025A06B24
:104750002E46002808D0FFF741FEA06B401EA06344
:10476000A06B002802D03DE072B6FEE72169204F21
:1047700000291DD136E0F868C56828461830FFF7D3
:10478000DDFD281DFFF7DAFDE86AA169884200D93E
:10479000A061142148431649B4394018291DFFF778
:1047A00011FEE86A2168C96A884201D3012060626B
:1047B00038680028DFD1002D01D0FFF77FFC256A83
:1047C000002D09D00127FFF761FF002800D06762A4
:1047D0006D1EF8D100202062606A002802D00126F8
:1047E000FFF738FEFFF706FE3046F8BD74000020E4
:1047F000F004002070B501250400ED074C4020D4E2
:10480000441A01D2001B0919C60D4B00F2B2FF2A4F
:1048100029D01B0E2CD000020C02D31A2C43DC40F2
:104820002843051910D2280A02D3401C6D0611D066
:10483000761EF6058019FF2A00DA70BDC00DC0058E
:1048400070BD694000F078F801200543C541521C55
:10485000761CE8E764089C40C90161408900E7D103
:104860000124A043E4E71B0E440200D0034870BDBE
:10487000002AFCD1C00FC00770BD00BF0000C07F80
:1048800001230200DB050A430DD4DA4203D49A4225
:1048900007D488427047D84214D4D94212D48842EF
:1048A000704780427047DA4203D59A42F9D5814277
:1048B00070475B004200DA4204D24A00DA4201D279
:1048C0008142704710B5024AFCF7CCFA10BD00BF18
:1048D0000900160401230A00DB0502430DD4DA4265
:1048E00003D49A4207D481427047D94214D4D842A3
:1048F00012D48142704789427047DA4203D59A4206
:10490000F9D5884270475B004A00DA4204D242007F
:10491000DA4201D2884270474840414010B5024A0D
:104920004840FCF79FFA10BD0900160470B5012538
:104930000400ED074C4022D4441A02D26C40001B04
:104940000919C60D4B00F2B2FF2A4BD01B0E50D0F6
:1049500000020C02D31A2C43DC40A843051B05D5EA
:10496000AD0019D36D08761E521E37D0F605280A01
:1049700001D2801970BD70416D0603D070BD6940D1
:10498000FFF73EFF9C4009026140490001D0401EF4
:1049900070BD0124A04370BD6D081DD001202B0CFB
:1049A00001D12D0410302B0E01D12D0208302B0F18
:1049B00001D12D01001DAB0F01D1AD00801CEB0F0B
:1049C00001D16D00401C6D00361A121A680AF505F7
:1049D0004019012A02DB70BD002070BDC036300ACC
:1049E000C00770BD1B0E440201D1FF2B00D102484D
:1049F00070BD002AF0D070BD0000C07FF90A000031
:104A0000CC0A00009E0A00006F0A0000410A000064
:104A1000110A0000E2090000B2090000820900004A
:104A20005209000021090000F1080000C10800003F
:104A30009108000061080000310800000108000032
:104A4000D2070000A307000074070000460700001B
:104A500018070000EB060000BE06000092060000EA
:104A6000660600003B06000011060000E805000095
:104A7000BF050000970500006F0500004905000014
:104A800023050000FE040000D9040000B604000065
:104A90009304000071040000500400003004000082
:104AA00010040000F1030000D3030000B60300006F
:104AB0009A0300007E030000630300004903000026
:104AC0002F03000017030000FF020000E7020000B0
:104AD000D1020000BB020000A5020000910200000C
:104AE0007C0200006902000056020000440200003F
:104AF000320200002102000010020000000200004B
:104B0000F0010000E1010000D3010000C401000039
:104B1000B7010000A90100009C0100009001000005
:104B200084010000780100006D01000062010000B6
:104B3000570100004D010000430100003901000051
:104B400030010000270100001E01000016010000D6
:104B50000E01000006010000FE000000F70000004A
:104B6000F0000000E9000000E2000000DC000000AE
:104B7000D5000000CF000000C9000000C400000004
:104B8000BE000000B9000000B400000001010000F8
:104B90000001000000000100010000010000000011
:104BA00001000001000100000000010000000101FF
:104BB00000000000010100000000010000000001F1
:104BC00001000000010000000001000001000100E0
:104BD00000000001000100000100000001000100D0
:104BE00000000001000000010100000000010000C1
:104BF00000000101000000010000000001000100B0
:104C0000000100000100000100000000010000019F
:104C10000001000000000100000001010000000090
:104C200001003F065B4F666D7D077F6F000000004F
:104C300079000000E53C0008693C0008D13D00080F
:104C4000C53400080C0001020B000C03020C060323
:104C50000C08040D0D010B0100020D010D0D010DDD
:104C60000D010D0D010D0D010D0D020D0D02050DB6
:104C7000010D0D020D0D020D0D010D0D030D0D03A6
:104C80000D0D03070D010D0D030D0D010D0D040D8F
:104C90000D04040D040D0D04090D010D0D0100009E
:104CA000444C0008564C0008684C00087A4C000838
:104CB0008C4C0008C13900081D3B00087D340008F9
:104CC000493A0008A1340008713B0008093A00087D
:104CD000353B00084D390008B13A00082D3900086D
:104CE000A93900080D3B000800000000684D0008CD
:104CF00025310008000000000000000060000000F6
:104D00000000000000000000744D0008453100085C
:104D1000FDFF000000000000600000000000000037
:104D20000000000002030405060708090A0B0C0D29
:104D30000E0F10100102030405060708090A0B0CE8
:104D40000D0E0F100000000000000000010203041F
:104D50000607080900000000010203043A74740009
:104D60003A7474003A74740064656661756C7454C6
:104D700061736B004B65795363616E009C4D000855
:104D800000000020D8000000F4000008744E000865
:104D9000D8000020B013000010010008000000003F
:104DA0000000000000000000000000000000000003
:104DB00000000000192D37555F00000000000600BC
:104DC00000000000010001010000000002000602D6
:104DD00000000000030003030000000004000404BE
:104DE00000000000000101010201030104010000B4
:104DF00000000000000000000000000000000000B3
:104E000001000000040000000000000000127A0011
:104E10000000000000000000000000000000000092
:104E20000000000000000000000000000000000082
:104E30000000000000000000000000000000000072
:104E40000000000000000000000000000000000062
:104E50000000000000000000000000000000000052
:104E600000000000AAAAAAAA00000000000000009A
:044E7000000000003E
:04000005080000B13E
:00000001FF
