:020000040800F2
:100000006008002055010008BD1C00082F1A0008D8
:1000100000000000000000000000000000000000E0
:10002000000000000000000000000000C11C0008EB
:100030000000000000000000BF1C0008C31C0008F6
:100040006701000800000000670100086701000860
:1000500067010008EF080008F908000867010008B8
:100060000000000067010008670100086701000840
:1000700067010008951D00086701000800000000E6
:100080006701000800000000000000006701000890
:1000900000000000751D0008851D000867010008AC
:1000A0000000000067010008000000006701000870
:1000B00000F002F800F03EF80CA030C80838241810
:1000C0002D18A246671EAB4654465D46AC4201D190
:1000D00000F030F87E460F3E0FCCB6460126334284
:1000E00000D0FB1AA246AB4633431847C82C000089
:1000F000E82C0000103A02D378C878C1FAD8520729
:1001000001D330C830C101D504680C6070470000CD
:100110000023002400250026103A01D378C1FBD823
:10012000520700D330C100D50B6070471FB51FBD0B
:1001300010B510BD00F081FA1146FFF7F7FF02F08D
:1001400049FB00F099FA03B4FFF7F2FF03BC00F09B
:100150009FFA00000748804707480047FEE7FEE790
:10016000FEE7FEE7FEE7FEE704480549054A064BC1
:1001700070470000191D0008B1000008600200204F
:10018000600800206004002060040020FEB50546E1
:1001900010460C46184373D0AE468C460020AD1A6C
:1001A00001469C4167D36646002701243D46B61AA6
:1001B0009D4102D313463A462124654676462F04D4
:1001C000360C3E432D0CB61A9D4104D3150C1B046E
:1001D0002B4312041034654676462F06360A3E43FA
:1001E0002D0AB61A9D4104D3150E1B022B43120291
:1001F0000834654676462F0736093E432D09B61A60
:100200009D4104D3150F1B012B431201241D65468C
:100210007646AF07B6083E43AD08B61A9D4104D3F3
:10022000950F9B002B439200A41C65467646EF0772
:1002300076083E436D08B61A9D411AD392185B4169
:10024000641C16E00018764665464941B71A9D4180
:100250000191009009D36046B11A98418E468446B8
:10026000009801990025401C6941DD0752082A4386
:100270005B08641EE6D57246634603B0F0BDFFE737
:1002800000200146C046C0462A462346F5E701E065
:1002900004C0091F0429FBD28B0701D50280801CF2
:1002A000C90700D00270704700290BD0C30702D0E5
:1002B0000270401C491E022904D3830702D5028024
:1002C000801C891EE3E70022EEE70022DFE7002220
:1002D00003098B422CD3030A8B4211D300239C4683
:1002E0004EE003460B433CD4002243088B4231D3FB
:1002F00003098B421CD3030A8B4201D394463FE08F
:10030000C3098B4201D3CB01C01A524183098B42EE
:1003100001D38B01C01A524143098B4201D34B01D7
:10032000C01A524103098B4201D30B01C01A52413A
:10033000C3088B4201D3CB00C01A524183088B42C1
:1003400001D38B00C01A524143088B4201D34B00AA
:10035000C01A5241411A00D201465241104670471C
:100360005DE0CA0F00D04942031000D34042534021
:1003700000229C4603098B422DD3030A8B4212D3E1
:10038000FC22890112BA030A8B420CD38901921113
:100390008B4208D3890192118B4204D389013AD050
:1003A000921100E08909C3098B4201D3CB01C01A25
:1003B000524183098B4201D38B01C01A5241430938
:1003C0008B4201D34B01C01A524103098B4201D326
:1003D0000B01C01A5241C3088B4201D3CB00C01A93
:1003E000524183088B4201D38B00C01A5241D9D2AB
:1003F00043088B4201D34B00C01A5241411A00D22C
:100400000146634652415B10104601D34042002B27
:1004100000D54942704763465B1000D3404201B5A6
:100420000020C046C04602BD7047704770470000BC
:10043000F0B5FF252D04C609C209FF2704462E404A
:100440000137CB093E4348402A402B400746002A4B
:100450006BD0002B69D0AA4267D0AB4265D0002890
:1004600000DA32460125ED0529432C43090220021A
:10047000090AD21A4B0C7F24E31A434C000A7C442D
:10048000E35C7D242404121914145B00A218884232
:1004900001D3521C00E0400049420C465C43241149
:1004A0005C43DB016415E318040A5C43C502200DBC
:1004B0000C4644436419250A5D432303EC0C0D46A6
:1004C000654300030019EB184C42A34201D35B18AB
:1004D000401CD4052018002B07D05B00C91804D39A
:1004E000401C002901D1400840003F2189048A4274
:1004F00009D3002A08DC1106090F04D0032149079B
:100500004018C00FC007F0BD012241001206891833
:100510007F2252069142F6D205214907C84201D5F1
:100520009010F0BDFF20C005F0BD002F00DA32466C
:100530001648AA4207D2AB4205D21902090E17D0BB
:10054000F80FC007F0BDFF2563002D06AB42F9D8B8
:100550004900A942F6D8AB4201D1A942F2D0A94242
:1005600001D1002101E061004908D0050843F0BD38
:100570001102090EFBD0FF200243D005F0BD0A4650
:100580000146104654E70000F22800000000C07F3A
:1005900010B501469E240002CA15A307002A02D006
:1005A0001843002A04DBA21A002A0CDDD04010BD3B
:1005B0001206120E01D140004008A21A03D4D04006
:1005C00040420028F3DDFF2248001206904201D984
:1005D000002010BDC817C043584010BD1F22030C97
:1005E00002D10F2200041CD0030E01D10002083AF0
:1005F000030F01D10001121F830F01D18000921E51
:10060000002801DB4000521ED20551180212511879
:100610001922904004D3491C002801D149084900FF
:1006200008467047C10FC90700D040420122920717
:100630001143D3E701218907D0E7754600F024F87C
:10064000AE46050069465346C008C000854618B04E
:1006500020B5FFF789FD60BC00274908B646002693
:10066000C0C5C0C5C0C5C0C5C0C5C0C5C0C5C0C562
:10067000403D49008D46704710B50446C046C0460F
:100680002046FFF760FD10BD00487047FC010020C8
:1006900001491820ABBEFEE726000200704770B586
:1006A000044600688168490724D5816810264907F7
:1006B000002905DA8168890702D4816831438160A5
:1006C00000F0DAFC054611E000F0D6FC401B0228E1
:1006D0000CD920688068400708D5A06B3043A06320
:1006E000E06B01210843E063084670BD2068806824
:1006F0004007E9D4002070BDF8B504460068816861
:100700008907890F01292CD10168C90702D1C16865
:10071000090426D5816805221140102501260129EA
:1007200013D181680222114381602168032008608F
:1007300000F0A2FC074610E000F09EFCC01B02285F
:100740000BD920688068C00707D0A06B2843A0633E
:10075000E06B3043E0630120F8BD20688068C0078B
:10076000EAD10020F8BD0000F8B504460020009052
:10077000206881688907890F012905D10168C907A7
:1007800031D1C16809042ED48168184A102611405D
:10079000012500291AD1816829438160154814492F
:1007A0000068FFF794FD00E0401E00900028FBD198
:1007B00000F062FC074611E000F05EFCC01B02285E
:1007C0000CD920680068C043C00707D0A06B304335
:1007D000A063E06B2843E0630120F8BD2068006857
:1007E000C043C007E8D10020F8BD0000170000801A
:1007F00040420F008C00002010B5054801F068FF52
:1008000003481C3001F064FF024800F0DDFA10BD1F
:10081000AC000020E40000204179002905D000212F
:10082000017041708170C1704171704770B51A4E8E
:100830003078012812D1194C607901280ED1214657
:100840002278487889780025002A01D1002803D031
:10085000002904D0491E0DE00029FBD170BD3B21C9
:10086000002802D0401E607004E0002A0CD0521E06
:1008700022706170A170207800280BD16078002868
:1008800008D10806000E05D1A068002800D08047D6
:100890006571A560357070BD0000002090000020DB
:1008A00030B50D461543039C1D4309D001704270BD
:1008B0008370C47001214171024AA10051588160C6
:1008C00030BD0000842C00087D2110B5C90088428D
:1008D00005D3FFF7FCFC0C4600F096FA20460021F9
:1008E000C00001E000BF491C8842FBD810BD10B514
:1008F000012000F0CFFA10BD10B5082000F0CAFAB0
:1009000010BD72B6FEE7F8B5054604462035287DD1
:100910000026012808D001202875206881688907F1
:10092000890F012908D101E00220F8BD0168C9073B
:100930003CD1C168090439D4A16BFF220132914333
:1009400002221143A163C1688907890F0091C16820
:1009500089088900C160206881689207114381601D
:1009600000F08AFB074612E000F086FBC01B02285D
:100970000DD920688068002809DAA06B022188431D
:1009800010210843A063002028750120F8BD2068CD
:1009900080680028E8DB2068C168009A1143C160C4
:1009A000A06B80088000401CA06304E0A06B2021A5
:1009B0000843A0630126002028753046F8BD0000DA
:1009C000F8B50025044620340095227D012A39D04F
:1009D0000122227503689E68760767D4384F4E68F7
:1009E000BE424DD09E6A0F78BA4016439E620123E4
:1009F000C26A1B079A421FD0012A1DD0022A1BD0AF
:100A0000032A19D0042A17D0052A15D0062A13D094
:100A1000072A11D002688B6856697607760FB342B1
:100A20000AD05369DB08DB005361006842690B7A26
:100A30005B075B0F1A4342610A68102A04D0112A2F
:100A400002D038E00220F8BD1E488368102A07D083
:100A500001229205134383600868102803D02AE01E
:100A60000122D205F6E7194817490068FFF72FFC65
:100A70000A21484300E0401E00900028FBD11AE004
:100A8000986A0E78B240904398620968102901D0A4
:100A9000112910D10B488268102904D00121890541
:100AA0008A43826007E00121C905F9E7816B2022B2
:100AB000114381630125002020752846F8BD000000
:100AC000011000000027014040420F008C00002070
:100AD0000068006C70470000F8B500260446002846
:100AE00005D0A06B25462035002802D007E0012064
:100AF000F8BD0020E0632875204600F0A9F8A06B3F
:100B00001022C006002870DB2068816849076CD479
:100B1000A16B1301994302231943A16381688907DB
:100B2000890F012905D10168C9070FD1C1680904DE
:100B30000CD4C16818239943A3681943C160206885
:100B40000169636889008908194301612068C168E7
:100B50003D4B1940C160207E617E8003C90308437C
:100B6000A17E4B031843A36A012B02D001231B0370
:100B700000E000231843E36818432369022B09D0DF
:100B8000002318432B79E57E5B0018430123012DD8
:100B900002D00AE00423F4E7002927D0A16B202526
:100BA0002943A163E16B1943E163E1690D46FF3D10
:100BB000C23D02D0256A294308432168CD68054318
:100BC000CD600125E16A2D07A94213D0012911D07A
:100BD00002290FD003290DD004290BD0052909D0F3
:100BE000062907D0072905D010E028E001210904D3
:100BF0000843DAE721684D69ED08ED004D61216891
:100C00004D69A78D7F077F0F3D434D612168C968FE
:100C10000E4D2940814207D10020E063A06B80087F
:100C20008000401CA06308E0A06B022188431043B1
:100C3000A063E06B1843E06301263046F8BDA06B6B
:100C40001043A063F8E700001902FEFFE7FF3F83AF
:100C500010B586B0044614216846FFF736FB0F49ED
:100C60002068884218D10E48826941150A43826182
:100C700082690A400592426909020A434261406959
:100C80000840059003200090019000200290092068
:100C90006946C00600F00AF906B010BD0024014004
:100CA00000100240F8B504464069254620350E463E
:100CB00008280BD02068C068C00709D0A06B20218D
:100CC0000843A063002028750120F8BD082700E034
:100CD0000C2700F0D1F9009015E0701C13D0002E05
:100CE00005D000F0C9F90099401AB0420BD920682C
:100CF0000068384207D1A06B04210843A06300209C
:100D000028750320F8BD206800683842E5D0A06B44
:100D1000012149020843A0632068C16809058A0FC0
:100D20000C21002A1AD1A27E002A17D102681207CC
:100D300014D5826853070122002B08DB43688B43DC
:100D40004360A06B130298431043A06306E0A06BBE
:100D500020231843A063E06B1043E063207E00284B
:100D600001D1206801600020F8BD000070B5044684
:100D7000216800208968490721D425462035297D2E
:100D800001291CD001212975617E012904D020464A
:100D9000FFF7EAFC002811D1A16B0A4A1140FF229B
:100DA00001321143A1630021E163297522681C21EE
:100DB000116021688A6804231A438A6070BD02208A
:100DC00070BD0000FEF1FFFF70B5054604462035FA
:100DD000287D012807D001262E752046FFF75FFCED
:100DE000002802D00CE0022070BD2046FFF784FCF2
:100DF000002805D1A16BFF22013291433143A16349
:100E00000021297570BD000070B5044600F034F96A
:100E10000546601C02D004480078241800F02CF924
:100E2000401BA042FAD370BD8000002070B501289D
:100E300006D0082803D112494888401C488070BD5C
:100E4000104D287B0128FAD10F49104C4888401CCE
:100E5000488020780A21401CFFF739FA2170687B0E
:100E60000A21FFF734FA21788842E8D909200122C3
:100E70001021C00600F0F9F805490120087070BD86
:100E8000140000209C000020780000206A00002050
:100E90007200002010B504494A69024202D048613C
:100EA000FFF7C4FF10BD000000040140F8B50023A7
:100EB00003240125BAE02E469E40B44632407CD041
:100EC0000E79B607B60F012E01D0022E17D1866813
:100ED0002746B6465E00B74000967646BE43B64605
:100EE000CF68009EB74076463743876046686746BE
:100EF000BE430F79FF06FF0F9F40374347600E79CF
:100F0000F643B6070ED0C6682746B4465E00B6461E
:100F1000B7406646BE43B4468F687646B7406646DD
:100F20003743C7600E79B607B60F022E14D1DE081C
:100F3000B60036180096366A5F07B446FE0E0F27D5
:100F4000B646B7406646BE43B4460F697646B740DC
:100F500066463743009E376206682746B4465E0001
:100F6000B646B7406646BE430F79B446BF07BF0FCB
:100F70007646B7406646374307604E68B603B60FFD
:100F800053D02D4FBE692E43BE61BE699F08F60740
:100F9000F60F2A4EBF00BE190096B6680F27B4465A
:100FA0009E07360FB646B7406646BE430927FF0682
:100FB000B446B84202D1002710E036E0204FB842D4
:100FC00001D101270AE01F4FB84201D1022705E0F5
:100FD0001D4FB84201D1032700E005277646B740F0
:100FE00066463743009EB760184EB6684F68964312
:100FF000FF0200D51643154FBE60FE684F6896434A
:10100000BF0200D51643114FFE607E684F689643BD
:10101000BF0300D516430D4F7E603E684F68964370
:10102000FF0300D51643094A16605B1C0A68164682
:10103000DE4000D03FE7F8BD001002400000014054
:101040000004004800080048000C0048000401406B
:101050000069084000D001207047426913460B40E8
:101060001B0491430B4383617047002A01D08161C7
:101070007047816270470000014880687047000037
:1010800080000020024881680278891881607047DA
:101090008000002010B5064801681022114301604D
:1010A000032000F007F800F053F8002010BD000006
:1010B0000020024030B505461F4887B08269C11440
:1010C0000A43826180690840009005A901A800F0E8
:1010D000E7F80498002815D000F0FEF84000174902
:1010E000FFF7F5F8411E1748154A0260164AC2601C
:1010F0004160002101618160816100F0EDFA04002E
:1011000003D015E000F0E8F8E9E70E4800F038FBFE
:1011100004000DD10D2000F02FF8042D07D200227D
:1011200029460D2000F034F80848056000E001244D
:10113000204607B030BD00000010024040420F00C2
:10114000002C0140B4010020E703000084000020CF
:1011500008B5084881690122114381618169114004
:101160000091C26901040A43C261C069084000904D
:1011700008BD000000100240002805DBC106C90EB2
:1011800001208840014908607047000000E100E04C
:1011900010B500F08DFE10BDF8B50F46060059D011
:1011A0003A4D2868C007C00FB84209D228684008E5
:1011B0004000384328602868C007C00FB84249D1B2
:1011C0003068334C81070CD5400704D5606807218F
:1011D0000902084360606068F0218843B1680843F1
:1011E00060603078C00726D0706801280ED0216872
:1011F00002280ED0890700292CDA61688908890045
:1012000001436160FFF738FF00900DE0216889031A
:10121000F1E78901EFE7FFF72FFF0099411A1D4819
:10122000814201D90320F8BD60680C210840716833
:1012300089008842EFD12868C007C00FB8420BD997
:10124000286840084000384328602868C007C00F5D
:10125000B84201D00120F8BD3078400706D560685B
:10126000072109028843F1680843606000F044F8F0
:101270006168094A0906090F515CC84007490860BE
:101280000320FFF717FF0020F8BD000000200240F8
:1012900000100240881300005C2D00088C00002024
:1012A00010B5072202600A4A53689B079B0F4360F0
:1012B0005368F02423408360526807231B021A40BE
:1012C000C26004480068C007C00F086010BD00007D
:1012D00000100240002002400448054900684968A7
:1012E000044A4905490F515CC84070478C000020F2
:1012F000001002406C2D000810B5104A51680C20F7
:101300000B4603400E48042B17D0082B15D18B0237
:101310000C4C1B0FE45CD26A0A4B1207120F1033FD
:101320009A5CC90305D500231946FEF72FFF214615
:1013300001E02046044900F095FD10BD0010024078
:1013400000127A003C2D000800093D00FEB50400A3
:1013500070D02078DC4DC0074AD068680007800F45
:10136000012807D068680007800F022809D1686843
:10137000C00306D5286880033AD560680028E7D006
:1013800036E06168012914D001208004002901D0D1
:10139000052914D02A68012109048A432A60296892
:1013A000814329606068002816D0FFF765FE064675
:1013B0000EE028680121090408432860F2E7296843
:1013C00001432960F5E7FFF757FE801B64286ED8BC
:1013D00028688003F7D50BE0FFF74EFE064604E0D1
:1013E000FFF74AFE801B6428F1D828688003F7D4F1
:1013F00020780126800700283CDA68680007800F03
:1014000007D068680007800F022809D16868C00308
:1014100006D42868800716D5E06801280AD112E0B2
:10142000E0680028286816D030432860FFF724FEC3
:10143000074605E043E1FFF71FFEC01B0228C6D8A0
:1014400028688007F7D52868F82188432169C900F2
:10145000084328600EE0400840002860FFF70CFEBB
:10146000074604E0FFF708FEC01B0228AFD8286833
:101470008007F7D42078000722D5E0690028686A41
:101480000ED030436862FFF7F7FD074604E0FFF730
:10149000F3FDC01B02289AD8686A8007F7D50FE0D1
:1014A000400840006862FFF7E7FD074605E09DE061
:1014B000FFF7E2FDC01B022889D8686A8007F7D4CD
:1014C000207804274007002860DA00200190E869AE
:1014D000C00008D4E969B8060143E961E96901403F
:1014E00001200091019079480168C90511D4016873
:1014F000821511430160FFF7BFFD009005E0FFF783
:10150000BBFD0099401A642870D870480068C00577
:10151000F5D5A06801280AD0002801D0052810D0F0
:10152000286A400840002862286AB84301E0286A17
:1015300030432862A068002812D0FFF79DFD00907C
:101540000AE0286A38432862F1E7FFF795FD009921
:10155000411A5F48814249D8286A8007F5D50DE0D5
:10156000FFF78AFD009006E0FFF786FD0099411A1B
:10157000574881423AD8286A8007F5D40198002854
:1015800004D0E969012000078143E9612078C006A1
:1015900035D5606901280CD0401D686B23D03843D5
:1015A0006863686B400840006863FFF765FD0646A6
:1015B00022E0686B38436863686B30436863FFF709
:1015C0005BFD064604E0FFF757FD801B02285BD851
:1015D000686B8007F7D5686BF8218843A169C9005B
:1015E000084368630BE0B8436863F4E74CE0FFF737
:1015F00043FD801B022847D8686B8007F7D4206A18
:1016000000285ED069680907890F022942D00126A7
:1016100036060228286805D0B0432860FFF72CFD65
:10162000044633E0B0432860FFF726FD074604E098
:10163000FFF722FDC01B022826D828688001F7D4B6
:10164000E86AE16A000900010843E862616AA06A89
:10165000084369683D221204914308436860286882
:1016600030432860FFF708FD044604E0FFF704FD5F
:10167000001B022808D828688001F7D521E0FFF771
:10168000FBFC001B022801D90320FEBD2868800155
:10169000F5D416E00128F8D06868E96A012212043E
:1016A000636A02409A420AD10907E26A090F91422D
:1016B00005D10F2189040840A16A884201D0012088
:1016C000FEBD0020FEBD0000001002400070004082
:1016D000881300007047704770B5040005D0254698
:1016E0002035687F002802D006E0012070BD002070
:1016F0002877204600F014F802206877211D206822
:1017000000F050FB01204034A071A877E8772070EA
:101710006070A070E070207160716877002070BD0B
:1017200008B5144A0168144891420ED1826901211A
:1017300049040A43826180690022084000901146F2
:101740001520FFF725FD152010E00C4A91420FD11E
:101750008269012189040A4382618069002208406C
:10176000009011461620FFF713FD1620FFF704FD29
:1017700008BD000000440140001002400048014044
:10178000014620314A7F012A01D001207047022200
:101790004A770268D36801210B43D3600068084A86
:1017A000904202D0074A904204D182685207520FF9
:1017B000062A02D002680A43026000207047000037
:1017C000002C0140000400407047F8B50446006852
:1017D000C66805690027A907002913DAB10711D5E2
:1017E000F91E01610120207720688069800720466A
:1017F00002D0FFF7E9FF04E000F07BF8204600F09C
:1018000079F82777680716D5700714D50420216862
:10181000C043086102202077206880698005800F1E
:10182000204602D0FFF7D0FF04E000F062F8204627
:1018300000F060F82777280715D5300713D5082062
:101840002168C0430861042020772068C0698007B0
:10185000204602D0FFF7B8FF04E000F04AF8204627
:1018600000F048F82777E80616D5F00614D51020C2
:101870002168C0430861082020772068C06980057E
:10188000800F204602D0FFF79FFF04E000F031F800
:10189000204600F02FF82777E80708D0F00706D099
:1018A00001202168C0430861204600F025F8280681
:1018B00008D5300606D580202168C043086120463F
:1018C000FFF708FF680608D5700606D54020216896
:1018D000C0430861204600F0A9F8A80608D5B00664
:1018E00006D520202168C04308612046FFF7F3FE9B
:1018F000F8BD70477047000070B5064600683B4968
:10190000884201D1FFF7BEFB3949306888424FD188
:1019100038487D220188D20001250024914202D25C
:10192000491C018010E034490D7034490480087866
:10193000012809D148888A88904202D2401C4880F8
:1019400002E04D704C800C702D4801880A2902D2AB
:10195000491C018002E0048000F078F82948FF2249
:101960000188F532914202D2491C01800DE02649DE
:101970000D70048025488178490001704480244816
:1019800081780170448023480580234D2878012800
:101990000ED16888A988884202D2401C688007E07E
:1019A000092000221021C006FFF75FFB6C802C701D
:1019B0001A493068884218D1194DA87B401E312839
:1019C00001D23220A873174C64212078401CFEF706
:1019D0007EFC2170A97B22781348914201D9002214
:1019E00000E001220221FFF740FB70BD002C014006
:1019F000004401406C000020000000201E00002078
:101A0000700000206E000020010000201400002063
:101A1000780000207C000020720000200048014077
:101A20009C0000206B000020000400487047FEE787
:101A300010B5017A012905D100210172C17802484F
:101A400000F0F4F910BD00009C00002010B50A4819
:101A500000F03EFF08480C3000F03AFF064818300E
:101A600000F036FF0448243000F032FF02483030E6
:101A700000F02EFF10BD00002400002010B50A4821
:101A8000FFF7D6FF08480C30FFF7D2FF06481830A2
:101A9000FFF7CEFF04482430FFF7CAFF024830307A
:101AA000FFF7C6FF10BD0000240000203EB5002453
:101AB0001B491C4800940194029412C00460012543
:101AC000856004214460C160047444748474C574E6
:101AD000FF21C23184614161014618310C710562F8
:101AE0000838FEF7F9FF002801D0FEF70AFF0120B1
:101AF0000003019000040290009469460948FEF733
:101B00005FFF002801D0FEF7FCFE694605480095FE
:101B1000FEF756FF002801D0FEF7F3FE3EBD0000A1
:101B200000240140E4000020F0B587B0142168468D
:101B3000FEF7CBFB424842690121C9040A434261D6
:101B400042690A400592426989100A43426142692A
:101B50000A400592426949000A43426140690724EC
:101B60000840384E64030590002221463046FFF7B6
:101B70007CFA092000223449C006FFF776FA0022D9
:101B800032493348FFF771FA00940024012501958A
:101B90000294694630460394FFF788F90420022630
:101BA0006A4651C209206946C006FFF77FF908203E
:101BB000112700903F040920694601970296C0064C
:101BC000FFF774F9204800900920029469460195B6
:101BD0000394C006FFF76AF969461D48019700950E
:101BE0000294FFF763F9019569461948009602953A
:101BF0000394FFF75BF915480294801E0090694634
:101C0000019503941248FFF751F98F20C0006A46EE
:101C100031C269460E48FFF749F9002211460520F6
:101C2000FFF7B6FA0520FFF7A7FA002211460620B3
:101C3000FFF7AEFA0620FFF79FFA07B0F0BD0000ED
:101C40000010024000080048F080000006F8000084
:101C50000004004810B50B480949016007214160A4
:101C600000217D228160D2000161C260416180213A
:101C70008161FFF731FD002801D0FEF742FE10BD63
:101C8000004401402401002010B50B4809490160BF
:101C9000072141600021816064220161C2604161CD
:101CA00080218161FFF718FD002801D0FEF729FE91
:101CB00010BD0000004801406C010020FEE77047A5
:101CC0007047704710B590B030216846FEF7FDFAB6
:101CD000002412200F94009001200D940390059091
:101CE00010200E94049006900C9408946846FFF718
:101CF0002DFB002801D072B6FEE707200C900D9452
:101D00000E9400210F940CA8FFF746FA002801D08A
:101D100072B6FEE710B010BD7047000010B5134C4E
:101D2000207800F0B9FC60700C34207800F0B4FC2E
:101D300060700C34207800F0AFFC60700C342078B8
:101D400000F0AAFC60700C34207800F0A5FC6070F4
:101D50000748002181720122027022463C3A127823
:101D60004260C17200F0DCFB10BD000024000020C6
:101D70009C00002010B50248FFF727FD10BD0000B1
:101D80002401002010B50248FFF71FFD10BD000020
:101D90006C01002010B50248FFF717FD10BD0000D0
:101DA000B401002070B502681B4B1C4E984201D054
:101DB000B04203D17024A2434C682243184C194D01
:101DC000984208D0B04206D0174EB04203D0A0428D
:101DD00001D0A84204D103263602B243CE68324372
:101DE0008026B2434E69324302608A68C2620A6842
:101DF0008262984203D0A04201D0A84201D1096971
:101E00000163012141610169C90703D001694908E2
:101E10004900016170BD0000002C01400004004039
:101E2000004401400048014000200040F8B505464C
:101E300000780B4A800010584A0089180E18084F85
:101E4000B078002428701437305D0D2803D080004E
:101E5000395828468847641C022CF5DBF8BD000081
:101E6000F02C0008F8B5040C8BB2264682B25E4313
:101E70000D0C1046370C5843360480190021794167
:101E800016466E43370C36048019794126466E4358
:101E90008919F8BD30B47446641E2578641CAB42C1
:101EA00000D21D46635D5B00E31830BC184700009C
:101EB0008307FF22DB0E9A408907090E994000280C
:101EC00008DB830809489B001B18186890430843E7
:101ED000186070470007000F0838830804489B000B
:101EE0001B18D86990430843D861704700E400E0AC
:101EF00000ED00E070B5064D0446A87A0521401CAF
:101F0000C0B2FEF7E4F90348A972405C606070BD9E
:101F10009C00002018000020017A012906D1427A95
:101F20000549002A03D0002242728A7370470122B9
:101F300042726420887370479C00002010B50B48E3
:101F4000002101734173817301210172C173002269
:101F5000C9020748FFF789F80221084600F08CFC07
:101F60000121042000F088FC10BD00009C0000202E
:101F700000040048F0B587B032200090FE48C77AD0
:101F8000002F23D00A260025FC48805DE840C007CA
:101F90007ED0142101A8FEF798F9402001902C462C
:101FA0000A204443F54801A99638005D02900020BC
:101FB000039004900920C006FEF778FFEF4896389A
:101FC000005D01280ED011280CD014E0EA4C6068A6
:101FD0000A21FEF786F9C6B260680A21FEF781F988
:101FE000CFB2D0E7E5484021963820184279092041
:101FF000C006FFF73AF8142101A8FEF766F9802021
:102000000190DE4801A996382418607802900020DB
:10201000039004900920C006FEF748FF607801286D
:1020200001D0112805D10920A2798021C006FFF72F
:102030001CF8142101A8FEF748F9012000030190C3
:10204000A078029000200390049001A9CC48FEF7EC
:102050002DFFA078012801D0112805D10121E279B6
:102060000903C748FFF701F8142101A8FEF72DF96D
:10207000012040030190E07802900020039004903A
:1020800001A9BF48FEF712FFE078012803D000E065
:102090006CE0112805D10121227A4903B848FEF7E6
:1020A000E4FF142101A8FEF710F90120800301903C
:1020B0002079029000200390049001A9B048FEF717
:1020C000F5FE2079012801D0112805D10121627A7D
:1020D0008903AB48FEF7C9FF0098FEF7F5FB142112
:1020E00001A8FEF7F2F84020002401900920029494
:1020F000039401A90494C006FEF7D8FE142101A898
:10210000FEF7E3F88020019009200294039401A9CE
:102110000494C006FEF7CAFE142101A8FEF7D5F804
:102120000120000301900294039401A904949448AF
:10213000FEF7BCFE142101A8FEF7C7F801204003FA
:1021400001900294039401A904948D48FEF7AEFE19
:10215000142101A8FEF7B9F8012080030190029430
:10216000039401A904948648FEF7A0FE6D1CEDB20D
:10217000072D00D808E700258048C05DE840C0076B
:102180007ED028460830C4B2142101A8FEF79DF87D
:10219000402001900A204443784800269638005D8C
:1021A00002900920039601A90496C006FEF77EFE60
:1021B00072489638005D012801D0112808D16F4877
:1021C00040219638201842790920C006FEF74DFFBD
:1021D000142101A8FEF779F880200190674801A931
:1021E0009638241860780290092003960496C00659
:1021F000FEF75CFE6078012801D0112805D1092086
:10220000A2798021C006FEF730FF142101A8FEF755
:102210005CF8012000030190A0780290039601A9C8
:1022200004965748FEF742FEA078012801D01128F5
:1022300005D10121E27909035148FEF716FF142167
:1022400001A8FEF742F8012040030190E0780290D7
:10225000039601A904964A48FEF728FEE078012873
:1022600001D0112805D10121227A49034448FEF703
:10227000FCFE142101A8FEF728F80120800300E0ED
:102280005DE0019020790290039601A904963C48F4
:10229000FEF70CFE2079012801D0112805D101217B
:1022A000627A89033648FEF7E0FE0098FEF70CFBE1
:1022B000142101A8FEF709F840200924E406019042
:1022C0000296039601A904962046FEF7EFFD14211D
:1022D00001A8FDF7FAFF802001900296039601A95C
:1022E00004962046FEF7E2FD142101A8FDF7EDFF5C
:1022F00001200003224C01900296039601A9049646
:102300002046FEF7D3FD142101A8FDF7DEFF0120D2
:10231000400301900296039601A904962046FEF719
:10232000C5FD142101A8FDF7D0FF01208003019015
:102330000296039601A904962046FEF7B7FD6D1C90
:10234000EDB2062D00D817E70B48C07A00287DD1E2
:10235000142101A8FDF7B9FF4020002401900920B5
:102360000294039401A90494C006FEF79FFD142172
:1023700001A8FDF7AAFF05E09C000020762C0008CC
:102380000004004880200127039401A9049481C11E
:102390000920C0060839FEF789FD092001228021A5
:1023A000C006FEF762FE142101A8FDF78EFF3E0372
:1023B0000294039401A9354801960494FEF776FD32
:1023C000142101A8FDF781FF7500039401A92F488E
:1023D000029701950494FEF769FD002229462B48D7
:1023E000FEF743FE142101A8FDF76FFF6F00029472
:1023F000039401A9254801970494FEF757FD00981E
:10240000FEF762FA14216846FDF75FFF4020009056
:1024100009200194029469460394C006FEF746FD24
:1024200014216846FDF751FF802000900920019497
:10243000029469460394C006FEF738FD14216846ED
:10244000FDF743FF01940294694600E01CE00F4849
:1024500000960394FEF72AFD14216846FDF735FF28
:10246000019402946946094800950394FEF71EFD05
:1024700014216846FDF729FF019402946946034838
:1024800000970394FEF712FD07B0F0BD000400486A
:10249000F8B505460023022000901A461946184652
:1024A00000F0D0F9032600220A2311460A480096BC
:1024B000FEF7F6F9094C0A48A672C0786860012058
:1024C00020730246C1020748FEF7CFFD6420607307
:1024D0004620A073F8BD0000900000209C00002062
:1024E000180000200004004838B500242346224686
:1024F00021462046009400F0A5F90120002200901A
:102500000A2311460448FEF7CBF90448C17A04298E
:1025100000D0C47238BD0000900000209C00002054
:1025200038B500242346224621460120009400F0BD
:1025300089F90C4801224473847304730472447251
:10254000C473094CD1022046FEF78FFD01220221FF
:102550002046FEF78AFD092000221021C006FEF762
:1025600084FD38BD9C0000200004004838B50546B5
:102570000020022302460146009000F063F9084C57
:1025800001200849A0724978696020730246C1029F
:102590000548FEF76AFD642060733220A07338BDE1
:1025A0009C0000201800002000040048F8B500201E
:1025B000034602220146009000F044F91A4C62687A
:1025C0000121C9021948642546270126372A1DD052
:1025D00008DC192A12D02D2A0FD10122FEF745FD61
:1025E000322007E0552A19D05F2A06D10122FEF7D2
:1025F0003CFD3C20A07365732673F8BD0022FEF7F6
:1026000034FDA573677300202073F8BD0122FEF727
:102610002CFD5020A0735A206073EDE70122FEF7D5
:1026200024FDA773E7E700009C0000200004004899
:102630007047000010B50C48C17B012906D000216D
:10264000417381730948FEF7E7F810BD042101705A
:10265000012101720221084600F00EF90121042037
:1026600000F00AF910BD00009C000020900000203E
:1026700010B50248FEF7D0F810BD00009000002011
:102680007047000010B50248FEF7C6F810BD000004
:102690009000002070470000014610B501200B4A51
:1026A0000B00FFF7F7FB050407090B0D11000121D3
:1026B000890206E0402104E0202102E0102100E030
:1026C00008211046FEF7C4FC10BD000000040048BD
:1026D00070B5044600261C48FEF748FB0A211A483C
:1026E000FEF7E0FA1848FEF7F3F981B20020174A26
:1026F00002E0632800D363208300D3588B4203D9C0
:10270000401C80B26428F4D36178490009194880DC
:1027100060780A21401CC0B2FDF7D9FD6170002528
:10272000680000194088FDF785FF314600F0E2F8A7
:102730006D1C06460A2DF3DB0549FDF779FEFDF712
:1027400027FFA06170BD0000E4000020502A0008AF
:102750000000204110B500210148FFF767FB10BDC4
:102760009C000020F8B5174800244178012928D1A1
:10277000002105466035144E09274170FF066000B0
:1027800040194078022818D12300FFF783FB050485
:10279000080B0E1116000121C90330460BE0202161
:1027A000384608E00121C90304E00121890301E062
:1027B000012149030548FEF750FC641CE4B2052CD6
:1027C000DDD3F8BD000000200004004800080048E8
:1027D00070470000FEF75EFCFFF774FAFFF7A4F9FC
:1027E000FFF764F9FFF736FAFFF74EFA0A48FEF7EB
:1027F000C7FF0A48FEF7C4FF0948FEF784F8FFF751
:102800008DFAFFF7B7FBFFF739F9FFF7ABFFFEF7DC
:102810000DF8FDF7F1FFF4E7240100206C01002022
:10282000E400002010B50221032000F025F8044840
:1028300001210173642141733221817310BD0000B5
:102840009C000020F8B50D4601461E4617460020A4
:10285000069C00F011F82946012000F00DF83946D9
:10286000022000F009F83146032000F005F8214667
:10287000042000F001F8F8BD10B542001148012411
:1028800013185970825CE4030F481300FFF702FB32
:102890000504080D101419000A4621460B480EE0E5
:1028A0000A4620210920C00609E00A46214606E022
:1028B0000A460121890302E00A4601214903FEF785
:1028C000D4FB10BD60000020000800480004004850
:1028D00010B504460649007888702078FFF7DCFEC2
:1028E0006178884202D060700120207210BD000023
:1028F0000000002070B501250400ED074C4020D4F5
:10290000441A01D2001B0919C60D4B00F2B2FF2A6E
:1029100029D01B0E2CD000020C02D31A2C43DC4011
:102920002843051910D2280A02D3401C6D0611D085
:10293000761EF6058019FF2A00DA70BDC00DC005AD
:1029400070BD694000F022F801200543C541521CCA
:10295000761CE8E764089C40C90161408900E7D122
:102960000124A043E4E71B0E440200D0034870BDDD
:10297000002AFCD1C00FC00770BD00BF0000C07F9F
:1029800070B501250400ED074C4022D4441A02D250
:102990006C40001B0919C60D4B00F2B2FF2A4BD048
:1029A0001B0E50D000020C02D31A2C43DC40A8436B
:1029B000051B05D5AD0019D36D08761E521E37D004
:1029C000F605280A01D2801970BD70416D0603D04A
:1029D00070BD6940FFF794FF9C40090261404900C7
:1029E00001D0401E70BD0124A04370BD6D081DD0F4
:1029F00001202B0C01D12D0410302B0E01D12D0202
:102A000008302B0F01D12D01001DAB0F01D1AD00FE
:102A1000801CEB0F01D16D00401C6D00361A121A9C
:102A2000680AF5054019012A02DB70BD002070BD5F
:102A3000C036300AC00770BD1B0E440201D1FF2B07
:102A400000D1024870BD002AF0D070BD0000C07FE8
:102A5000F90A0000CC0A00009E0A00006F0A00007C
:102A6000410A0000110A0000E2090000B20900005A
:102A7000820900005209000021090000F10800004D
:102A8000C108000091080000610800003108000042
:102A900001080000D2070000A3070000740700002F
:102AA0004607000018070000EB060000BE06000005
:102AB00092060000660600003B06000011060000BA
:102AC000E8050000BF050000970500006F05000045
:102AD0004905000023050000FE040000D9040000A1
:102AE000B6040000930400007104000050040000CC
:102AF0003004000010040000F1030000D3030000C4
:102B0000B60300009A0300007E0300006303000088
:102B1000490300002F03000017030000FF0200001C
:102B2000E7020000D1020000BB020000A502000085
:102B3000910200007C0200006902000056020000C1
:102B400044020000320200002102000010020000D6
:102B500000020000F0010000E1010000D3010000CC
:102B6000C4010000B7010000A90100009C010000A1
:102B70009001000084010000780100006D01000058
:102B800062010000570100004D01000043010000F8
:102B90003901000030010000270100001E01000083
:102BA000160100000E01000006010000FE000000FA
:102BB000F7000000F0000000E9000000E200000063
:102BC000DC000000D5000000CF000000C9000000BC
:102BD000C4000000BE000000B9000000B400000006
:102BE00001010000000100000000010001000001DF
:102BF00000000000010000010001000000000100D1
:102C000000000101000000000101000000000100BF
:102C100000000001010000000100000000010000B0
:102C2000010001000000000100010000010000009F
:102C3000010001000000000100000001010000008F
:102C40000001000000000101000000010000000080
:102C5000010001000001000000010001000000006F
:102C6000010001000001000000000100000001015E
:102C70000000000001003F065B4F666D7D077F6F1F
:102C800079000000D12700085527000825280008F2
:102C90003D1F00080C00010C0B000C03020C060386
:102CA0000C08040D0D01010B00020D010D0D010DAD
:102CB0000D010D0D010D0D010D0D020D0D02040094
:102CC000010D0D020D0D020D00010D0D030D0D0383
:102CD0000D0D030700010D0D030D00010D0D040D79
:102CE0000D04050D040D0D040900010D0001000087
:102CF000942C0008A62C0008B82C0008CA2C000848
:102D0000DC2C00082125000881260008F51E00089B
:102D1000AD25000895260008191F00086D2500083C
:102D20008526000891240008352600083126000871
:102D3000E9240008712600080000000002030405D1
:102D4000060708090A0B0C0D0E0F101001020304F0
:102D500005060708090A0B0C0D0E0F1000000000F5
:102D6000000000000102030406070809000000003B
:102D7000010203048182838485868788898B8C8DF8
:102D80008E8F919293959697999A9C9D9FA0A2A3BE
:102D9000A5A7A8AAACAEB0B2B3B5B7B9BCBEC0C205
:102DA000C5C7C9CCCED1D4D7D9DCDFE2E6E9ECF097
:102DB000F3F7FAFED42D0008000000209000000078
:102DC000F4000008642E000890000020D0070000E6
:102DD00010010008000000000000000000000000DA
:102DE000000000000000000000000000192D375511
:102DF0005F00000000000A00000006000000000064
:102E000000000000010001010000000000000000BF
:102E1000020006020000000000000000030003039F
:102E20000000000000000000040004040000000096
:102E30000000000000000100020003000400000088
:102E4000000000000000000000000D000000000075
:102E5000000000000100000004000000000000006D
:042E600000127A00E2
:04000005080000B13E
:00000001FF
