:020000040800F2
:10000000600800205501000821170008931400081B
:1000100000000000000000000000000000000000E0
:10002000000000000000000000000000251700088C
:100030000000000000000000231700082717000838
:100040006701000800000000670100086701000860
:1000500067010008F70400080105000867010008AF
:100060000000000067010008670100086701000840
:1000700067010008E9170008670100080000000098
:100080006701000800000000000000006701000890
:1000900000000000C9170008D91700086701000810
:1000A0000000000067010008000000006701000870
:1000B00000F002F800F03EF80CA030C80838241810
:1000C0002D18A246671EAB4654465D46AC4201D190
:1000D00000F030F87E460F3E0FCCB6460126334284
:1000E00000D0FB1AA246AB4633431847B8240000A1
:1000F000D8240000103A02D378C878C1FAD8520741
:1001000001D330C830C101D504680C6070470000CD
:100110000023002400250026103A01D378C1FBD823
:10012000520700D330C100D50B6070471FB51FBD0B
:1001300010B510BD00F07BF91146FFF7F7FF02F094
:1001400017F800F093F903B4FFF7F2FF03BC00F0D7
:1001500099F900000748804707480047FEE7FEE797
:10016000FEE7FEE7FEE7FEE704480549054A064BC1
:10017000704700007D170008B100000860020020F1
:10018000600800206004002060040020FEB50546E1
:1001900010460C46184373D0AE468C460020AD1A6C
:1001A00001469C4167D36646002701243D46B61AA6
:1001B0009D4102D313463A462124654676462F04D4
:1001C000360C3E432D0CB61A9D4104D3150C1B046E
:1001D0002B4312041034654676462F06360A3E43FA
:1001E0002D0AB61A9D4104D3150E1B022B43120291
:1001F0000834654676462F0736093E432D09B61A60
:100200009D4104D3150F1B012B431201241D65468C
:100210007646AF07B6083E43AD08B61A9D4104D3F3
:10022000950F9B002B439200A41C65467646EF0772
:1002300076083E436D08B61A9D411AD392185B4169
:10024000641C16E00018764665464941B71A9D4180
:100250000191009009D36046B11A98418E468446B8
:10026000009801990025401C6941DD0752082A4386
:100270005B08641EE6D57246634603B0F0BDFFE737
:1002800000200146C046C0462A462346F5E701E065
:1002900004C0091F0429FBD28B0701D50280801CF2
:1002A000C90700D00270704700290BD0C30702D0E5
:1002B0000270401C491E022904D3830702D5028024
:1002C000801C891EE3E70022EEE70022DFE7002220
:1002D00003098B422CD3030A8B4211D300239C4683
:1002E0004EE003460B433CD4002243088B4231D3FB
:1002F00003098B421CD3030A8B4201D394463FE08F
:10030000C3098B4201D3CB01C01A524183098B42EE
:1003100001D38B01C01A524143098B4201D34B01D7
:10032000C01A524103098B4201D30B01C01A52413A
:10033000C3088B4201D3CB00C01A524183088B42C1
:1003400001D38B00C01A524143088B4201D34B00AA
:10035000C01A5241411A00D201465241104670471C
:100360005DE0CA0F00D04942031000D34042534021
:1003700000229C4603098B422DD3030A8B4212D3E1
:10038000FC22890112BA030A8B420CD38901921113
:100390008B4208D3890192118B4204D389013AD050
:1003A000921100E08909C3098B4201D3CB01C01A25
:1003B000524183098B4201D38B01C01A5241430938
:1003C0008B4201D34B01C01A524103098B4201D326
:1003D0000B01C01A5241C3088B4201D3CB00C01A93
:1003E000524183088B4201D38B00C01A5241D9D2AB
:1003F00043088B4201D34B00C01A5241411A00D22C
:100400000146634652415B10104601D34042002B27
:1004100000D54942704763465B1000D3404201B5A6
:100420000020C046C04602BD704770477047754601
:1004300000F024F8AE46050069465346C008C000E7
:10044000854618B020B5FFF78FFE60BC002749082D
:10045000B6460026C0C5C0C5C0C5C0C5C0C5C0C55C
:10046000C0C5C0C5403D49008D46704710B5044623
:10047000C046C0462046FFF766FE10BD00487047E4
:10048000FC01002001491820ABBEFEE72600020057
:1004900070474179002905D00021017041708170B9
:1004A000C17041717047000030B50D461543039C83
:1004B0001D4309D0017042708370C47001214171E5
:1004C000024AA1005158816030BD0000B4240008E8
:1004D0007D2110B5C900884205D3FFF7F8FE0C4610
:1004E00000F0E0F920460021C00001E000BF491CF7
:1004F0008842FBD810BD10B5012000F011FA10BDE4
:1005000010B5082000F00CFA10BD72B6FEE7F8B581
:10051000054604462035287D0026012808D0012004
:100520002875206881688907890F012908D101E0B1
:100530000220F8BD0168C9073CD1C168090439D45B
:10054000A16BFF220132914302221143A163C168D2
:100550008907890F0091C16889088900C1602068F6
:10056000816892071143816000F0C4FA074612E0E7
:1005700000F0C0FAC01B02280DD92068806800284E
:1005800009DAA06B0221884310210843A0630020F0
:1005900028750120F8BD206880680028E8DB206805
:1005A000C168009A1143C160A06B80088000401CA4
:1005B000A06304E0A06B20210843A0630126002073
:1005C00028753046F8BD0000F8B5002504462034F3
:1005D0000095227D012A39D00122227503689E6888
:1005E000760767D4384F4E68BE424DD09E6A0F786A
:1005F000BA4016439E620123C26A1B079A421FD06B
:10060000012A1DD0022A1BD0032A19D0042A17D090
:10061000052A15D0062A13D0072A11D002688B6844
:1006200056697607760FB3420AD05369DB08DB00C0
:100630005361006842690B7A5B075B0F1A434261A2
:100640000A68102A04D0112A02D038E00220F8BD2E
:100650001E488368102A07D0012292051343836045
:100660000868102803D02AE00122D205F6E71948CD
:1006700017490068FFF72BFE0A21484300E0401E9F
:1006800000900028FBD11AE0986A0E78B24090439F
:1006900098620968102901D0112910D10B4882688D
:1006A000102904D0012189058A43826007E00121D5
:1006B000C905F9E7816B20221143816301250020E0
:1006C00020752846F8BD00000110000000270140F9
:1006D00040420F0068000020F8B5002604460028BC
:1006E00005D0A06B25462035002802D007E0012068
:1006F000F8BD0020E0632875204600F0A9F8A06B43
:100700001022C006002870DB2068816849076CD47D
:10071000A16B1301994302231943A16381688907DF
:10072000890F012905D10168C9070FD1C1680904E2
:100730000CD4C16818239943A3681943C160206889
:100740000169636889008908194301612068C168EB
:100750003D4B1940C160207E617E8003C903084380
:10076000A17E4B031843A36A012B02D001231B0374
:1007700000E000231843E36818432369022B09D0E3
:10078000002318432B79E57E5B0018430123012DDC
:1007900002D00AE00423F4E7002927D0A16B20252A
:1007A0002943A163E16B1943E163E1690D46FF3D14
:1007B000C23D02D0256A294308432168CD6805431C
:1007C000CD600125E16A2D07A94213D0012911D07E
:1007D00002290FD003290DD004290BD0052909D0F7
:1007E000062907D0072905D010E028E001210904D7
:1007F0000843DAE721684D69ED08ED004D61216895
:100800004D69A78D7F077F0F3D434D612168C96802
:100810000E4D2940814207D10020E063A06B800883
:100820008000401CA06308E0A06B022188431043B5
:10083000A063E06B1843E06301263046F8BDA06B6F
:100840001043A063F8E700001902FEFFE7FF3F83B3
:1008500010B586B0044614216846FFF736FD0F49EF
:100860002068884218D10E48826941150A43826186
:1008700082690A400592426909020A43426140695D
:10088000084005900320009001900020029009206C
:100890006946C00600F050F806B010BD00240140C3
:1008A0000010024070B5044600F024F90546601CB3
:1008B00002D004480078241800F01CF9401BA04224
:1008C000FAD370BD5C00002010B5012806D00828BE
:1008D00003D10F494888401C488010BD0D4C14219D
:1008E0002078401CFFF7F3FC21700B480521C079EC
:1008F000FFF7EDFC21788842EFD909200122102171
:10090000C00600F0F0F8054800F078FC10BD0000CB
:100910001400002052000020780000206C0100200C
:1009200010B504494A69024202D04861FFF7CCFF82
:1009300010BD000000040140F8B500230324012588
:10094000BAE02E469E40B44632407CD00E79B607BF
:10095000B60F012E01D0022E17D186682746B64663
:100960005E00B74000967646BE43B646CF68009E0E
:10097000B74076463743876046686746BE430F797F
:10098000FF06FF0F9F40374347600E79F643B607D7
:100990000ED0C6682746B4465E00B646B7406646E7
:1009A000BE43B4468F687646B74066463743C76055
:1009B0000E79B607B60F022E14D1DE08B60036182F
:1009C0000096366A5F07B446FE0E0F27B646B7405C
:1009D0006646BE43B4460F697646B740664637431F
:1009E000009E376206682746B4465E00B646B740AA
:1009F0006646BE430F79B446BF07BF0F7646B74081
:100A00006646374307604E68B603B60F53D02D4F86
:100A1000BE692E43BE61BE699F08F607F60F2A4ED7
:100A2000BF00BE190096B6680F27B4469E07360F62
:100A3000B646B7406646BE430927FF06B446B842ED
:100A400002D1002710E036E0204FB84201D1012743
:100A50000AE01F4FB84201D1022705E01D4FB842FE
:100A600001D1032700E005277646B74066463743A5
:100A7000009EB760184EB6684F689643FF0200D5D7
:100A80001643154FBE60FE684F689643BF0200D5FF
:100A90001643114FFE607E684F689643BF0300D532
:100AA00016430D4F7E603E684F689643FF0300D5A6
:100AB0001643094A16605B1C0A681646DE4000D0E1
:100AC0003FE7F8BD0010024000000140000400486C
:100AD00000080048000C004800040140006908407C
:100AE00000D001207047002A01D0816170478162E7
:100AF0007047000001488068704700005C000020DB
:100B00000248816802788918816070475C00002083
:100B100010B506480168102211430160032000F05F
:100B200007F800F053F8002010BD0000002002403C
:100B300030B505461F4887B08269C1140A438261F7
:100B400080690840009005A901A800F0E7F8049822
:100B5000002815D000F0FEF840001749FFF7B7FB5A
:100B6000411E1748154A0260164AC26041600021C2
:100B700001618160816100F0EDFA040003D015E0AD
:100B800000F0E8F8E9E70E4800F038FB04000DD16A
:100B90000D2000F02FF8042D07D2002229460D2049
:100BA00000F034F80848056000E00124204607B052
:100BB00030BD00000010024040420F00002C0140F8
:100BC000B4010020E70300006000002008B50848D9
:100BD0008169012211438161816911400091C269DB
:100BE00001040A43C261C0690840009008BD0000CA
:100BF00000100240002805DBC106C90E0120884014
:100C0000014908607047000000E100E010B500F005
:100C100079FE10BDF8B50F46060059D03A4D286848
:100C2000C007C00FB84209D22868400840003843C6
:100C300028602868C007C00FB84249D13068334CDB
:100C400081070CD5400704D56068072109020843D5
:100C500060606068F0218843B16808436060307864
:100C6000C00726D0706801280ED0216802280ED057
:100C7000890700292CDA61688908890001436160CD
:100C8000FFF738FF00900DE021688903F1E7890143
:100C9000EFE7FFF72FFF0099411A1D48814201D964
:100CA0000320F8BD60680C21084071688900884203
:100CB000EFD12868C007C00FB8420BD92868400898
:100CC0004000384328602868C007C00FB84201D0F0
:100CD0000120F8BD3078400706D560680721090279
:100CE0008843F1680843606000F044F86168094A8D
:100CF0000906090F515CC840074908600320FFF747
:100D000017FF0020F8BD0000002002400010024044
:100D1000881300008C2500086800002010B5072209
:100D200002600A4A53689B079B0F43605368F02494
:100D300023408360526807231B021A40C2600448A4
:100D40000068C007C00F086010BD0000001002401E
:100D5000002002400448054900684968044A4905E2
:100D6000490F515CC84070476800002000100240E5
:100D70009C25000810B5104A51680C200B46034012
:100D80000E48042B17D0082B15D18B020C4C1B0FCF
:100D9000E45CD26A0A4B1207120F10339A5CC90343
:100DA00005D500231946FFF7F1F9214601E0204659
:100DB000044900F081FD10BD0010024000127A00CD
:100DC0006C25000800093D00FEB5040070D02078B5
:100DD000DC4DC0074AD068680007800F012807D0A3
:100DE00068680007800F022809D16868C00306D52B
:100DF000286880033AD560680028E7D036E061684B
:100E0000012914D001208004002901D0052914D023
:100E10002A68012109048A432A60296881432960DC
:100E20006068002816D0FFF765FE06460EE02868C9
:100E30000121090408432860F2E729680143296079
:100E4000F5E7FFF757FE801B64286ED828688003FB
:100E5000F7D50BE0FFF74EFE064604E0FFF74AFE2B
:100E6000801B6428F1D828688003F7D420780126F5
:100E7000800700283CDA68680007800F07D06868A0
:100E80000007800F022809D16868C00306D42868CB
:100E9000800716D5E06801280AD112E0E068002832
:100EA000286816D030432860FFF724FE074605E087
:100EB00043E1FFF71FFEC01B0228C6D82868800741
:100EC000F7D52868F82188432169C90008432860BC
:100ED0000EE0400840002860FFF70CFE074604E0E3
:100EE000FFF708FEC01B0228AFD828688007F7D498
:100EF0002078000722D5E0690028686A0ED03043C8
:100F00006862FFF7F7FD074604E0FFF7F3FDC01B3B
:100F100002289AD8686A8007F7D50FE04008400099
:100F20006862FFF7E7FD074605E09DE0FFF7E2FD99
:100F3000C01B022889D8686A8007F7D42078042764
:100F40004007002860DA00200190E869C00008D45A
:100F5000E969B8060143E961E969014001200091AE
:100F6000019079480168C90511D4016882151143BF
:100F70000160FFF7BFFD009005E0FFF7BBFD0099A2
:100F8000401A642870D870480068C005F5D5A0687C
:100F900001280AD0002801D0052810D0286A40086E
:100FA00040002862286AB84301E0286A304328627A
:100FB000A068002812D0FFF79DFD00900AE0286A83
:100FC00038432862F1E7FFF795FD0099411A5F4821
:100FD000814249D8286A8007F5D50DE0FFF78AFDE0
:100FE000009006E0FFF786FD0099411A57488142BC
:100FF0003AD8286A8007F5D40198002804D0E96916
:10100000012000078143E9612078C00635D5606979
:1010100001280CD0401D686B23D038436863686B8F
:10102000400840006863FFF765FD064622E0686BF4
:1010300038436863686B30436863FFF75BFD0646BF
:1010400004E0FFF757FD801B02285BD8686B800720
:10105000F7D5686BF8218843A169C9000843686324
:101060000BE0B8436863F4E74CE0FFF743FD801BF7
:10107000022847D8686B8007F7D4206A00285ED022
:1010800069680907890F022942D00126360602281D
:10109000286805D0B0432860FFF72CFD044633E0F4
:1010A000B0432860FFF726FD074604E0FFF722FD66
:1010B000C01B022826D828688001F7D4E86AE16AB4
:1010C000000900010843E862616AA06A0843696890
:1010D0003D22120491430843686028683043286029
:1010E000FFF708FD044604E0FFF704FD001B02289B
:1010F00008D828688001F7D521E0FFF7FBFC001B2A
:10110000022801D90320FEBD28688001F5D416E02D
:101110000128F8D06868E96A01221204636A024073
:101120009A420AD10907E26A090F914205D10F21BB
:1011300089040840A16A884201D00120FEBD002038
:10114000FEBD000000100240007000408813000047
:101150007047704770B5040005D025462035687F7C
:10116000002802D006E0012070BD0020287720462C
:1011700000F014F802206877211D206800F03CFB85
:1011800001204034A071A877E87720706070A070CB
:10119000E070207160716877002070BD08B5144A56
:1011A0000168144891420ED18269012149040A4321
:1011B0008261806900220840009011461520FFF7E7
:1011C00025FD152010E00C4A91420FD182690121C2
:1011D00089040A4382618069002208400090114618
:1011E0001620FFF713FD1620FFF704FD08BD0000D1
:1011F00000440140001002400048014001462031F7
:101200004A7F012A01D00120704702224A770268F2
:10121000D36801210B43D3600068084A904202D092
:10122000074A904204D182685207520F062A02D020
:1012300002680A430260002070470000002C014051
:10124000000400400168CA6852085200CA60016880
:101250000A6A084B1A4207D10A6A9B101A4203D144
:101260000A68520852000A600121203041770020AC
:1012700070470000111100007047F8B5044600687F
:10128000C66805690027A907002913DAB10711D537
:10129000F91E0161012020772068806980072046BF
:1012A00002D0FFF7E9FF04E000F07BF8204600F0F1
:1012B00079F82777680716D5700714D504202168B8
:1012C000C043086102202077206880698005800F74
:1012D000204602D0FFF7D0FF04E000F062F820467D
:1012E00000F060F82777280715D5300713D50820B8
:1012F0002168C0430861042020772068C069800706
:10130000204602D0FFF7B8FF04E000F04AF820467C
:1013100000F048F82777E80616D5F00614D5102017
:101320002168C0430861082020772068C0698005D3
:10133000800F204602D0FFF79FFF04E000F031F855
:10134000204600F02FF82777E80708D0F00706D0EE
:1013500001202168C0430861204600F025F82806D6
:1013600008D5300606D580202168C0430861204694
:10137000FFF7EEFE680608D5700606D54020216806
:10138000C0430861204600F083F8A80608D5B006DF
:1013900006D520202168C04308612046FFF7D9FE0A
:1013A000F8BD70477047000070B5054600682B49CE
:1013B000884201D1FFF7A4FB2949286888423FD120
:1013C00028487D220188D20001260024914202D2C1
:1013D000491C018002E024490E70048023480188E2
:1013E0000A2902D2491C018002E0048000F068F85A
:1013F0001F48FF220188F532914202D2491C018028
:1014000007E01C490E7004801B4881784900017078
:1014100044801A4C0A212078401CFEF758FF2170A6
:1014200017480A21007AFEF752FF22780146154834
:10143000914201D9012200E000220221FFF753FB73
:1014400011492868884208D11048FFF7FBFE09209F
:1014500000221021C006FFF746FB70BD002C0140A2
:1014600000440140540000200000002058000020EB
:10147000560000200100002014000020530000202E
:101480007800002000040048004801406C01002062
:101490007047FEE710B504464078022802D00328C2
:1014A00008D101E0A17800E0E178062902D00348E4
:1014B00000F0E6F90020607010BD00007800002008
:1014C00010B50A4800F0C4FE0848083000F0C0FE1D
:1014D0000648103000F0BCFE0448183000F0B8FE9A
:1014E0000248203000F0B4FE10BD000020000020B3
:1014F00010B50A48FFF7CEFF08480830FFF7CAFFCB
:1015000006481030FFF7C6FF04481830FFF7C2FF47
:101510000248203000F09CFE10BD0000200000209A
:101520003EB500241B491C4800940194029412C04B
:1015300004600125856004214460C1600474447422
:101540008474C574FF21C231846141610146183140
:101550000C7105620838FFF7BFF8002801D0FEF7CC
:10156000D4FF01200003019000040290009469461A
:101570000948FFF729F8002801D0FEF7C6FF6946A1
:1015800005480095FFF720F8002801D0FEF7BDFFC1
:101590003EBD000000240140E4000020F0B587B00B
:1015A00014216846FEF791FE3E4842690121C904B4
:1015B0000A43426142690A400592426989100A431E
:1015C000426142690A400592426949000A43426108
:1015D000406907240840344E6403059000222146E8
:1015E0003046FFF780FA314F092000223946C00605
:1015F000FFF779FA00222E492E48FFF774FA00947B
:101600000024012501950294694630460394FFF7B2
:1016100093F9042002266A4651C209206946C00691
:10162000FFF78AF90820009011200004019009209A
:1016300069460296C006FFF77FF9092002946946C1
:10164000C006009701950394FFF776F93120000456
:1016500001906946029600951648FFF76DF9144807
:10166000009002946946019503941248FFF764F9CB
:101670008F20C0006A4651C269460E48FFF75CF9E8
:10168000002211460520FFF7C1FA0520FFF7B2FA44
:10169000002211460620FFF7B9FA0620FFF7AAFA42
:1016A00007B0F0BD0010024000080048F0800000C4
:1016B00006F800000004004810B50B480949016015
:1016C0000721416000217D228160D2000161C2605A
:1016D000416180218161FFF73DFD002801D0FEF7C7
:1016E00014FF10BD004401402401002010B50B4838
:1016F0000949016007214160002181606322016185
:10170000C260416180218161FFF724FD002801D082
:10171000FEF7FBFE10BD0000004801406C010020F8
:10172000FEE770477047704710B590B030216846AB
:10173000FEF7CBFD002412200F94009001200D94A1
:101740000390059010200E94049006900C94089439
:101750006846FFF739FB002801D072B6FEE7072084
:101760000C900D940E9400210F940CA8FFF752FAE0
:10177000002801D072B6FEE710B010BD704700001F
:1017800038B50E480024047101210D4A0170127809
:1017900042708170447184711421C17132210172CF
:1017A00044720122D1020748FFF79DF900231A462F
:1017B00019460120009400F005FD38BD7800002096
:1017C000180000200004004810B50248FFF755FD3E
:1017D00010BD00002401002010B50248FFF74DFDA8
:1017E00010BD00006C01002010B50248FFF745FD58
:1017F00010BD0000B401002070B502681B4B1C4EE8
:10180000984201D0B04203D17024A2434C682243D5
:10181000184C194D984208D0B04206D0174EB0422D
:1018200003D0A04201D0A84204D103263602B2431D
:10183000CE6832438026B2434E69324302608A68E2
:10184000C2620A688262984203D0A04201D0A842D4
:1018500001D109690163012141610169C90703D00F
:10186000016949084900016170BD0000002C014078
:1018700000040040004401400048014000200040B6
:10188000F8B5054600780B4A800010584A008918C0
:101890000E18084FB078002428701437305D0D28DA
:1018A00003D08000395828468847641C022CF5DB99
:1018B000F8BD000020250008F8B5040C8BB22646C0
:1018C00082B25E430D0C1046370C58433604801923
:1018D0000021794116466E43370C36048019794150
:1018E00026466E438919F8BD30B47446641E2578C7
:1018F000641CAB4200D21D46635D5B00E31830BC44
:10190000184700008307FF22DB0E9A408907090E63
:101910009940002808DB830809489B001B181868B9
:1019200090430843186070470007000F0838830889
:1019300004489B001B18D86990430843D86170473E
:1019400000E400E000ED00E070B5064D04462879A3
:101950000521401CC0B2FEF7BAFC03482971405C67
:10196000607070BD78000020180000208178012987
:1019700006D1C2780549002A03D00022C2700A723B
:1019800070470122C27064200872704778000020FE
:1019900010B50649012088700221084600F02CFC91
:1019A0000121042000F028FC10BD00007800002078
:1019B000F0B587B032200090FE484779002F23D041
:1019C0000E260025FC48805DE840C0077ED014212B
:1019D00001A8FEF77AFC402001902C460A204443DF
:1019E000F54801A99638005D02900020039004900C
:1019F0000920C006FEF7A0FFEF489638005D0128D9
:101A000009D0112807D00FE040780A21FEF75FFCCB
:101A100006460F46D5E7E848402196382018427917
:101A20000920C006FFF75FF8142101A8FEF74DFC5E
:101A300080200190E04801A996382418607802902F
:101A40000020039004900920C006FEF775FF60781F
:101A5000012801D0112805D10920A2798021C006D2
:101A6000FFF741F8142101A8FEF72FFC0120000325
:101A70000190A078029000200390049001A9CF4823
:101A8000FEF75AFFA078012801D0112805D10121C5
:101A9000E2790903C948FFF726F8142101A8FEF7E7
:101AA00014FC012040030190E07802900020039094
:101AB000049001A9C148FEF73FFFE078012801D05A
:101AC000112807D10121227A490300E067E0BB48D1
:101AD000FFF709F8142101A8FEF7F7FB01208003A6
:101AE00001902079029000200390049001A9B3484E
:101AF000FEF722FF2079012801D0112805D101210C
:101B0000627A8903AD48FEF7EEFF0098FEF7E0FC2D
:101B1000142101A8FEF7D9FB4020002401900920E0
:101B20000294039401A90494C006FEF705FF142152
:101B300001A8FEF7CAFB80200190092002940394BB
:101B400001A90494C006FEF7F7FE142101A8FEF7D0
:101B5000BCFB0120000301900294039401A90494AA
:101B60009648FEF7E9FE142101A8FEF7AEFB01201E
:101B7000400301900294039401A904948F48FEF756
:101B8000DBFE142101A8FEF7A0FB012080030190D9
:101B90000294039401A904948848FEF7CDFE6D1CBD
:101BA000EDB2072D00D80DE700258348C05DE84061
:101BB000C0077DD028460830C4B2142101A8FEF722
:101BC00084FB402001900A2044437B48002696383D
:101BD000005D02900920039601A90496C006FEF755
:101BE000ABFE75489638005D012801D0112808D158
:101BF000714840219638201842790920C006FEF726
:101C000072FF142101A8FEF760FB802001906A4852
:101C100001A996382418607802900920039604964A
:101C2000C006FEF789FE6078012801D0112805D191
:101C30000920A2798021C006FEF755FF142101A8D2
:101C4000FEF743FB012000030190A0780290039669
:101C500001A904965948FEF76FFEA078012801D02B
:101C6000112805D10121E27909035448FEF73BFF11
:101C7000142101A8FEF729FB012040030190E07820
:101C80000290039601A904964C48FEF755FEE078B1
:101C9000012801D0112805D10121227A49034748A2
:101CA000FEF721FF142101A8FEF70FFB012000E041
:101CB0005EE08003019020790290039601A90496CA
:101CC0003E48FEF739FE2079012801D0112805D1C0
:101CD0000121627A89033948FEF705FF0098FEF773
:101CE000F7FB142101A8FEF7F0FA40200924E406CE
:101CF00001900296039601A904962046FEF71CFE69
:101D0000142101A8FEF7E1FA8020019002960396C3
:101D100001A904962046FEF70FFE142101A8FEF744
:101D2000D4FA01200003254C01900296039601A9E4
:101D300004962046FEF700FE142101A8FEF7C5FA1E
:101D40000120400301900296039601A904962046C3
:101D5000FEF7F2FD142101A8FEF7B7FA0120800377
:101D600001900296039601A904962046FEF7E4FD31
:101D70006D1CEDB2062D00D817E7142101A8FEF75F
:101D8000A4FA40200024019009200294039401A9A0
:101D90000494C006FEF7D0FD142101A8FEF795FAC1
:101DA00080200127039401A9049481C10920C00661
:101DB000083905E078000020A62400080004004847
:101DC000FEF7BAFD092001228021C006FEF78BFE36
:101DD000142101A8FEF779FA3E030294039401A9A5
:101DE000344801960494FEF7A7FD142101A8FEF7DC
:101DF0006CFA7500039401A92E480297019504948A
:101E0000FEF79AFD002229462A48FEF76CFE1421AF
:101E100001A8FEF75AFA6F000294039401A925481D
:101E200001970494FEF788FD0098FEF751FB1421FA
:101E30006846FEF74AFA4020009009200194029477
:101E400069460394C006FEF777FD14216846FEF745
:101E50003CFA802000900920019402946946039482
:101E6000C006FEF769FD14216846FEF72EFA0194BC
:101E7000029469460F4800960394FEF75DFD142115
:101E80006846FEF722FA01940294694609480095D3
:101E90000394FEF751FD14216846FEF716FA0194EB
:101EA00002946946034800970394FEF745FD07B086
:101EB000F0BD00000004004870B5054C002501226B
:101EC000A571D1020348FEF70EFEE571257270BDC3
:101ED0007800002000040048F8B5044600230220E2
:101EE00000901A461946184600F06CF903260022A5
:101EF0000A2311460B480096FEF7D6FA0A4D0B4806
:101F00002E71C07860700020A070E0700120A87170
:101F1000C10200220648FEF7E6FD6420E8713C207D
:101F20002872F8BD6C000020780000201800002006
:101F30000004004808B50120002200900A23114641
:101F40000148FEF7B1FA08BD6C00002038B50E4D0F
:101F50000024AC71AC70EC7001226C72D1020B48A1
:101F6000FEF7C1FDEC7100232C721A4619460120C0
:101F7000009400F027F900220A2311460448009437
:101F8000FEF792FA38BD00007800002000040048F7
:101F90006C000020F8B50025064602232A46294693
:101FA0002846009500F00EF90120074C07492071E2
:101FB00049787170A0710246C1020548FEF793FD91
:101FC000E57150202072F8BD780000201800002034
:101FD0000004004838B5164C01216278C902154842
:101FE0000025192A0DD00122A271FEF77CFD61782F
:101FF000502037290ED007DC19290AD02D290BD102
:1020000008E0A5710022F0E755290DD05F2903D122
:102010000CE064202072E571002302221946184664
:10202000009500F0CFF838BD3C20F3E72820F1E719
:10203000780000200004004838B5134D687A012864
:1020400015D00024AC71AC700122EC70D1020F48A5
:10205000FEF749FDEC712C720D48FEF71AFA0023C9
:102060001A4619460120009400F0ACF838BD04204F
:1020700028700120A8700221084600F0BDF8012157
:10208000042000F0B9F838BD7800002000040048B2
:102090006C00002010B50248FEF7FBF910BD0000EF
:1020A0006C00002010B50021084600F0A5F8024899
:1020B000FEF7EFF910BD00006C00002038B50A4DA6
:1020C00000240122AC71D1020848FEF70CFDEC712E
:1020D00000232C721A4619460120009400F072F871
:1020E0000348FEF7D6F938BD780000200004004808
:1020F0006C00002038B5094D00240122AC71D102DA
:102100000748FEF7F0FCEC7100232C721A461946C2
:102110000120009400F056F838BD0000780000203F
:1021200000040048014610B501200B4A0B00FFF7E0
:10213000DBFB050407090B0D11000121890206E0F4
:10214000402104E0202102E0102100E00821104697
:10215000FEF7C4FC10BD00000004004810B50021CB
:102160000148FFF78DFB10BD78000020704700008C
:10217000FEF7CEFCFFF7D8FAFFF710FAFFF7D0F919
:10218000FFF79AFAFFF7B2FA0648FFF737F8FFF7BA
:10219000F7FA0548FEF7BBF9FFF7AAF9FFF708FCC5
:1021A000FAE7000024010020E400002010B50449F3
:1021B000012088710221032000F01EF810BD0000EC
:1021C00078000020F8B50D4601461E46174600204F
:1021D000069C00F011F82946012000F00DF8394660
:1021E000022000F009F83146032000F005F82146EE
:1021F000042000F001F8F8BD10B542001148012498
:1022000013185970825CE4030F481300FFF76CFB4E
:102210000504080D101419000A4621460B480EE06B
:102220000A4620210920C00609E00A46214606E0A8
:102230000A460121890302E00A4601214903FEF70B
:1022400052FC10BD4800002000080048000400486F
:1022500010B504460078FFF765FF002804D06068D9
:10226000642806D3032007E0012060706068401CEA
:1022700004E0142801D3022060700020606010BDCB
:10228000F90A0000CC0A00009E0A00006F0A000054
:10229000410A0000110A0000E2090000B209000032
:1022A000820900005209000021090000F108000025
:1022B000C10800009108000061080000310800001A
:1022C00001080000D2070000A30700007407000007
:1022D0004607000018070000EB060000BE060000DD
:1022E00092060000660600003B0600001106000092
:1022F000E8050000BF050000970500006F0500001D
:102300004905000023050000FE040000D904000078
:10231000B6040000930400007104000050040000A3
:102320003004000010040000F1030000D30300009B
:10233000B60300009A0300007E0300006303000060
:10234000490300002F03000017030000FF020000F4
:10235000E7020000D1020000BB020000A50200005D
:10236000910200007C020000690200005602000099
:1023700044020000320200002102000010020000AE
:1023800000020000F0010000E1010000D3010000A4
:10239000C4010000B7010000A90100009C01000079
:1023A0009001000084010000780100006D01000030
:1023B00062010000570100004D01000043010000D0
:1023C0003901000030010000270100001E0100005B
:1023D000160100000E01000006010000FE000000D2
:1023E000F7000000F0000000E9000000E20000003B
:1023F000DC000000D5000000CF000000C900000094
:10240000C4000000BE000000B9000000B4000000DD
:1024100001010000000100000000010001000001B6
:1024200000000000010000010001000000000100A8
:102430000000010100000000010100000000010097
:102440000000000101000000010000000001000088
:102450000100010000000001000100000100000077
:102460000100010000000001000000010100000067
:102470000001000000000101000000010000000058
:102480000100010000010000000100010000000047
:102490000100010000010000000001000000010136
:1024A0000000000001003F065B4F666D7D077F6FF7
:1024B000790000006D2100085D210008AD210008B1
:1024C000911900080C0001020B000C03020C06031A
:1024D0000C08040D0D010B0100020D010D0D010D85
:1024E0000D010D0D010D0D010D0D020D0D02050D5E
:1024F000010D0D020D0D020D0D010D0D030D0D034E
:102500000D0D03070D010D0D030D0D010D0D040D36
:102510000D04040D040D0D04090D010D0D01000045
:10252000C4240008D6240008E8240008FA2400087F
:102530000C2500084D1F0008A520000849190008B7
:10254000D51F00086D190008F5200008951F000828
:10255000BD200008D91E000839200008B91E000857
:10256000351F000895200008000000000203040544
:10257000060708090A0B0C0D0E0F101001020304C8
:1025800005060708090A0B0C0D0E0F1000000000CD
:102590000000000001020304060708090000000013
:1025A00001020304C4250008000000206C000000A4
:1025B000F4000008302600086C000020F40700003A
:1025C00010010008000000000000000000000000F2
:1025D000000000000000000000000000192D375529
:1025E0005F00000000000600000000000100010183
:1025F00000000000020006020000000003000303C8
:1026000000000000040004040000000000000100BD
:1026100002000300040000000000000000000000B1
:1026200001000000040000000000000000127A0019
:04000005080000B13E
:00000001FF
