:020000040800F2
:100000004014002025020008652F0008D32C0008AA
:1000100000000000000000000000000000000000E0
:10002000000000000000000000000000672F000832
:100030000000000000000000AB010008912F000844
:1000400037020008000000003702000837020008ED
:10005000370200082B1C0008351C00083702000876
:1000600000000000370200083702000837020008CD
:10007000370200085D300008370200080000000069
:1000800037020008000000000000000037020008EE
:10009000000000004D300008370200083702000859
:1000A00000000000370200080000000037020008CE
:1000B00000F002F800F04EF80CA030C80838241800
:1000C0002D18A246671EAB4654465D46AC4201D190
:1000D00000F040F87E460F3E0FCCB6460126334274
:1000E00000D0FB1AA246AB46334318474C480000E9
:1000F0006C480000103A02D378C878C1FAD8520789
:1001000001D330C830C101D504680C6070470000CD
:100110000023002400250026103A01D378C1FBD823
:10012000520700D330C100D50B60704710B5642969
:1001300002D100F059F910BD002010BD1FB5009884
:10014000019901F0AAF900F0A9FE1FBD10B500F059
:1001500011FF10BD00F073FF1146FFF7EFFF03F032
:100160000FFC01F069F903B4FFF7F0FF03BC01F0E5
:1001700027FB0000084B19680868203080F30988C5
:10018000022080F31488BFF36F8F3FBCAE4608BCDB
:1001900004BC62B6184700007C000020EFF310801A
:1001A00072B6704780F310887047EFF309800E4BEA
:1001B0001A6820381060F0C044464D4656465F46E7
:1001C000F0C008B572B603F0D5FF62B60CBC11687A
:1001D00008681030F0C8A046A946B246BB4680F376
:1001E00009882038F0C818477C00002070B5054603
:1001F0000C46164602E00FCC0FC5103E102EFAD268
:10020000082E02D303CC03C5083E042E07D301CC2D
:1002100001C5361F03E021782970641C6D1C761E11
:10022000F9D270BD0748804707480047FEE7FEE760
:10023000FEE7FEE7FEE7FEE704480549054A064BF0
:100240007047000009300008B1000008400E00208F
:10025000401400204010002040100020FEB505464C
:1002600010460C46184373D0AE468C460020AD1A9B
:1002700001469C4167D36646002701243D46B61AD5
:100280009D4102D313463A462124654676462F0403
:10029000360C3E432D0CB61A9D4104D3150C1B049D
:1002A0002B4312041034654676462F06360A3E4329
:1002B0002D0AB61A9D4104D3150E1B022B431202C0
:1002C0000834654676462F0736093E432D09B61A8F
:1002D0009D4104D3150F1B012B431201241D6546BC
:1002E0007646AF07B6083E43AD08B61A9D4104D323
:1002F000950F9B002B439200A41C65467646EF07A2
:1003000076083E436D08B61A9D411AD392185B4198
:10031000641C16E00018764665464941B71A9D41AF
:100320000191009009D36046B11A98418E468446E7
:10033000009801990025401C6941DD0752082A43B5
:100340005B08641EE6D57246634603B0F0BDFFE766
:1003500000200146C046C0462A462346F5E7000075
:100360000FB4054910B503AA029800F053FD10BC64
:1003700008BC04B018470000340D0020F8B50E4644
:100380000446002020622046E1688847002829D0E2
:10039000252802D06268A16820E0E1682046002795
:1003A000884705001ED028464138192802D8012761
:1003B000FF0220353246204627602946FFF7B6FE69
:1003C000002808D0012804D0F61DF608F6000836EB
:1003D000D9E7361DD7E762682846A1689047206AAA
:1003E000401CCFE7206AF8BDF7B5002575291068D5
:1003F000009914A611D0C046C046002802DA404237
:1004000011A608E0009909688A0701D50FA602E045
:10041000490704D50EA6012501E0C046C046009F4D
:100420000024243704E000F009FD30313955641C04
:100430000028F8D12B4632462146009800F091FC66
:10044000FEBD0000000000002D0000002B00000099
:100450002000000001E004C0091F0429FBD28B0723
:1004600001D50280801CC90700D0027070470029A6
:100470000BD0C30702D00270401C491E022904D3CE
:10048000830702D50280801C891EE3E70022EEE785
:100490000022DFE7002203098B422CD3030A8B42A0
:1004A00011D300239C464EE003460B433CD400226C
:1004B00043088B4231D303098B421CD3030A8B427E
:1004C00001D394463FE0C3098B4201D3CB01C01A4C
:1004D000524183098B4201D38B01C01A5241430917
:1004E0008B4201D34B01C01A524103098B4201D305
:1004F0000B01C01A5241C3088B4201D3CB00C01A72
:10050000524183088B4201D38B00C01A52414308E9
:100510008B4201D34B00C01A5241411A00D201460E
:100520005241104670475DE0CA0F00D049420310A7
:1005300000D34042534000229C4603098B422DD3F6
:10054000030A8B4212D3FC22890112BA030A8B429E
:100550000CD3890192118B4208D3890192118B42ED
:1005600004D389013AD0921100E08909C3098B4272
:1005700001D3CB01C01A524183098B4201D38B01B5
:10058000C01A524143098B4201D34B01C01A524158
:1005900003098B4201D30B01C01A5241C3088B429D
:1005A00001D3CB00C01A524183088B4201D38B0088
:1005B000C01A5241D9D243088B4201D34B00C01A12
:1005C0005241411A00D20146634652415B10104627
:1005D00001D34042002B00D54942704763465B106F
:1005E00000D3404201B50020C046C04602BD70475E
:1005F00070477047F0B50C46871A9C410D46861A25
:100600009D4103D2C01BA141D21963410D0D1F0DA5
:10061000C94EEC1BAE435CD07F057F0D0026002F3A
:1006200051D02D05AC46A943DD020123ED0A1B057F
:100630001D4320231B1B24D41746E7403818714163
:100640002F46E740CC199D402818314661410C0DDA
:1006500027D161449A4013D50023401C59415200D0
:100660000ED14008400001224B005205D34207D36F
:1006700005204007C14201D5B04900E0B0493046ED
:10068000F0BD6B00002A00D001229A181F23203CE5
:100690001B1B01D5002302E0E540281871410C0D19
:1006A000D7D0012424050919C407CD0740084908FB
:1006B000E40F28436144002CD5D00024401C614144
:1006C0009A40D0D1CDE76A05520DD9D1C90FC907DB
:1006D000D5E79C4D4E00002801D0012400E0002405
:1006E00034195F00002A01D0012600E00026BE195F
:1006F000954FAC420CD8AE420AD8B44206D0012580
:100700006D05EC42BCD010461946F0BD9942FCD0B4
:1007100000203946F0BDF0B51FB40C460F46811AD3
:100720009F412546861A9D4106D20125ED076F405F
:10073000401ABC4152187B41210D1E0D8D1BAC4649
:100740007D4D8D437ED075056D0D7CD00D05AE467B
:10075000AC431B031B0B794D52429D41202366463F
:100760009B1B14D31746F74038180026009074419D
:1007700060462F460741E41900989D4028186641BD
:1007800016D4714671189A4025D5012320E093189C
:100790002A466A415200002B00D0521C1E23203EE4
:1007A0009B1B002B61DD3541EE1728186641E8D50B
:1007B000001876415B1C9A4000D3401C4B05F3188F
:1007C0001524E34010D3002B52D071467118D30F7B
:1007D000C01802D3491C05B0F0BD0123DB079A42C3
:1007E000F9D140084000F6E701225205B21801D1C4
:1007F000002853D00123CC0ADB029943891E002A2A
:1008000008D1020C03D0020C0004103902E00246A9
:10081000002020390023550B05D112020823550B67
:1008200001D152010D23550C01D112011B1DD50C14
:1008300001D192009B1C150D01D152005B1C20259B
:10084000EE1A01E02CE022E00546F5401543984001
:10085000CA1AE10769181305C918002ABBDA032070
:1008600040070818C10FC9070FE071466118B2E7C9
:10087000F10740080843711071444A000CD001236D
:100880005B059A42A7D2C90FC9070020A3E7490513
:10089000490D26D1002001E00028F4D100219AE77B
:1008A000284D6600002801D0012100E000217118C8
:1008B0005F00002A01D0012600E00026BE19224F69
:1008C000A94210D8AE420ED8B14208D001256D051C
:1008D000E94206D01946A802414010467BE79C42F7
:1008E00001D0214677E70020394674E710B50C4661
:1008F0005C4005D50124E4076340FFF70CFF10BD01
:10090000FFF778FE10BD30B40C465C4004D50124DE
:10091000E407634030BC6DE630BCFCE670B50124F2
:10092000E40761400D465D4002D4FFF763FE70BDF1
:100930006340FFF7F0FE70BDFF0700000000F0FF0E
:100940000000F07F0000E0FF0000F87F30B50346B4
:10095000CA02400D1043164D164C0A1502D0204312
:10096000002A06DBAA1A002A12DDD040FF2A0BDC7F
:1009700030BD5205520D01D140004008AA1A07D4DB
:10098000D0404042FF2A01DD002030BD0028FCDDC0
:100990004A00002B01D0012000E0002010180122A5
:1009A0005205D042F0D8C817C043604030BD0000A7
:1009B0001E040000000000801F22030C02D10F2241
:1009C000000402D0030E03D004E00020014670476B
:1009D0000002083A030F01D10001121F830F01D159
:1009E0008000921E002801DB4000521E12055118A3
:1009F0004205C012411810467047C10FC90700D008
:100A00004042012292071143D6E701218907D3E72B
:100A1000F0B58B4C0F09254689B0BD437BD01D092D
:100A20002646AE43FAD00E465E402740F60F3E43C0
:100A3000254071D024012142FBD0FF24AD19A4042C
:100A40002D1B039501252D05DB02DB0AC9022B4373
:100A5000C90A29431E010901040F130F050121438F
:100A60001701880B820391432D098C46A90B1E4365
:100A70008A039543B30B9A0396433F09BA0B940339
:100A8000A74302962E467E430497B6464E19D719C1
:100A90000C460196544305977E43371B7646BF1B91
:100AA0003601B646BE0B361900967646BC04371999
:100AB000009C01D3641C00946400002F01D0012627
:100AC0003443029E049F754366467E430496760037
:100AD00034196E0034190094029C019E1C1966435F
:100AE000751BAE46069465464519059C05956C43F5
:100AF000594375460891691A0191049E0146514374
:100B0000A41B0491611A009C0791E10605D06109BC
:100B10000122114302E072E06EE06109089D0027A6
:100B20002C0A2D066918049D7C412A0A2D06691895
:100B3000019D6241AC0DAD026D185441079A910DB3
:100B4000920255196141029A644658435443069BE8
:100B5000059A5A43121A131B9A0E9B015B187A418D
:100B6000010B0005C3185141220A200644195A41BD
:100B70009A4200D2491C01204002814203D315232E
:100B80000226F64302E014230326F6432020C51A6A
:100B9000A9401746AF40DA400A4320460399D8409F
:100BA0000914731819055118039A3843D207514094
:100BB000AC4009D00122944006D30022401C514190
:100BC000002C01D1400840001E4A934212D301225A
:100BD00003989206904207DB0520400709181A483F
:100BE0000143C012414004E0032040070818C10F30
:100BF000C907002009B0F0BD0020F107FAE7051889
:100C00000C464C4111486D42A04115D394181A4628
:100C10005A410E48644290410ED301204A004005DB
:100C2000824209D35A00824206D35940C90F084A6A
:100C3000C90700201143DDE700200649DAE700007C
:100C40000000FF07FE070000FFFFFF7F0000E0FF3E
:100C50000000F07F0000F87F70B505464800440DA5
:100C6000124B0020002C0AD0634008D09A4206DACA
:100C70006642B24203DD12054019514170BD002C9D
:100C800008D0002B09D0C90FC907002AF6DB084A93
:100C9000114370BDC90FC90770BD28460A03104330
:100CA00002D00020034970BD284670BDFF07000038
:100CB0000000F07F0000F87F10B501469E2400027E
:100CC000CA15A307002A02D01843002A04DBA21A7F
:100CD000002A0CDDD04010BD1206120E01D14000DA
:100CE0004008A21A03D4D04040420028F3DDFF227E
:100CF00048001206904201D9002010BDC817C04319
:100D0000584010BD1F22030C02D10F2200041CD03A
:100D1000030E01D10002083A030F01D10001121F96
:100D2000830F01D18000921E002801DB4000521E7B
:100D3000D2055118021251181922904004D3491CAF
:100D4000002801D14908490008467047C10FC9076A
:100D500000D04042012292071143D3E701218907C5
:100D6000D0E7FFB504460D4681B0243000902168DD
:100D7000880604D51022E0699143216000E001203B
:100D8000A84201DD471B00E000270498A1697A19F9
:100D90001018081AA0612078C00602D42046C04668
:100DA000C046002608E003986268A168805D90470D
:100DB000206A401C761C206204988642F3DB20786F
:100DC000C0060AD52046C046C04606E06268A16853
:100DD00030209047206A401C206238467F1E002841
:100DE000F4DC07E000986268A168405D9047206AE3
:100DF000401C206228466D1E0028F3DC2046C046B9
:100E0000C0462078000602D5022005B0F0BD0120C2
:100E1000FBE70000084B70B50D467B4400F027F857
:100E20000446284600F036F8002802D00020C043CF
:100E300070BD204670BD0000F72900000146800803
:100E4000081A02091018020A1018020C1018C0081B
:100E5000820012185200891A01E0401C0A390A293E
:100E6000FBD2704701694A1C02610878704700B5DF
:100E70008FB00291002105910549019379440391B6
:100E8000114604906846FFF779FA0FB000BD0000E4
:100E9000E5FFFFFFC06880210840704710B5434858
:100EA0005421FFF7F5FA42485421FFF7F1FA41487F
:100EB0005421FFF7EDFA40483C493D4B404A016060
:100EC0003E4803603B4810605A1C0A65411C196586
:100ED000012101653C48354A3AA1784400F012FAF4
:100EE000002804D1384878440C3800F0ADFA38486E
:100EF0002F4A36A1784400F005FA002804D134487E
:100F000078440C3800F0A0FA32482A4A2FA17844DD
:100F100000F0F8F9002804D12E4878440C3800F08D
:100F200093FA40232148DC000021224600F0C4F956
:100F3000002804D0244878445C3800F085FA1C4826
:100F400022464023002100F0B7F9002804D02048B1
:100F500078445C3800F078FA1648224610230021C5
:100F600000F0AAF9002804D01A4878445C3800F050
:100F70006BFA10BD0F4870B5006D44080B48640053
:100F800000F034FA0A4800F031FA0A4800F02EFA6C
:100F900009E0206D450820466D0000F027FA204644
:100FA00000F06CF82C46002CF3D170BDE00C002052
:100FB000340D0020880D0020D4000020D80000202F
:100FC000DC000020720000003A3A000077000000C8
:100FD000243A00000E3A00000EB50191009000F096
:100FE000CDFB029069460120ABBE0EBD08B5694637
:100FF00000900220ABBE08BD1FB56B4607C3694613
:101000000520ABBE04B010BD1FB56C460FC46946C9
:101010000620ABBEF6E708B5694600900920ABBED6
:1010200008BD1CB500900A2001916946ABBE1CBDED
:10103000704708B5694600900C20ABBE08BD7546E8
:1010400000F008FAAE46050069465346C008C000E5
:10105000854618B020B5FFF7EFF860BC00274908B7
:10106000B6460026C0C5C0C5C0C5C0C5C0C5C0C540
:10107000C0C5C0C5403D49008D46704770B50446A7
:10108000051F00F0EDF90068002C1AD0446801E05B
:1010900020466468002C01D0AC42F9D301680A18DC
:1010A000AA4204D12A6805468918016000E045601B
:1010B00028684119A14205D161686960216840181A
:1010C000286070BD6C6070BDF8B505460C46C868F8
:1010D0000521C9048843012189050843E060800691
:1010E00002D5204600F008FB7149E0680140022962
:1010F00003D0204600F0AAFABCE0052101224903F2
:101100000140D20391420FD1C00306D56168E06A65
:10111000884200D80846606006E02069E0626060AE
:101120006069FFF786FFA061A1680022EEB2002986
:101130000EDAE06883050BD4C943A160092122605F
:1011400049030843E0606068411C61600670ACE0E0
:10115000E068012149030843E06000202060206925
:10116000002831D16069FFF756FF01252746243753
:10117000ED02002816D0A0898005800F08D0E06914
:1011800000F0B8F90028206102D0E068284318E098
:1011900001202761E061E068032109028843012101
:1011A00089020DE0E06900F0A5F900282061EFD088
:1011B000E0682843E0608105890F03D1FF210131F8
:1011C0000843E06020696060E2683A4F2569D00515
:1011D0001FD56168E06A884200D80846411B05D0E7
:1011E0002246284600F03CFA002843D1E06801027C
:1011F00004D5E56200206560A06053E0691CE162EF
:101200006160E169491E3843A160E06030462E709C
:10121000F8BD100201D53A4009E06068411C6160E8
:101220000670E06838430A2EE06006D00022E16ACA
:101230006068814203D90B4602E00122F7E70346CA
:10124000A7895B1B7F0504D4E7699F4201DD002A63
:101250001ED0814200D801460F1A0020E562656069
:10126000002BA06009DD22461946284600F0F8F957
:10127000002802D00020C043F8BD002F08D0A0698C
:10128000E5626560C01BA061E06810210843E06072
:10129000E068000209D56168A069E562491B401851
:1012A0006560A0610120C043F8BD3046F8BD000074
:1012B000821000000000010070B5C468A50713D0BB
:1012C000650211D4D51FF93D0AD0FF3D6D1E07D030
:1012D000FF3DFF3D022D07D101462431012305E0EA
:1012E000074E5D1EB54201D3012070BD0161C3618F
:1012F00041600F2109028C431443C460002070BD7B
:10130000FFFFFF00F7B516460C46104600F06EF8DA
:101310002078611C61280AD0722802D0772839D140
:1013200002E00125002404E00225042401E02D4D03
:1013300008240222032301270878491C2B2806D001
:10134000622807D02039C87F742807D008E01D43E1
:101350001443F1E7042005433C43EDE71020044328
:1013600000982146FFF738FE411C13D0002131615F
:1013700071600121F5604902F1617061200704D5B7
:1013800030460222002100F0E7F8306D3843306526
:101390003046FEBD0020FEBDF8B50D460646124C97
:1013A000206DC10704D0410804D044086400F7E769
:1013B000224610E0542000F09DF8070010D0790874
:1013C000206D49000122114308435421206538460D
:1013D000FFF75EF83A4629463046FFF793FFF8BD1F
:1013E0000020F8BD02800000E00C0020FEB504469D
:1013F000466900690F4F0190E56800200090A8073A
:1014000007D0204600F052F93046FFF7EFFD0028E4
:1014100001DA3846FEBD280502D50198FFF72EFEF9
:101420004C212046FFF734F8206D4008400020652D
:101430000098FEBDFFFFFFFF10B50446C046C04642
:101440002046FEF790FE10BD10B500F07DF900F0CB
:1014500075F910BD00487047DC0D00207047000092
:1014600000487047E40D0020704770477047704790
:1014700038B504460A4600206946C046C0460028E2
:1014800005D002462046009900F0A7F9012038BD9A
:1014900010B5012000F0F6F910BDF8B5C046C04601
:1014A000054600200C461020C0460646A819A0425A
:1014B0000DD9324669460020C046C046070001D11A
:1014C00000F0E0F90098A04200D00546C419FFF7EB
:1014D000C7FFF61D07460560F008C00046192846FC
:1014E00000F074F9B44204D031463868A21B00F011
:1014F00074F9F8BD70B50646FFF7B2FF05683046CF
:101500000B30C408E400B44201D8002070BD686804
:101510002A46002818D00168A14211D30B46214663
:1015200008318B4208D3436801194B6003681B1BC9
:101530000B605160046001E041685160001D70BDA6
:10154000024640680028E6D121462846FFF790FF72
:101550000028DCD170BD0000F8B5044616460D46E3
:101560004769007B800730D03846FFF754FD0028DC
:101570002BD132461026002A25D0012A02D0022A79
:1015800023D104E0204600F042F945191BE038461B
:10159000FFF74FFDE16831430028E16004DA20469F
:1015A00000F054F80120F8BDC9030BD56268E16A68
:1015B000914200D81146A26989182269891A81428C
:1015C00000DD08462D18002D01DA0220F8BDE16A81
:1015D0006068E268814206D29103E06203D501218E
:1015E00049048A433243A669AE4211DCE16A814272
:1015F00001D90B4600E003469F192369FF1AAF4249
:1016000006DD814201D90F4600E007469F4206D120
:10161000202002430020A060A56220600DE0AD1BE9
:10162000E669AE1B8142A66000D90846C01A281A96
:101630002060581960602020824303480240002047
:10164000E26040342072F8BDBFCFD7FFC16880226E
:10165000114392039143C160002181600160704792
:10166000F7B514460E463348D5685769054209D088
:101670003846A169FFF7D5FC002811DB2D48C0438F
:101680000540E5602B46324638460099FFF7B4FC2A
:101690004200A1695208B21A89180028A16104D039
:1016A0002046FFF7D3FF0020C043FEBD70B50446BF
:1016B0000569C06A6168884200D80846E168052269
:1016C000D2049143E160C90314D5A84209D022464F
:1016D000411B2846FFF7C4FF002802D00020C0436A
:1016E00070BDE56200206560A060E068012109042A
:1016F0008843E060002070BD10B50446C06820211A
:101700008843E060A16AA06988420ED02046FFF7B6
:10171000CDFFE06803210903884310210843E060FE
:10172000A06AA0612069E06260600349E068084047
:10173000E06010BD10000200BFBFFFFF10B5002821
:1017400001D000F03DF810BD10B5014602A000F038
:101750007FF8012010BD00005349475254524544C0
:101760003A2052656469726563743A2063616E273A
:1017700074206F70656E3A200000000030B5441C84
:1017800003E00178401C00290DD08107F9D10B4BF3
:10179000DD0104C8D11A91432940FAD0001B0A0682
:1017A00003D0C01E30BD001B30BD0A0401D0801E16
:1017B00030BD0902FCD0401E30BD00000101010116
:1017C00001491820ABBEFEE726000200002101609F
:1017D0004160806070471020704710B50346406834
:1017E00001E003464068002801D08842F9D3186818
:1017F000C3188B4206D0CB1CD808C000001D411A6C
:10180000521A0146081D0A60FFF738FC10BD10B5DA
:101810000146C268900703D0900607D5886A0AE09F
:1018200000F03CF801210160881E10BD8B694868FA
:10183000C0180B69C01A40310B7A002B02D0497ACC
:10184000401A10BD1103FCD50028FADD401E10BD62
:1018500070B505460C460A2000E06D1C00F018F833
:10186000002D06D028780028F7D102E0641C00F093
:101870000FF8002C02D020780028F7D10A2000F0C1
:1018800007F870BD10B500F00DF8FFF757FF10BD59
:1018900008B5694608700320ABBE08BD0048704714
:1018A000DC0D002010B5012805D0002103A0FFF7B2
:1018B000CFFF012010BD09A1F8E7000053494752AE
:1018C000544D454D3A204F7574206F662068656110
:1018D00070206D656D6F7279000000003A204865D8
:1018E0006170206D656D6F727920636F72727570B3
:1018F0007465640070B5044600688168490724D5A2
:10190000816810264907002905DA8168890702D411
:1019100081683143816000F043FD054611E000F02D
:101920003FFD401B02280CD920688068400708D57D
:10193000A06B3043A063E06B01210843E0630846DD
:1019400070BD206880684007E9D4002070BDF8B5FC
:101950000446006881688907890F01292CD1016834
:10196000C90702D1C168090426D581680522114042
:1019700010250126012913D18168022211438160BB
:1019800021680320086000F00BFD074610E000F01E
:1019900007FDC01B02280BD920688068C00707D04C
:1019A000A06B2843A063E06B3043E0630120F8BDE7
:1019B00020688068C007EAD10020F8BDF8B5044669
:1019C00000200090206881688907890F012905D1CE
:1019D0000168C90731D1C16809042ED48168184A49
:1019E00010261140012500291AD181682943816000
:1019F000154814490068FEF74DFD00E0401E0090B8
:101A00000028FBD100F0CCFC074611E000F0C8FC38
:101A1000C01B02280CD920680068C043C00707D04B
:101A2000A06B3043A063E06B2843E0630120F8BD66
:101A300020680068C043C007E8D10020F8BD00005E
:101A40001700008040420F007800002010B588B0D9
:101A500020220D496846FEF7C9FB0B4C1C3C204672
:101A60000C300FC801F002FF214620224C3168469D
:101A7000FEF7BCFB3C340FCC01F0F8FE034800F04D
:101A800041FB08B010BD0000FC0000202003002036
:101A900010B54179002907D0002101704170817093
:101AA000C170417102A000E005A0FEF759FC10BD15
:101AB00063616E63656C2074696D6572200A000055
:101AC000416C61726D5F43616E63656C3A616C611C
:101AD000726D20646F6E2774206578697374200AB4
:101AE0000000000070B51F4EF078012812D11E4C86
:101AF000607901280ED1204622784178002580782F
:101B0000002A01D1002903D0002804D0401E0DE096
:101B10000028FBD170BD3B20002902D0491E617016
:101B200004E0002A17D0521E22706070A070217845
:101B3000002905D16078002802D1A07800280AD0B9
:101B4000A378627809A0FEF70BFC617911A0FEF77B
:101B500007FCF57070BDA068002800D08047657153
:101B6000A560F2E700000020E0000020616C6172D7
:101B70006D2074696D652072656D61696E2068689D
:101B80003A6D6D3A7373202025643A25643A2564D2
:101B90000A000000616C61726D20737461746520CD
:101BA0003A202564200A000070B50D461543049CB8
:101BB0001D4310D0017042708370C47001214171C7
:101BC000054AA10051588160044883784278017821
:101BD00003A0FEF7C5FB70BDD4450008E00000205F
:101BE0007374617274206120616C61726D20206871
:101BF000683A6D6D3A7373202025643A25643A255E
:101C0000640A00007D2110B5C900884205D3FEF7A3
:101C100041FC0C4600F096FA20460021C00001E08D
:101C200000BF491C8842FBD810BD10B5012000F050
:101C3000C5FA10BD10B5082000F0C0FA10BD72B68C
:101C4000FEE7F8B5054604462035287D0026012824
:101C500008D001202875206881688907890F01292B
:101C600008D101E00220F8BD0168C9073CD1C16874
:101C7000090439D4A16BFF2201329143022211439E
:101C8000A163C1688907890F0091C168890889002B
:101C9000C1602068816892071143816000F080FB79
:101CA000074612E000F07CFBC01B02280DD920681B
:101CB0008068002809DAA06B0221884310210843BC
:101CC000A063002028750120F8BD206880680028E6
:101CD000E8DB2068C168009A1143C160A06B8008EE
:101CE0008000401CA06304E0A06B20210843A06397
:101CF0000126002028753046F8BD0000F8B5002503
:101D0000044620340095227D012A39D00122227513
:101D100003689E68760767D4384F4E68BE424DD040
:101D20009E6A0F78BA4016439E620123C26A1B075F
:101D30009A421FD0012A1DD0022A1BD0032A19D093
:101D4000042A17D0052A15D0062A13D0072A11D045
:101D500002688B6856697607760FB3420AD05369DA
:101D6000DB08DB005361006842690B7A5B075B0F9D
:101D70001A4342610A68102A04D0112A02D038E0BE
:101D80000220F8BD1E488368102A07D00122920560
:101D9000134383600868102803D02AE00122D2058B
:101DA000F6E7194817490068FEF774FB0A21484313
:101DB00000E0401E00900028FBD11AE0986A0E78DF
:101DC000B240904398620968102901D0112910D1BE
:101DD0000B488268102904D0012189058A4382605A
:101DE00007E00121C905F9E7816B202211438163D6
:101DF0000125002020752846F8BD000001100000D4
:101E00000027014040420F00780000200068006C6D
:101E100070470000F8B500260446002805D0A06BE6
:101E200025462035002802D007E00120F8BD00201B
:101E3000E0632875204600F0A9F8A06B1022C006C8
:101E4000002870DB2068816849076CD4A16B1301FE
:101E5000994302231943A16381688907890F0129E6
:101E600005D10168C9070FD1C16809040CD4C16844
:101E700018239943A3681943C16020680169636806
:101E800089008908194301612068C1683D4B1940E8
:101E9000C160207E617E8003C9030843A17E4B039D
:101EA0001843A36A012B02D001231B0300E0002387
:101EB0001843E36818432369022B09D00023184311
:101EC0002B79E57E5B0018430123012D02D00AE047
:101ED0000423F4E7002927D0A16B20252943A1631F
:101EE000E16B1943E163E1690D46FF3DC23D02D05C
:101EF000256A294308432168CD680543CD60012543
:101F0000E16A2D07A94213D0012911D002290FD06F
:101F100003290DD004290BD0052909D0062907D0A3
:101F2000072905D010E028E0012109040843DAE779
:101F300021684D69ED08ED004D6121684D69A78D5F
:101F40007F077F0F3D434D612168C9680E4D2940D1
:101F5000814207D10020E063A06B80088000401C14
:101F6000A06308E0A06B022188431043A063E06BEC
:101F70001843E06301263046F8BDA06B1043A06310
:101F8000F8E700001902FEFFE7FF3F8310B586B0B7
:101F9000044614216846FEF77BFA0F492068884200
:101FA00018D10E48826941150A43826182690A404C
:101FB0000592426909020A4342614069084005905E
:101FC0000320009001900020029009206946C0067D
:101FD00000F000F906B010BD0024014000100240DE
:101FE000F8B504464069254620350E4608280BD032
:101FF0002068C068C00709D0A06B20210843A063F7
:10200000002028750120F8BD082700E00C2700F00B
:10201000C7F9009015E0701C13D0002E05D000F019
:10202000BFF90099401AB0420BD9206800683842C5
:1020300007D1A06B04210843A0630020287503206A
:10204000F8BD206800683842E5D0A06B0121490244
:102050000843A0632068C16809058A0F0C21002A83
:102060001AD1A27E002A17D10268120714D58268FD
:1020700053070122002B08DB43688B434360A06BAE
:10208000130298431043A06306E0A06B202318437B
:10209000A063E06B1043E063207E002801D120683C
:1020A00001600020F8BD000070B5044621680020E2
:1020B0008968490721D425462035297D01291CD06E
:1020C00001212975617E012904D02046FFF776FCA5
:1020D000002811D1A16B0A4A1140FF22013211439D
:1020E000A1630021E163297522681C211160216828
:1020F0008A6804231A438A6070BD022070BD000004
:10210000FEF1FFFF70B5054604462035287D012805
:1021100007D001262E752046FFF7ECFB002802D0E1
:102120000CE0022070BD2046FFF711FC002805D10D
:10213000A16BFF22013291433143A1630021297534
:1021400070BD000070B5044600F02AF90546601C19
:1021500002D004480078241800F022F9401BA04265
:10216000FAD370BD6C00002010B5012806D00828F5
:1021700003D10F494888401C488010BD0D4C0A21EE
:102180002078401CFEF786F921700B480A21007860
:10219000FEF780F9227801460920C006914201D954
:1021A000012200E00022102100F0F3F810BD000031
:1021B000180000205A0000200100002010B504493A
:1021C0004A69024202D04861FFF7CEFF10BD00000D
:1021D00000040140F8B5002303240125BAE02E468F
:1021E0009E40B44632407CD00E79B607B60F012E21
:1021F00001D0022E17D186682746B6465E00B7404A
:1022000000967646BE43B646CF68009EB7407646F7
:102210003743876046686746BE430F79FF06FF0F66
:102220009F40374347600E79F643B6070ED0C66825
:102230002746B4465E00B646B7406646BE43B4463F
:102240008F687646B74066463743C7600E79B60753
:10225000B60F022E14D1DE08B60036180096366A84
:102260005F07B446FE0E0F27B646B7406646BE432C
:10227000B4460F697646B74066463743009E3762DC
:1022800006682746B4465E00B646B7406646BE437B
:102290000F79B446BF07BF0F7646B740664637434F
:1022A00007604E68B603B60F53D02D4FBE692E435C
:1022B000BE61BE699F08F607F60F2A4EBF00BE1921
:1022C0000096B6680F27B4469E07360FB646B7404D
:1022D0006646BE430927FF06B446B84202D100272E
:1022E00010E036E0204FB84201D101270AE01F4F2D
:1022F000B84201D1022705E01D4FB84201D10327A2
:1023000000E005277646B74066463743009EB76033
:10231000184EB6684F689643FF0200D51643154F16
:10232000BE60FE684F689643BF0200D51643114F4A
:10233000FE607E684F689643BF0300D516430D4F7D
:102340007E603E684F689643FF0300D51643094AF6
:1023500016605B1C0A681646DE4000D03FE7F8BDF9
:10236000001002400000014000040048000800483E
:10237000000C0048000401400069084000D0012022
:102380007047426913460B401B0491430B43836122
:102390007047002A01D08161704781627047000058
:1023A00001488068704700006C0000200248816886
:1023B00002788918816070476C00002010B50648CB
:1023C0000168102211430160032000F007F800F0BB
:1023D00053F8002010BD00000020024030B5054633
:1023E0001F4887B08269C1140A438261806908402E
:1023F000009005A901A800F0EBF80498002815D07A
:1024000000F002F940001749FEF744F8411E174852
:10241000154A0260164AC260416000210161816074
:10242000816100F0F1FA040003D015E000F0ECF84F
:10243000E9E70E4800F028FB04000DD10D2000F064
:1024400033F8042D07D2002229460D2000F038F879
:102450000848056000E00124204607B030BD0000B8
:102460000010024040420F00002C0140A803002051
:10247000E70300007000002008B50A4881690122C6
:1024800011438161816911400091C26901040A43CD
:10249000C261C0690022084003210090481F00F07B
:1024A0000FF808BD00100240002805DBC106C90E68
:1024B00001208840014908607047000000E100E009
:1024C00010B500F06DFE10BDF8B50F46060059D0EE
:1024D0003A4D2868C007C00FB84209D228684008A2
:1024E0004000384328602868C007C00FB84249D16F
:1024F0003068334C81070CD5400704D5606807214C
:102500000902084360606068F0218843B1680843AD
:1025100060603078C00726D0706801280ED021682E
:1025200002280ED0890700292CDA61688908890001
:1025300001436160FFF734FF00900DE021688903DB
:10254000F1E78901EFE7FFF72BFF0099411A1D48DA
:10255000814201D90320F8BD60680C2108407168F0
:1025600089008842EFD12868C007C00FB8420BD954
:10257000286840084000384328602868C007C00F1A
:10258000B84201D00120F8BD3078400706D5606818
:10259000072109028843F1680843606000F044F8AD
:1025A0006168094A0906090F515CC840074908607B
:1025B0000320FFF713FF0020F8BD000000200240B9
:1025C0000010024088130000004900087800002035
:1025D00010B5072202600A4A53689B079B0F4360AD
:1025E0005368F02423408360526807231B021A407B
:1025F000C26004480068C007C00F086010BD00003A
:102600000010024000200240044805490068496863
:10261000044A4905490F515CC840704778000020C2
:10262000001002401049000810B5104A51680C20F3
:102630000B4603400E48042B17D0082B15D18B02F4
:102640000C4C1B0FE45CD26A0A4B1207120F1033BA
:102650009A5CC90305D500231946FDF7FFFD214605
:1026600001E02046044900F075FD10BD0010024055
:1026700000127A00E048000800093D00FEB50400A1
:1026800070D02078DC4DC0074AD068680007800F02
:10269000012807D068680007800F022809D1686800
:1026A000C00306D5286880033AD560680028E7D0C3
:1026B00036E06168012914D001208004002901D08E
:1026C000052914D02A68012109048A432A6029684F
:1026D000814329606068002816D0FFF761FE064636
:1026E0000EE028680121090408432860F2E7296800
:1026F00001432960F5E7FFF753FE801B64286ED87D
:1027000028688003F7D50BE0FFF74AFE064604E091
:10271000FFF746FE801B6428F1D828688003F7D4B1
:1027200020780126800700283CDA68680007800FBF
:1027300007D068680007800F022809D16868C003C5
:1027400006D42868800716D5E06801280AD112E06F
:10275000E0680028286816D030432860FFF720FE84
:10276000074605E043E1FFF71BFEC01B0228C6D861
:1027700028688007F7D52868F82188432169C900AF
:10278000084328600EE0400840002860FFF708FE7C
:10279000074604E0FFF704FEC01B0228AFD82868F4
:1027A0008007F7D42078000722D5E0690028686AFE
:1027B0000ED030436862FFF7F3FD074604E0FFF7F1
:1027C000EFFDC01B02289AD8686A8007F7D50FE092
:1027D000400840006862FFF7E3FD074605E09DE022
:1027E000FFF7DEFDC01B022889D8686A8007F7D48E
:1027F000207804274007002860DA00200190E8696B
:10280000C00008D4E969B8060143E961E9690140FB
:1028100001200091019079480168C90511D401682F
:10282000821511430160FFF7BBFD009005E0FFF743
:10283000B7FD0099401A642870D870480068C00538
:10284000F5D5A06801280AD0002801D0052810D0AD
:10285000286A400840002862286AB84301E0286AD4
:1028600030432862A068002812D0FFF799FD00903D
:102870000AE0286A38432862F1E7FFF791FD0099E2
:10288000411A5F48814249D8286A8007F5D50DE092
:10289000FFF786FD009006E0FFF782FD0099411AE0
:1028A000574881423AD8286A8007F5D40198002811
:1028B00004D0E969012000078143E9612078C0065E
:1028C00035D5606901280CD0401D686B23D0384392
:1028D0006863686B400840006863FFF761FD064667
:1028E00022E0686B38436863686B30436863FFF7C6
:1028F00057FD064604E0FFF753FD801B02285BD816
:10290000686B8007F7D5686BF8218843A169C90017
:10291000084368630BE0B8436863F4E74CE0FFF7F3
:102920003FFD801B022847D8686B8007F7D4206AD8
:1029300000285ED069680907890F022942D0012664
:1029400036060228286805D0B0432860FFF728FD26
:10295000044633E0B0432860FFF722FD074604E059
:10296000FFF71EFDC01B022826D828688001F7D477
:10297000E86AE16A000900010843E862616AA06A46
:10298000084369683D22120491430843686028683F
:1029900030432860FFF704FD044604E0FFF700FD24
:1029A000001B022808D828688001F7D521E0FFF72E
:1029B000F7FC001B022801D90320FEBD2868800116
:1029C000F5D416E00128F8D06868E96A01221204FB
:1029D000636A02409A420AD10907E26A090F9142EA
:1029E00005D10F2189040840A16A884201D0012045
:1029F000FEBD0020FEBD000000100240007000403F
:102A0000881300007047704770B5040005D0254654
:102A10002035687F002802D006E0012070BD00202C
:102A20002877204600F014F802206877211D2068DE
:102A300000F01CFB01204034A071A877E8772070DB
:102A40006070A070E070207160716877002070BDC8
:102A500008B500680A49884210D10A4882690121F4
:102A600049040A43826180690022084000900321E2
:102A70001520FFF725FD1520FFF716FD08BD000006
:102A80000044014000100240014620314A7F012AE3
:102A900001D00120704702224A770268D3680121E1
:102AA0000B43D3600068094A904205D0084A90421F
:102AB00002D0084A904204D182685207520F062A77
:102AC00002D002680A43026000207047002C0140D7
:102AD00000040040004001407047F8B5044600681B
:102AE000C66805690027A907002913DAB10711D5BF
:102AF000F91E016101202077206880698007204647
:102B000002D0FFF7E9FF04E000F07BF8204600F078
:102B100079F82777680716D5700714D5042021683F
:102B2000C043086102202077206880698005800FFB
:102B3000204602D0FFF7D0FF04E000F062F8204604
:102B400000F060F82777280715D5300713D508203F
:102B50002168C0430861042020772068C06980078D
:102B6000204602D0FFF7B8FF04E000F04AF8204604
:102B700000F048F82777E80616D5F00614D510209F
:102B80002168C0430861082020772068C06980055B
:102B9000800F204602D0FFF79FFF04E000F031F8DD
:102BA000204600F02FF82777E80708D0F00706D076
:102BB00001202168C0430861204600F025F828065E
:102BC00008D5300606D580202168C043086120461C
:102BD000FFF718FF680608D5700606D54020216863
:102BE000C0430861204600F073F8A80608D5B00677
:102BF00006D520202168C04308612046FFF703FF67
:102C0000F8BD70477047000070B50446006825495C
:102C1000884201D1FFF7CAFB23492068884240D18E
:102C200022487D220188D20001250024914202D24F
:102C3000491C018006E01E490D7004801D48817802
:102C4000017044801C4801880A2902D2491C018075
:102C500004E0048000F054F800F082FB1748FF22E3
:102C60000188F532914202D2491C018002E01449E8
:102C70000D700480134C05212078401CFDF70AFCE0
:102C80002170114814210078FDF704FC22780146D8
:102C90000E48914201D9012200E000220221FFF7F3
:102CA00078FB70BD002C0140004401405C00002016
:102CB0000300002018000020600000205E000020BB
:102CC000040000205B0000200200002000040048F7
:102CD0007047FEE710B504464078022802D003286A
:102CE00008D101E0A17800E0E178062902D003488C
:102CF00000F008FA0020607010BD000021000020E4
:102D000010B50A4801F0D0F80848083001F0CCF8B6
:102D10000648103001F0C8F80448183001F0C4F833
:102D20000248203001F0C0F810BD0000280000204B
:102D300010B50A48FFF7CEFF08480830FFF7CAFF72
:102D400006481030FFF7C6FF04481830FFF7C2FFEF
:102D50000248203001F0A8F810BD00002800002033
:102D60003EB500241B491C4800940194029412C0F3
:102D700004600125856004214460C16004744474CA
:102D80008474C574FF21C2318461416101461831E8
:102D90000C7105620838FFF73DF8002801D0FEF7F6
:102DA0004EFF012000030190000402900094694648
:102DB0000948FEF7A3FF002801D0FEF740FF69464F
:102DC00005480095FEF79AFF002801D0FEF737FF6F
:102DD0003EBD0000002401402003002010B58EB04D
:102DE0001C220B496846FDF701FA0021684600F0F5
:102DF000F6FD084C064920601C221C3107A8FDF78F
:102E0000F5F9002107A800F0EAFD60600EB010BDE2
:102E1000A848000864000020F0B587B01421684677
:102E2000FDF736FB3D4842690121C9040A4342616E
:102E300042690A400592426989100A434261426927
:102E40000A400592426949000A43426140690724E9
:102E50000840334E64030590002221463046FFF7B8
:102E600098FA092000222F49C006FFF792FA0022A3
:102E70002D492E48FFF78DFA009400240125019575
:102E80000294694630460394FFF7A4F90420022611
:102E90006A4651C209206946C006FFF79BF908201F
:102EA000112700903F040920694601970296C00649
:102EB000FFF790F91B48009009200294694601959C
:102EC0000394C006FFF786F96946184801970296F1
:102ED0000095FFF77FF91448009002946946019528
:102EE00003941248FFF776F98F20C0006A4651C25A
:102EF00069460E48FFF76EF9002203210520FFF70F
:102F0000DFFA0520FFF7D0FA002203210620FFF7A1
:102F1000D7FA0620FFF7C8FA07B0F0BD001002404C
:102F200000080048F080000006F800000004004897
:102F300010B50B48094901600721416000217D223D
:102F40008160D2000161C260416180218161FFF72F
:102F50005BFD002801D0FEF772FE10BD0044014069
:102F600060030020FEE77047FEF770FDFFF7E0FE0C
:102F700000F0F6F900F0EEFCFEF7B4FD00F0AEFC58
:102F8000012000F01FFDEFE70A2000F01BFDFBE72A
:102F900010B5FDF703F9044601F0BAF9002803D093
:102FA00001200349000748602046FDF7FBF810BDEB
:102FB00000ED00E010B590B030216846FDF768FAEA
:102FC000002412200F94009001200D94039005908E
:102FD00010200E94049006900C9408946846FFF715
:102FE0004DFB002801D072B6FEE707200C900D942F
:102FF0000E9400210F940CA8FFF766FA002801D068
:1030000072B6FEE710B010BD7047000038B50D492C
:103010000020087101240C704A1F12784A708C70CD
:1030200021390870487088700246E1020648FFF7AF
:10303000B0F901231A4619460020009400F0EEFE74
:1030400038BD0000210000200004004810B50248EF
:10305000FFF743FD10BD00006003002010B50248DB
:10306000FFF73BFD10BD0000A8030020F0B502688B
:103070001E4B1F4C984201D0A04203D17025AA4399
:103080004D682A431B4D1C4E1C4F98420AD0A0424B
:1030900008D01B4CA04205D0A84203D0B04201D0BA
:1030A000B84205D11446032212029443CA6822434F
:1030B0008024A2434C69224302608A68C2620A6883
:1030C0008262984205D0A84203D0B04201D0B842F3
:1030D00001D109690163012141610169C90703D077
:1030E0000169490849000161F0BD0000002C014060
:1030F00000040040004001400044014000480140FD
:1031000000200040F8B5054600780C4A80001058B1
:103110004A0089180E18B178297009A0FDF720F926
:10312000064F00241437305D0A2803D08000395838
:1031300028468847641C022CF5DBF8BD6848000867
:1031400043757272656E745374617465203A2025FC
:1031500064200A00F8B5040C8BB2264682B25E43A6
:103160000D0C1046370C5843360480190021794164
:1031700016466E43370C36048019794126466E4355
:103180008919F8BD30B47446641E2578641CAB42BE
:1031900000D21D46635D5B00E31830BC1847000099
:1031A0008307FF22DB0E9A408907090E9940002809
:1031B00008DB830809489B001B18186890430843E4
:1031C000186070470007000F0838830804489B0008
:1031D0001B18D86990430843D861704700E400E0A9
:1031E00000ED00E0F8B52B484078FDF7B7FD2A491F
:1031F000C96A01F087F9FDF75FFD264C213CA0600C
:10320000A068002800DA4042052803DA2069A16896
:10321000401800E0002020612069642801DD64205E
:10322000206121696320C043814200DA2061A068E7
:10323000E168401AFDF7E1FB0022D243FDF70CFDE7
:1032400006460F462069FDF7D8FB144A144BFDF7DC
:10325000DFFB05460091A068FDF7CFFB0122FDF7DB
:10326000FBFC2A46009BFDF741FB32463B46FDF73F
:103270003DFBFDF76BFB6061642801DD642002E02B
:10328000002801DA00206061207D6070A068E060A5
:10329000F8BD0000210000201C0100209A99999996
:1032A0009999B93F70B5064D044628790521401C0F
:1032B000C0B2FDF7EFF803482971405C607070BD43
:1032C000210000201C00002010B58178012907D1C1
:1032D000C178002905D00021C17003A0FDF740F896
:1032E00010BD0121C17010BD2073746F7020636C1C
:1032F000656172207761746572202E2E2E200A007F
:1033000010B50649012088700221084600F0A0FD92
:103310000021042000F09CFD10BD000021000020D1
:10332000F8B50D4E0024B0783546213D64270028BD
:103330000DD02C70AF7001210022C9020748FFF7A1
:1033400028F86C70F078012804D0AC70F8BDFFF755
:1033500049FFF7E7AF70F8BD2100002000040048E6
:10336000F0B5322087B0FC4FFC4E002500907878F5
:103370000A21FDF78FF8305CE840C0077ED01421A9
:1033800001A8FDF785F8402001902C460A2044430F
:10339000F24801A99638005D029000200390049045
:1033A0000920C006FEF716FFEC489638005D01289C
:1033B00001D0112808D1E9484021963820184279D7
:1033C0000920C006FEF7E5FF142101A8FDF760F80B
:1033D00080200190E14801A9963824186078029075
:1033E0000020039004900920C006FEF7F3FE6078E9
:1033F000012801D0112805D10920A2798021C00619
:10340000FEF7C7FF142101A8FDF742F801200003D1
:103410000190A078029000200390049001A9D04868
:10342000FEF7D8FEA078012801D0112805D101218E
:10343000E2790903CA48FEF7ACFF142101A8FDF7A1
:1034400027F8012040030190E078029000200390CB
:10345000049001A9C248FEF7BDFEE078012801D022
:10346000112805D10121227A4903BD48FEF791FFB9
:10347000142101A8FDF70CF8012000E037E08003DB
:1034800001902079029000200390049001A9B44893
:10349000FEF7A0FE2079012801D0112805D10121D5
:1034A000627A8903AE48FEF774FF0098FEF7AAFB24
:1034B0000924E406002240212046FEF76AFF00228C
:1034C00080212046FEF765FFA54C0121002209035B
:1034D0002046FEF75EFF0121002249032046FEF749
:1034E00058FF0121002289032046FEF752FF6D1C80
:1034F000EDB2072D00D83AE7002497480A2140781A
:10350000FCF7C8FF705CE040C0077DD02046083063
:10351000C5B2142101A8FCF7BBFF402001908F4FDA
:103520000A204543963F785D029000200390049066
:10353000092001A9C006FEF74DFE785D012801D0E3
:10354000112806D1E819427909204021C006FEF76A
:1035500020FF142101A8FCF79BFF8020ED190190AA
:103560006878002702900920039701A90497C006F4
:10357000FEF730FE6878012801D0112805D1092016
:10358000AA798021C006FEF704FF142101A8FCF7E8
:103590007FFF012000030190A8780290039701A902
:1035A00004976F48FEF716FEA878012801D011286D
:1035B00005D10121EA7909036948FEF7EAFE1421E1
:1035C00001A8FCF765FF012040030190E878029014
:1035D000039701A904976248FEF7FCFDE8780128EB
:1035E00001D0112805D101212A7A49035C48FEF750
:1035F000D0FE142101A8FCF74BFF012080030190AD
:103600002879039701A900E031E00497544F029014
:103610003846FEF7DFFD2879012801D0112805D1B1
:1036200001216A7A89033846FEF7B3FE0098FEF757
:10363000E9FA0925ED06002240212846FEF7A9FEF9
:10364000002280212846FEF7A4FE01210022090362
:103650003846FEF79EFE0121002249033846FEF758
:1036600098FE0121002289033846FEF792FE641C71
:10367000E4B2062C00D840E7142101A8FCF708FFAB
:1036800040200024019009200294039401A904948D
:10369000C006FEF79FFD142101A8FCF7F9FE80206B
:1036A0000127039401A9049481C10920C0060839A7
:1036B000FEF790FD092001228021C006FEF769FE79
:1036C000142101A8FCF7E4FE3D030294039401A930
:1036D000234801950494FEF77DFD142101A8FCF711
:1036E000D7FE6E00039401A91D4802970196049429
:1036F000FEF770FD002231461948FEF74AFE1421FC
:1037000001A8FCF7C5FEAF000294039401A9144878
:1037100001970494FEF75EFD0098FEF773FA092006
:1037200000224021C006FEF734FE0920002280213D
:10373000C006FEF72EFE002229460948FEF729FEA4
:10374000002231460648FEF724FE0022394604488E
:10375000FEF71FFE07B0F0BD21000020FE47000865
:103760000004004838B504460121032000F070FB36
:103770000221042000F06CFB00250A232A4629467A
:103780000D480095FEF710FA0C49032008710C480B
:103790000C49C0786070A570E57001200870024681
:1037A000C1020948FEF7F5FD084950200870084994
:1037B0003C20087038BD0000E000002021000020FF
:1037C0001C00002000000020000400480100002030
:1037D0000200002038B50B48002404700121224665
:1037E000C9020948FEF7D5FD08480470084804706E
:1037F00001200346024601460090002000F00EFB27
:1038000038BD000000000020000400480100002036
:103810000200002010B58A68002A02DCFDF754FC83
:1038200010BD521E8A604A68C0B2531C4B601070B3
:1038300010BD0000014610B501200B4A0B00FFF738
:10384000A1FC050407090B0D11000121890206E006
:10385000402104E0202102E0102100E00821104670
:10386000FEF78AFD10BD0000000400480FB410B53B
:103870001848FEF719FC0A211648FEF7B1FB154857
:10388000FEF7C4FA81B20020134A02E0632800DB8D
:1038900063208300D3588B4202D9401C6428F5DB97
:1038A000FDF754FA6A46517A8A0002A951186A460D
:1038B0004860507A0A21401CC0B2FCF7EBFD6A4612
:1038C00051720020401C0A28FCDB10BC08BC04B06C
:1038D0001847000020030020D8450008F8B5174815
:1038E00000240179012928D1002105465035144EC4
:1038F00009270171FF06600040194078022818D19D
:103900002300FFF73FFC0504080B0E1116000121F0
:10391000C90330460BE02021384608E00121C903E5
:1039200004E00121890301E0012149030548FEF774
:1039300028FD641CE4B2052CDDD3F8BD0000002096
:10394000000400480008004810B50121002000F0E4
:103950007FFA10BD10B5094800780300FFF712FC8C
:1039600005060604070A060000F04CFC10BDFFF730
:1039700039FC10BDFFF7D4FC10BD00002100002071
:10398000FEF71CFDFFF716FBFFF746FAFFF7E8F915
:10399000FFF7CEFA0648FFF777F8FFF737FB054841
:1039A000FEF74FF9FFF71AFA00F014F8FEE70000EF
:1039B000600300202003002001460020842900D05D
:1039C000C81C704710B5002800D1012000F086FB0C
:1039D000002010BD10B500F099FB002010BD7FB590
:1039E0000D46044641690820205E002911D0A169D6
:1039F00000290ED0FFF7E0FF6B46A269616907C39B
:103A00002B4622692168606800F05FFC039004B0D7
:103A100070BDFFF7D1FF03A901910090208A2B46CA
:103A200082B22168606800F027FC012801D00020E4
:103A3000EDE70398EBE7000010B5044601210020F4
:103A400000F006FA0221032000F002FA09490120E1
:103A50000871094949786170084908700246C10235
:103A60000748FEF796FC07490020087006495020D9
:103A7000087010BD210000201C0000200000002064
:103A8000000400480100002002000020F8B5134C9B
:103A90000F46666905462068001D00F087FA681C1D
:103AA00007D1002F05D021680D48091D00F0C2FA8A
:103AB000F8BD2068751945602168B54204D2A06838
:103AC000091D00F09FFAF8BD6068091D00F09AFA20
:103AD000206B8542F7D22563F8BD00007C000020F2
:103AE000CC040020F8B5054600F0B0FA294C206956
:103AF000401C20612068284F002803D0E06900287E
:103B000027D02CE025602069012828D10026142028
:103B10007043C01900F068FA761C072EF7D31E48D0
:103B20008C3000F061FA1C48A03000F05DFA1A48B1
:103B3000B43000F059FA1848C83000F055FA164869
:103B4000DC3000F051FA14488C3060601430A06012
:103B500005E02068E96AC06A884200D82560E06A0A
:103B6000401CE062E86AA169884200D9A061142182
:103B70004843C019291D00F05DFA00F073FAE069AE
:103B8000002806D02068E96AC06A884201D200F0A5
:103B900099FAF8BD7C000020F003002010B504461F
:103BA0004030407C002805D0012806D0022807D0EC
:103BB00072B6FEE7206B00F063FA204600F060FA70
:103BC00010BD000001210E48C902420705D0C01DEA
:103BD000C0080B4AC000821A891A0A4A00234118F9
:103BE00009C20839C908C900183A11604B600B6056
:103BF0000B1A0AC093600120C0075360D060704761
:103C0000E0040020C80000200F4E104C3746C83F8B
:103C100011E000F01BFAF068C568281D00F0C6F935
:103C20002069401E2061E068401EE06000F01AFA42
:103C30002846FFF7B3FFE0680028EAD1386801287A
:103C4000F9D900F03FFAF6E7B80400207C00002024
:103C5000FFB581B00C9C9000236B001F1818C6089C
:103C60000A9DF600700701D072B6FEE723180A5CC1
:103C700020331A750A5C002A02D0401C1028F5D3A4
:103C80002046403000270090C770072D00D306253E
:103C9000E562A764201D656400F0B1F92046183084
:103CA00000F0ADF924610720401B6462A061E76465
:103CB000009807743046049A019900F09FF820603C
:103CC0000B98002800D0046005B0F0BD30B5114954
:103CD00000E011460A688242FBD34B685C188442BC
:103CE00003D1406818184860084643681C1894427D
:103CF00009D1084C103C2468A24209D052689A1895
:103D000042600A6812680260814200D0086030BDDB
:103D10000460F9E7C80000200648416809680029E6
:103D200005D04168C968C9684968016370470021C6
:103D3000C943FAE77C00002003480068401C72B6C3
:103D400000D0FEE7FEE70000D0000020F8B50546F1
:103D5000002700F007FA284E3068002801D1FFF74D
:103D600031FFF06805423FD1002D3DD0083568078E
:103D700008D06807400F0821081A4519680701D0C4
:103D800072B6FEE7002D2FD0706885422CD81A48F5
:103D9000103001460C6801E020460C466168A942DB
:103DA00002D221680029F7D131688C421CD0076803
:103DB0002168016060680837411B102908D9601923
:103DC000420701D072B6FEE741606560FFF77EFFF3
:103DD00061687068401A7060B268904200D2B0604A
:103DE000F0680143002003C400F0F0FA780701D026
:103DF00072B6FEE73846F8BDB800002010B50124C1
:103E0000031F24061C601B1F1960191F024B0B6047
:103E1000143940380A6010BD393D0008F8B50D4628
:103E200001461E4617460020069C00F011F8294660
:103E3000012000F00DF83946022000F009F8314663
:103E4000032000F005F82146042000F001F8F8BD39
:103E500010B542001148012413185970825CE40324
:103E60000F481300FFF78EF90504080D1014190010
:103E70000A4621460B480EE00A4620210920C006CA
:103E800009E00A46214606E00A460121890302E0CC
:103E90000A4601214903FEF77CFA10BD50000020BC
:103EA000000800480004004810B504460078FFF7F9
:103EB000C1FC002804D06068642806D3032007E012
:103EC000012060706068401C04E0142801D30220C7
:103ED00060700020606010BD38B50E48002404708A
:103EE00001212246C9020C48FEF753FA0B48047020
:103EF0000B4804700B48FDF7CBFD0B488470C47071
:103F0000012003460246014600900020FFF786FF8D
:103F100038BD00000000002000040048010000201F
:103F200002000020E00000202100002038B50B48EE
:103F30000024047001212246C9020948FEF729FA2B
:103F400008480470084804700120034602460146F0
:103F500000900020FFF762FF38BD00000000002045
:103F600000040048010000200200002038B50B4882
:103F70000024047001212246C9020948FEF709FA0B
:103F800008480470084804700120034602460146B0
:103F900000900020FFF742FF38BD00000000002025
:103FA00000040048010000200200002043688268ED
:103FB00001699A60836842685A604A68824201D106
:103FC00082684A60002202610868401E0860086832
:103FD00070470000034B03601846543008606020AF
:103FE000106070474C0100200146083100224160FA
:103FF000D243C160826001610021016070470021ED
:104000000161704730B50B685A1C02D00246083275
:1040100002E0026904E02246546825689D42FAD90C
:1040200053684B6099608A60516008610168491C5F
:10403000016030BD42684A6093688B609368596044
:10404000916008610168491C0160704772B60448BC
:104050000168491C0160BFF34F8FBFF36F8F70473A
:10406000D000002005490868002804D0401E0860E0
:1040700000D162B6704772B6FEE70000D0000020A3
:1040800070B500281AD004460D4D083C6068E968F8
:10409000084201D172B6FEE72268002A01D072B64A
:1040A000FEE78843606000F05DF86068696840186A
:1040B00068602046FFF70AFE00F088F970BD000036
:1040C000B80000200120044900074860BFF34F8F6B
:1040D000BFF36F8F7047000000ED00E010B50200E5
:1040E0000FD00948806B002801D072B6FEE700F0BF
:1040F00039F800211046FFF7C9FC00F067F90028E5
:1041000001D1FFF7DFFF10BD7C00002010B586B0A5
:104110000024039405AA04A903A80494FFF75AFFF6
:1041200004990398009401910290002309A10B487F
:10413000059A00F0CAF80A490028486308D072B608
:104140000020C04308630120C8614C6100F06CF896
:1041500006B010BD49444C4500000000093C000871
:104160007C0000200248816B491C8163704700007D
:104170007C00002010B51348816B002902D001217A
:10418000416210BD0021416281690F4A02E00029AD
:1041900015D0491E14234B43D358002BF7D01423BA
:1041A0004B439A18536814465B6808345360A34223
:1041B00001D15B685360DA680260816110BD72B63C
:1041C000FEE700007C000020F003002010B5094944
:1041D00001200870C10200220748FEF7DAF80749FB
:1041E0000020087006495020087000210220FFF7C7
:1041F0002FFE10BD00000020000400480100002038
:104200000200002010B5074C012020700920002278
:104210001021C006FEF7BDF86420A070FEF7E2FF93
:1042200010BD00000000002070B50F48016AFF2299
:10423000120411430162016A1202114301620B4C24
:1042400000252561A5610A487D21C9000068FCF7A9
:1042500021F9401E60610720206106480560FBF7D8
:1042600089FF002070BD000000ED00E000E000E0EC
:1042700078000020D0000020FFB585B016469000E1
:104280000F9FFFF763FD05001CD05420FFF75EFD74
:10429000040014D000205121256308550E99009187
:1042A0000390019702943246089B06990598FFF700
:1042B000CFFC2046FFF716FC012009B0F0BD2846D0
:1042C000FFF7DEFE0020C043F7E7F0B585B00746F4
:1042D0000B9D0C9C0A98002D15D0002C15D054264F
:1042E0002563022551263555002504AE0090019620
:1042F000039502943846FFF7ABFC2046FFF7F2FB2C
:10430000049805B0F0BD72B6FEE772B6FEE7000095
:10431000F8B52C4C0027A06B002808D0206A401C60
:104320002062606A002800D001273846F8BD66691F
:10433000761C66610ED160680068002801D072B6F4
:10434000FEE76068A1686160A060A06A401CA0628E
:10435000FFF7E2FC206B86420AD360680068002801
:1043600010D06068C068C568686886420DD2206356
:1043700020681421C06A4843134908580128D0D93D
:104380000127CEE70020C043F1E7281DFFF70EFE0E
:10439000A86A002803D028461830FFF707FEE86A0D
:1043A000A169884200D9A0611421484306494018F8
:1043B000291DFFF73FFEE86A2168C96A8842CCD30D
:1043C0000127CAE77C000020F0030020F8B5284C44
:1043D0000025A06B2E46002808D0FFF737FEA06B03
:1043E000401EA063A06B002802D03DE072B6FEE73D
:1043F0002169204F00291DD136E0F868C56828469C
:104400001830FFF7D3FD281DFFF7D0FDE86AA1693A
:10441000884200D9A061142148431649B439401894
:10442000291DFFF707FEE86A2168C96A884201D39F
:104430000120606238680028DFD1002D01D0FFF72D
:104440006BFC256A002D09D00127FFF761FF0028CA
:1044500000D067626D1EF8D100202062606A0028DB
:1044600002D00126FFF72EFEFFF7FCFD3046F8BD17
:104470007C000020A404002070B501250400ED0795
:104480004C4020D4441A01D2001B0919C60D4B0020
:10449000F2B2FF2A29D01B0E2CD000020C02D31A34
:1044A0002C43DC402843051910D2280A02D3401CB3
:1044B0006D0611D0761EF6058019FF2A00DA70BD50
:1044C000C00DC00570BD694000F022F80120054311
:1044D000C541521C761CE8E764089C40C901614054
:1044E0008900E7D10124A043E4E71B0E440200D079
:1044F000034870BD002AFCD1C00FC00770BD00BFCB
:104500000000C07F70B501250400ED074C4022D4A7
:10451000441A02D26C40001B0919C60D4B00F2B2BE
:10452000FF2A4BD01B0E50D000020C02D31A2C4392
:10453000DC40A843051B05D5AD0019D36D08761ED8
:10454000521E37D0F605280A01D2801970BD70417D
:104550006D0603D070BD6940FFF794FF9C400902CF
:104560006140490001D0401E70BD0124A04370BDD0
:104570006D081DD001202B0C01D12D0410302B0E05
:1045800001D12D0208302B0F01D12D01001DAB0FE1
:1045900001D1AD00801CEB0F01D16D00401C6D00FE
:1045A000361A121A680AF5054019012A02DB70BD95
:1045B000002070BDC036300AC00770BD1B0E44021B
:1045C00001D1FF2B00D1024870BD002AF0D070BD90
:1045D0000000C07F01330008F90A0000CC0A000087
:1045E0009E0A00006F0A0000410A0000110A000044
:1045F000E2090000B209000082090000520900002F
:1046000021090000F1080000C10800009108000025
:10461000610800003108000001080000D207000016
:10462000A3070000740700004607000018070000F9
:10463000EB060000BE0600009206000066060000C1
:104640003B06000011060000E8050000BF05000061
:10465000970500006F0500004905000023050000D4
:10466000FE040000D9040000B6040000930400001A
:104670007104000050040000300400001004000029
:10468000F1030000D3030000B60300009A0300000A
:104690007E03000063030000490300002F030000B5
:1046A00017030000FF020000E7020000D102000033
:1046B000BB020000A5020000910200007C02000085
:1046C00069020000560200004402000032020000AD
:1046D000210200001002000000020000F0010000B2
:1046E000E1010000D3010000C4010000B701000097
:1046F000A90100009C01000090010000840100005D
:10470000780100006D010000620100005701000007
:104710004D0100004301000039010000300100009C
:10472000270100001E010000160100000E0100001C
:1047300006010000FE000000F7000000F00000008D
:10474000E9000000E2000000DC000000D5000000ED
:10475000CF000000C9000000C4000000BE0000003F
:10476000B9000000B40000000101000000010000D9
:104770000000010001000001000000000100000134
:104780000001000000000100000001010000000025
:104790000101000000000100000000010100000014
:1047A0000100000000010000010001000000000104
:1047B00000010000010000000100010000000001F4
:1047C00000000001010000000001000000000101E4
:1047D00000000001000000000100010000010000D5
:1047E00001000001000000000100000100010000C4
:1047F00000000100000001010000000001003F0670
:104800005B4F666D7D077F6F000000007900000A36
:1048100001020A00030A02060A03080A040A0A013E
:10482000010A00020A010A0A010A0A010A0A010A27
:104830000A010A0A020A0A02050A010A0A020A0A07
:10484000020A0A010A0A030A0A030A0A03070A01FA
:104850000A0A030A0A010A0A040A0A04040A040AE0
:104860000A04090A010A0A010E4800082048000843
:10487000324800084448000856480008D537000868
:1048800049390008A5320008CD410008C9320008A6
:104890006D3F0008393A00082D3F000865370008D1
:1048A000D93E00080000000024490008692F0008D4
:1048B0000000000000000000600000000000000098
:1048C0000000000030490008892F0008FDFF0000AB
:1048D0000000000060000000000000000000000078
:1048E00002030405060708090A0B0C0D0E0F101031
:1048F0000102030405060708090A0B0C0D0E0F1030
:10490000000000000000000001020304060708097F
:1049100000000000010203043A7474003A74740049
:104920003A74740064656661756C745461736B00ED
:104930004B65795363616E00584900080000002000
:10494000E0000000F4000008384A0008E000002001
:1049500060130000100100080000000000000000CB
:104960000000000000000000000000000000000047
:1049700000000000192D37555F0000000000000006
:10498000000006000000000001000101000000001E
:104990000200060200000000030003030000000004
:1049A00004000404000000000001010102010301F1
:1049B00004010000000000000000000000000000F2
:1049C00000000000010000000400000000000000E2
:1049D00000127A000000000000000000000000004B
:1049E00000000000000000000000000000000000C7
:1049F00000000000000000000000000000000000B7
:104A000000000000000000000000000000000000A6
:104A10000000000000000000000000000000000096
:104A20000000000000000000AAAAAAAA00000000DE
:084A300000000000000000007E
:04000005080000B13E
:00000001FF
